:1018000012010002000000400516408100000102A4
:1018100000010A06000200000040010009022E003B
:1018200001010080320904000004FF0000000705E8
:1018300002020002000705040200020007058602FA
:101840000002000705880200020009022E000101C3
:101850000080320904000004FF00000007050202B6
:101860004000000705040240000007058602400012
:101870000007058802400000040309040C0341002E
:101880004300430045005300240355005300420029
:101890002D0041004900310036002D003100360096
:0E18A0004100000000000000000000000000F9
:03004300021600A2
:0300530002160092
:10160000021CFD00021D6400021D4500021D210098
:10161000021B5F00021A7E00021E2800021E290023
:10162000021E2A00021E2B00021E2C00021E2D008C
:10163000021E2E00021E2F00021E3000021E31006C
:10164000021E3200021E2900021E3300021E340058
:10165000021E3500021E3600021E3700021E380030
:10166000021E3900021E2900021E2900021E290046
:10167000021E3A00021E3B00021E3C00021E3D00FC
:10168000021E3E00021E3F00021E4000021E4100DC
:10169000021E4200021E4300021E4400021E4500BC
:1016A000021E4600021E4700021E4800021E49009C
:0816B000021E4A00021E4B005D
:10141C0060802800013F0101010101070003020265
:10142C0002020200F5F7F7F7F7F7F7F700000000F4
:10143C000000003F013F010101010107020500000E
:10144C0000000000F6F7F7F7F7F7F7F700000000D9
:10145C000000003F011301210139010700010001C7
:10146C00000B0200F7F7F3F7F5F7F7F7003600F08B
:10147C00002D003F010138010101010702020D009E
:10148C0000000000F2F7F7F7F7F7F7F700002D0070
:10149C000000003F602428870000000000000000CE
:1014AC000000000000000000000000000000000030
:1014BC00000000000000000000000000472880E051
:0614CC008000F7AA4E00AB
:1014FE0090E60174AAF090E6F574FFF0902880E073
:10150E0090E6F3F0902881E090E6C3F0902882E018
:10151E0090E6C1F0902883E090E6C2F0902885E036
:10152E0090E6C0F0902886E090E6F4F075AF077470
:10153E0028F59A7400F59B759DE4E4F59EFF90E600
:10154E007BE090E67CF00FBF80F490E67174FFF0C4
:10155E00F5B490E672E04480F043B680000000E4FB
:10156E0090E6C4F000000090E6C5F0902887E09069
:10157E00E6C6F0902888E090E6C7F0902889E090C3
:10158E00E6C8F090288AE090E6C9F090288BE090AB
:10159E00E6CAF090288CE090E6CBF090288DE09093
:0C15AE00E6CCF090288EE090E6CDF02214
:0A17F40000010202030304040505CE
:10193600EC4EFEED4F24F4F58274173EF583E493E6
:10194600FF3395E0FEEF24A1FFEE34E68F82F583A8
:101956002290E6BCE0547EFF7E00E0D394807C00BB
:1019660022F0E5242401FFE43523FEE43522FDE4DC
:1019760035218F248E238D22F52122AF28AE27AD67
:1019860026AC25AB24AA23A922A821C30212D9E595
:0C1996002E2524F582E52D3523F5832253
:100EC900E4F52CF52BF52AF529C203C200C202C2AA
:100ED9000112077F7E187F008E0A8F0B7512187515
:100EE900131275081875091C75101875114A7514AF
:100EF90018751578EE54E07003020FB5752D00755D
:100F09002E808E2F8F30C374AC9FFF74189ECF2410
:100F190002CF3400FEE48F288E27F526F525F52427
:100F2900F523F522F521121981500A12199574CD6C
:100F390012196780F1E4F524F523F522F521121938
:100F4900815017E5302524F582E52F3523F583E017
:100F5900FF121995EF12196780E4852D0A852E0B6A
:100F690074002480FF741834FFFEC3E5139FF51342
:100F7900E5129EF512C3E50D9FF50DE50C9EF50CE6
:100F8900C3E50F9FF50FE50E9EF50EC3E5099FF525
:100F990009E5089EF508C3E5119FF511E5109EF5D1
:100FA90010C3E5159FF515E5149EF514D2E843D84D
:100FB9002090E668E04409F090E65CE0443DF0D218
:100FC900AFD206121C2B90E680E054F7F0538EF84E
:100FD900C203300105120D2DC2013003291217FE7B
:100FE9005024C203121CD820001690E682E030E794
:100FF90004E020E1EF90E682E030E604E020E0E45E
:0B100900121C5A121E1E12133580C765
:100D2D0090E6B9E01212F60DD1000E25010E7F03EB
:100D3D000D50060DCB080DC5090DB90A0DBF0B00E1
:100D4D00000EB5121E204003020EC190E6BBE0243A
:100D5D00FE602214603324FD60111460222406709D
:100D6D0048E50A90E6B3F0E50B8037E51290E6B35F
:100D7D00F0E513802DE50C90E6B3F0E50D8023E54D
:100D8D000E90E6B3F0E50F801990E6BAE0FF121C65
:100D9D0086AA06A9077B01EA494B600DEE90E6B3E2
:100DAD00F0EF90E6B4F0020EC1020EBA121DF5027C
:100DBD000EC1121DFE020EC1121A41020EC1121DEC
:100DCD00EC020EC1121E224003020EC190E6B8E0E5
:100DDD00247F60151460192402703AA200E43325B3
:100DED00E0FFA202E4334F8018E490E740F0801654
:100DFD0012195740047D0180027D00121936E0540E
:100E0D000190E740F0E4A3F090E68AF090E68B7451
:100E1D0002F0020EC1020EBA121E244003020EC1D0
:100E2D0090E6B8E024FE601624026003020EC19025
:100E3D00E6BAE0B40105C200020EC1020EBA90E698
:100E4D00BAE0702C12195740047D0180027D00120A
:100E5D001936E054FEF090E6BCE0548013131354A1
:100E6D001FFFE0540F2F90E683F0E04420F0804404
:100E7D00803B121E26503D90E6B8E024FE601924FA
:100E8D0002703190E6BAE0B40104D200802690E6FB
:100E9D00BAE06402601E801512195740047D01806E
:100EAD00027D001219368008120080500790E6A0CE
:0C0EBD00E04401F090E6A0E04480F02248
:03003300021E0E9C
:041E0E0053D8EF3284
:100B77005553422D41494F31362D3136410055539A
:100B8700422D41494F31362D313645005553422DBF
:100B970041494F31322D313641005553422D41499C
:100BA7004F31322D3136005553422D41494F3132A5
:100BB7002D313645005553422D41494F31362D369B
:100BC700344D41005553422D41494F31362D36346E
:100BD7004D45005553422D41494F31322D36344D45
:100BE70041005553422D41494F31322D36344D0086
:100BF7005553422D41494F31322D36344D4500551D
:100C070053422D41494F31362D333241005553421E
:100C17002D41494F31362D333245005553422D4131
:100C2700494F31322D333241005553422D41494FFF
:100C370031322D3332005553422D41494F31322D38
:100C4700333245005553422D41494F31362D363405
:100C570041005553422D41494F31362D3634450019
:100C67005553422D41494F31322D363441005553AA
:100C7700422D41494F31322D3634005553422D41D3
:100C8700494F31322D363445005553422D41494F96
:100C970031362D393641005553422D41494F3136B2
:100CA7002D393645005553422D41494F31322D39A3
:100CB7003641005553422D41494F31322D393600C7
:100CC7005553422D41494F31322D39364500555341
:100CD700422D41494F31362D31323841005553426B
:100CE7002D41494F31362D31323845005553422D6C
:100CF70041494F31322D31323841005553422D4150
:100D0700494F31322D313238005553422D41494F29
:100D170031322D31323845005553422D41494F2D3F
:060D27004F544845520044
:1014D200014300C105024000004228AC000041283F
:1014E200AB0002450000014200014AFF0144FE0137
:0B14F2006300014D0002160000C10461
:10101400E490E68AF090E6BEE090E68B2290E6BA91
:10102400E075F008A4FFA3E07C002FFFEC35F0FE90
:10103400E42FF58274503EF58322E490E68BF09021
:10104400E6BBE0FF90E6BAE075F008905003121298
:10105400EAEF2290E740F0E490E68AF090E68B22F3
:10106400AD377AE779407F40AB072274402539F5E4
:1010740082E434E7F583222533F533E5363532F55A
:1010840032C3E5359537F535E5349536F5342275B3
:1010940086005391EF90E65D22E0FF90E6BCE0FE0F
:1010A400E42EF582E43440F583225403FB90E6BA3F
:1010B400E075F008A422904017E090E740F09040DB
:1010C40018E090E741F022C3E5399537E5389536C5
:1010D40022E5332539F582E5323538F58322F58268
:1010E400E43428F5832274412FF58274E73EF583B6
:1010F40022850D82850C83A37402F022850F8285DC
:101104000E83A37407F022F07A287BAEAD647F0EC1
:1011140022F0EA25E025E022E0FD90E6BBE0C413DE
:09112400132290E604E0F53122EB
:041E120043800222E5
:041E16005380FD22D6
:041E1A0063800222BD
:101BC70090401C7401F0E4F0904011300613F0903F
:101BD700E67174FFF0F5B490E6727480F075B6FFA5
:101BE70022E55FF0E490E671F0F5B490E672F0F567
:021BF700B62214
:101CB2007564039028AE7430F0E4A3F0A3740312A9
:101CC200110B121DBB9028AE7438F0E4A3F0A304EC
:061CD20012110B021DBB04
:101D8300AE057D03EF540144189028AEF0A3EEF0A6
:0C1D9300A3EBF07A287BAE7F0E021DBB94
:1016B800E490E671F090E672F075B3FF75B4FF75CB
:1016C800B5FF75B6FFFEFD7801AF06EF0880010390
:1016D800D8FDF5B18EB08DA08D9090401BEDF00D2A
:1016E800ED70E40EEE70E0F5B3F5B5FEFDFC7801A3
:1016F800AF06EF08800103D8FDF5B18DA090401C1E
:101708007401F0AF90ABB0E4F0EFB50504EB6E6098
:101718003A754401EC540FFA25E025E024401210F4
:1017280073ED1211152441F582E434E7F583EE12C6
:1017380011152442F582E434E7F583EF12111524DC
:1017480043F582E434E7F583EBF00C0DED709F0E62
:10175800EE709BE544B4FE03E4F544C206021BC7E1
:1018AE009040117404F0A374F0F0A37401F0E4906E
:1018BE00E6CEF000000090E6CFF000000090E6D0FB
:1018CE00F000000090E6D17410F000000075BB0629
:1018DE00000000904019E4F0121CECE4FDFCED2534
:1018EE00E0FFEC33FE74022FF58274F83EF583E0D0
:1018FE00FB74402FF58274E73EF583EBF074032FF3
:10190E00F58274F83EF583E0FB1210EAEBF00DBDA4
:10191E0000010CED64104C70C590E6B0E090E7400D
:08192E00F090E68B7420F0221A
:1019A2008B328A338934E4F535121DD78F36E5360A
:1019B20025E02402901888F0E4F535AF36EF339530
:1019C200E0FEC3E5359FEE6480F87480985027AB43
:1019D20032AA33A934853582758300121235FDE5AA
:1019E2003575F002A4248AF9741835F08982F583DA
:0719F200EDF0053580C52270
:10077F00E4F53190E601E054FEF0121E0690E678A3
:10078F00E05410FFC4540F4450F53F13E433F54CBD
:10079F0090E61074A0F090E611F000000090E612C1
:1007AF00F0000000E490E613F000000090E61474EF
:1007BF00E0F0000000E490E615F090E6047480F09D
:1007CF000000007402F00000007406F0000000E466
:1007DF00F000000090E618F00000007411F0000027
:1007EF000090E61A7409F0000000754A019040135A
:1007FF0074AAF0E064AA70187455F0E0B45511743F
:10080F004FF0E0B44F0A7449F0E0B44903E4F54AFD
:10081F00E54A14601104704F1210667D017F037E4C
:10082F00001219F980391210667D027FF67E1D12B3
:10083F0019F990E740E0F531A3E0F54AE53133923D
:10084F00E03392E0F5311210667D017F037E0012D6
:10085F0019F990E740E065316005754A048008900A
:10086F00E740E0541FF54AE54A444090180AF0E487
:10087F00F563F54DE54A541F1212F608E80008F922
:10088F0001090402091303091F04092F05093B0677
:10089F00094707095308095F09096B0A09770B090B
:1008AF00830C098F0D099B0E09A70F09B31009BF00
:1008BF001109CB1209D71309E31409EE1509F9161B
:1008CF000A04170A0F180A1A190A251A0A301B0ADE
:1008DF003F1C0A501D00000A647A0B7977120AF93F
:1008EF00E4F0756301F54D020A6D7A0B7985120AF2
:1008FF00F9740180187A0B7993120B027402F07558
:10090F00630180167A0B79A1120B027403F0800A2F
:10091F007A0B79AE120B0B7404F0E4F54D020A6DED
:10092F007A0B79BC120B0B7408020A397A0B79CB4C
:10093F00120B147409020A4D7A0B79DA120B147424
:10094F000A020A397A0B79E9120B1D740B020A4D50
:0E095F007A0B79F7120B1D740C020A4D7A0CFC
:10096D007906120B267410020A397A0C7914120BBF
:10097D00267411020A4D7A0C7922120B2F74120271
:10098D000A397A0C7930120B2F7413020A4D7A0C36
:10099D00793D120B387414020A4D7A0C794B120BF7
:1009AD00387410020A397A0C7959120B41741102FC
:1009BD000A4D7A0C7967120B417412020A397A0CBE
:1009CD007975120B4A7413020A4D7A0C7982120B47
:1009DD004A7414020A4D7A0C7990120B53741080DC
:1009ED004B7A0C799E120B53741180547A0C79AC9E
:1009FD00120B5C741280357A0C79BA120B5C74137D
:100A0D00803E7A0C79C7120B65741480337A0C7999
:100A1D00D5120B65741080147A0C79E4120B6E7478
:100A2D0011801D7A0C79F3120B6E7412F07563013F
:100A3D0080207BFF7A0D79021219A290401A74134F
:100A4D00F0800F7BFF7A0D79101219A290401A7465
:100A5D0014F0754D0180097BFF7A0D791F1219A2D3
:100A6D001216B843AF011214FEC206121BC790E650
:100A7D00C37480F090E6C214F000000090E6E274BA
:100A8D0002F043B202D200E4F54E904000F0F54F73
:100A9D00A3F0F550A3F0F551A3F0F552A3F0F553E3
:100AAD00A3F0F554A3F0F555A3F0F556A3F0F557C3
:100ABD00A3F0F558A3F0F559A3F0F55AA3F0F55BA3
:100ACD00A3F0F55CA3F0F55DA3F0F55EA3F0755F03
:100ADD0005A37405F07560F0A374F0F0E4F561A35F
:100AED00F0A3F090401DF0F562021CB27BFF1219CD
:100AFD00A290401A227BFF1219A290401A227BFF6E
:100B0D001219A290401A227BFF1219A290401A22AC
:100B1D007BFF1219A290401A227BFF1219A290405E
:100B2D001A227BFF1219A290401A227BFF1219A2E2
:100B3D0090401A227BFF1219A290401A227BFF12BD
:0B0B4D0019A290401A227BFF1219A28F
:100B580090401A227BFF1219A290401A227BFF12A2
:0F0B680019A290401A227BFF1219A290401A2264
:10133500E5477003300435E5174516700675162F19
:101345007517FFE517151770021516E51745167081
:1013550004F547800FAE16AF177C0B7DFF12128484
:10136500EF20E005121E168003121E1290401FE0AA
:1013750030E057E4F090E6F574FFF090E6047480F1
:10138500F0E490E6CEF000000090E6CFF00000001B
:1013950090E6D0F000000090E6D1F00000000000DB
:1013A5000090E6047482F00000007486F0000000EE
:1013B500E4F000000090E6917480F0000000F00079
:1013C5000000F0000000F0000000E5BB30E72D0054
:1013D500000090E6AFE0FE90E6B0E07C002400F56A
:1013E50041EC3EF540D3E5419400E5409400400CC6
:1013F500E5409402500690E6487406F0E5807004D6
:101405007F0180027F00EF90E68030E005E0440830
:07141500F022E054F7F02281
:0217FE00D322F4
:021E1E00D322CD
:021E2000D322CB
:101A410090E680E030E71800000090E6247402F090
:101A5100000000E490E625F0000000D205801600A9
:101A61000000E490E624F000000090E6257440F0C8
:0D1A7100000000C20590E6BAE0F54BD3225C
:091DEC00E54B12105704F0D3225C
:081DFE0090E6BAE0F53ED322A5
:091DF500E53E12105704F0D32260
:021E2200D322C9
:021E2400D322C7
:021E2600D322C5
:10008000E4F53AF53B75470190E6B9E01212F60146
:10009000AA1001B71101CE12011A200170210177B7
:1000A00022017D2301FC3501F63803E291058EA281
:1000B000058EA30588A90566AC06F0B306D1B40386
:1000C000DCB606B2B703F2BA040ABB0510BC02479D
:1000D000BE038BBF0230D00238D10333D200E7D445
:1000E00006D1FB0000077B90E6B8E020E71612106F
:1000F00014F090E6A0E020E1F990E74012109DEFA7
:10010000F002077D90E6BCE0FFE42F1210A6E0901D
:10011000E740F012109DEF0201C690E6BEE0B40287
:100120000F90E6BBE0C4333354C0121047F0802870
:1001300090E6BEE06403702090E6BBE0FF7401A887
:1001400007088002C333D8FC25E044C0121047F0F2
:10015000121021E090E742F0121021E090E740F009
:100160001210B1FFA3E012102EE090E7410206EC5E
:1001700012103EF002077DE490E68B800312103EE1
:10018000F090E6BC12111C54037A001210AE2BFF43
:10019000EA121031EDF090E6BD12111C1210AE2BD8
:1001A000FFEA121031EDF002077D121014F090E614
:1001B000A0E020E1F9802C904015E090E740F0901D
:1001C0004016E090E741F0E490E68A0206EC121057
:1001D00014F090E6A0E020E1F990E742E0540390AB
:1001E0004014F090E740E0904015F090E741E09037
:1001F0004016F002077D90E6F574FFF012112643D9
:100200003180000000E531F00000007486F000004D
:10021000007482F090E6997480F0000000F0000015
:1002200000F0000000F000000012105B04F08008F5
:10023000121126433180800612112653317F0000AF
:1002400000E531F002077D121014F090E6A0E020E6
:10025000E1F990E740E0F54E904000F090E741E092
:10026000F54F904001F090E742E0F550904002F0E9
:1002700090E743E0F551904003F090E744E0F552F9
:10028000904004F090E745E0F553904005F090E78A
:0B02900046E0F554904006F090E74770
:10029B00E0F555904007F090E748E0F556904008A0
:1002AB00F090E749E0F557904009F090E74AE0F508
:1002BB005890400AF090E74BE0F55990400BF090C6
:1002CB00E74CE0F55A90400CF090E74DE0F55B9071
:1002DB00400DF090E74EE0F55C90400EF090E74F4C
:1002EB00E0F55D90400FF090E750E0F55E90401028
:1002FB00F090E751E0F55F904011F090E752E0F598
:10030B0060904012F090E753E0F561904013F0E5F8
:10031B004A541FD39404500302077D90E754E0F531
:10032B006290401DF002077D90E740E54EF0A3E59B
:10033B004FF0A3E550F0A3E551F0A3E552F0A3E590
:10034B0053F0A3E554F0A3E555F0A3E556F0A3E570
:10035B0057F0A3E558F0A3E559F0A3E55AF0A3E550
:10036B005BF0A3E55CF0A3E55DF0A3E55EF0A3E530
:10037B005FF0A3E560F0A3E561F0A3E5620206EC94
:10038B0090E6BEE064047035904019F0053DE53D04
:10039B007002053C1210BA904019E4F0053DE53DA2
:1003AB007002053C904017E090E742F0904018E057
:1003BB0090E743F090E68B7404F002077D904019B0
:1003CB00E4F0121CEC1210BA90E68B7402F00207E8
:1003DB007D1218AE02077D90E740E544F090E6BF32
:1003EB00E090E68A0206ECE56390E740B401057401
:1003FB00BBF08003E54AF012105B04F002077DE5C9
:10040B006364016003020504D206121BC790E74028
:10041B0074BBF090E6BBE0C313FFE5B154802FF53E
:10042B00B1E090E6C4F090E6BAE090E6C5F090E655
:10043B00C4E0700990E6C5E07003121E1690E6BD8D
:10044B00E0FE90E6BCE07C002400F549EC3EF5486C
:10045B00E549454870030204FDE5BB30E7F2E5AB27
:10046B0020E1ED300523D3E5499400E548940240A3
:10047B003F90E6D07402F0000000E490E6D1F0006B
:10048B000000753C02F53D803ED3E5499440E548BC
:10049B009400E4401790E6D0F000000090E6D17491
:0A04AB0040F0000000753C00F53D34
:1004B500801B90E6CFF0E54890E6D0F0000000E51F
:1004C5004990E6D1F000000085483CF53DE4F5BBD8
:1004D500000000E5BB30E7FB000000C3E549953DA2
:1004E500F549E548953CF548E5B1547F04FFE5B18C
:1004F50054802FF5B102045BC206121BC78006901B
:10050500E740E54AF012105B04804BE5AC5401FF6F
:10051500E5BB54804F90E740F0E030E736E020E05F
:100525003290E6BBE090E6CEF000000090E6BAE03F
:1005350090E6CFF000000090E6BDE090E6D0F00038
:10054500000090E6BCE090E6D1F000000075BB0627
:10055500000000121014F090E6A0E04480F00207BD
:100565007D90E6B5E054FEF090E6BFE0121015F080
:1005750090E6BBE090E6B3F090E6BAE090E6B4F022
:1005850002077D754C01433F0190E6BAE0753200E4
:10059500F533A3E0FEEE423290E6BEE0753400F599
:1005A50035A3E0FEEE423490E6B8E064C060030295
:1005B5000653E5354534700302077D90E6A0E0203B
:1005C500E1F9C3E5359440E53494005008853436A7
:1005D500853537800675360075374090E6B9E06495
:1005E500A3703B90E6BCE0B40116A3E0701290E660
:1005F500BBE030E70B90E7407402F0A314F08042B3
:10060500E4F538F5391210CB50381210D5E0FF1249
:10061500106FEFF00539E53970EB053880E7E4F543
:1006250038F5391210CB501012106F74CDF0053912
:10063500E53970EF053880EB121064AF33AE321236
:1006450019F912105BE537F012107B0205B790E639
:10065500B8E06440600302077DE535453470030268
:10066500077D12105BF090E6A0E020E1F990E68BA3
:10067500E0753600F53790E6B9E0B4A31EE4F53829
:10068500F5391210CB501E12106FE0FF1210D5EF86
:10069500F00539E53970EB053880E7121064AF33A2
:0206A500AE3273
:1006A700121B2AE53712107B02065E90E6B8E0308F
:1006B700E706E490E68A802D121019F0E54344809E
:1006C70090401EF0121CB202077D90E6B8E020E7CA
:1006D70010121014F090E6A0E020E10302077D80DD
:1006E700F4E490E68AF002077590E6BEE0701AE03F
:1006F70090E68BF090E6BCE0FF90E6BBE0FD90E66D
:10070700BAE0FB121D8302077D90E6BEE06411701C
:100717005D121015F090E6A0E020E1F9E4F538F558
:100727003990E740E0F53EE53E604BC3E53994027A
:10073700E53894005040E53E30E023AF39C007E587
:100747003925E0FFE53833FE74422FF58274E73E22
:10075700F583E0FD1210EAE0FBD007121D8305398F
:10076700E53970020538E53EC313F53E80B912102E
:0807770019F08002D322C32215
:101CFD00C0E0C083C082C085C084C086758600D216
:101D0D00011210967401F0D086D084D085D082D087
:041D1D0083D0E0325D
:101D4500C0E0C083C082C085C084C0861210937471
:0F1D550004F0D086D084D085D082D083D0E03205
:101D6400C0E0C083C082C085C084C0861210937452
:0F1D740002F0D086D084D085D082D083D0E032E8
:101B5F00C0E0C083C082C085C084C0867586008502
:101B6F00100C85110D1210F585080E85090F121135
:101B7F00001210967410F0D086D084D085D082D009
:041B8F0083D0E032ED
:101D2100C0E0C083C082C085C084C086758600D2F1
:101D3100031210967408F0D086D084D085D082D05A
:041D410083D0E03239
:101A7E00C0E0C083C082C085C084C08675860090D9
:101A8E00E680E030E71285080C85090D1210F58509
:101A9E00100E85110F1211001210967420F0D086C0
:0B1AAE00D084D085D082D083D0E032FD
:011E28003287
:011E29003286
:011E2A003285
:011E2B003284
:011E2C003283
:011E2D003282
:011E2E003281
:011E2F003280
:011E3000327F
:011E3100327E
:011E3200327D
:011E3300327C
:011E3400327B
:011E3500327A
:011E36003279
:011E37003278
:011E38003277
:011E39003276
:011E3A003275
:011E3B003274
:011E3C003273
:011E3D003272
:011E3E003271
:011E3F003270
:011E4000326F
:011E4100326E
:011E4200326D
:011E4300326C
:011E4400326B
:011E4500326A
:011E46003269
:011E47003268
:011E48003267
:011E49003266
:011E4A003265
:011E4B003264
:101AB900AB07AA06AC05E4FDE54C600B7E000DEE14
:101AC90024AE1210E2EAF0AE050D74AE2E1210E249
:101AD900EBF0AF050D74AE2F1210E2ECF07A287B13
:0B1AE900AEAF3F121DBBAF3F021AF46E
:101B2A008E648F658D668A678B68E4F569E569C39B
:101B3A00956650200565E565AE647002056414FF7C
:101B4A00E5682569F582E43567F583E0FD121AB97F
:051B5A00056980D9229D
:1019F9008E648F658D668A678B68E4FDF569E54CB1
:101A09006012E564FF7E000DEE24AEF582E4342811
:101A1900F583EFF0AE050D74AE2EF582E43428F5AA
:101A290083E565F07A287BAEAF3F121DBBAB68AA90
:081A390067AD66AF3F021D9F7F
:101C5A0090E682E030E004E020E60B90E682E03095
:101C6A00E119E030E71590E680E04401F07F147E48
:0C1C7A00001215BA90E680E054FEF02243
:101CD80090E682E044C0F090E681F043870100007E
:041CE80000000022D6
:101C2B0030060990E680E0440AF0800790E680E0F9
:101C3B004408F07FDC7E051215BA90E65D74FFF068
:0F1C4B0090E65FF05391EF90E680E054F7F022BF
:101CEC007400F58690FDA57C05A3E582458370F90B
:011CFC0022C5
:081E0600E4F56FD2E9D2AF222E
:101AF40090E678E020E6F9C2E990E678E04480F0E8
:101B0400EF25E090E679F090E678E030E0F990E6B1
:101B140078E04440F090E678E020E6F990E678E05A
:061B240030E1D6D2E922F7
:101BF900A90790E678E020E6F9E56F702390E6788A
:101C0900E04480F0E925E090E679F08D6AAF03A918
:101C190007756B018A6C896DE4F56E756F01D322C6
:021C2900C322D4
:101B9300A90790E678E020E6F9E56F702590E678EE
:101BA300E04480F0E925E0440190E679F08D6AAFE6
:101BB30003A907756B018A6C896DE4F56E756F0374
:041BC300D322C32244
:03004B0002112D72
:10112D00C0E0C083C082C085C084C086758600C003
:10113D00D075D000C000C001C002C003C006C007FA
:10114D0090E678E030E206756F0602121790E678A9
:10115D00E020E10CE56F64026006756F070212175F
:10116D00E56F24FE605F14603624FE7003021208E2
:10117D0024FC700302121424086003021217AB6BD7
:10118D00AA6CA96DAF6E056E8F8275830012123534
:10119D0090E679F0E56E656A7070756F05806B90FD
:1011AD00E679E0AB6BAA6CA96DAE6E8E827583008D
:1011BD00121262756F02E56A6401704E90E678E076
:1011CD004420F08045E56A24FEB56E0790E678E090
:1011DD004420F0E56A14B56E0A90E678E04440F0DC
:1011ED00756F0090E679E0AB6BAA6CA96DAE6E8E53
:1011FD0082758300121262056E800F90E678E044CE
:10120D0040F0756F008003756F005391DFD007D0EC
:10121D0006D003D002D001D000D0D0D086D084D05B
:08122D0085D082D083D0E032AD
:021C8600A907AC
:101C8800AE14AF158F828E83A3E064037017AD0185
:101C980019ED7001228F828E83E07C002FFDEC3ECF
:091CA800FEAF0580DF7E007F0025
:011CB1002210
:101D9F00121B93E56F24FA600E146006240770F38C
:0C1DAF00D322E4F56FD322E4F56FD322B9
:101DBB00121BF9E56F24FA600E146006240770F30A
:0C1DCB00D322E4F56FD322E4F56FD3229D
:1015BA008E318F3290E600E054187012E532240121
:1015CA00FFE43531C313F531EF13F532801590E698
:1015DA0000E05418FFBF100BE53225E0F532E53183
:1015EA0033F531E5321532AE31700215314E6005F0
:0615FA00121CEC80EE2241
:030000000217687C
:0C176800787FE4F6D8FD75816F0217AFA2
:10123500BB010CE58229F582E5833AF583E022506E
:1012450006E92582F8E622BBFE06E92582F8E222B8
:0D125500E58229F582E5833AF583E49322D2
:10126200F8BB010DE58229F582E5833AF583E8F0C2
:10127200225006E92582C8F622BBFE05E92582C86E
:02128200F22256
:10128400BC000BBE0029EF8DF084FFADF022E4CC4E
:10129400F875F008EF2FFFEE33FEEC33FCEE9DEC17
:1012A400984005FCEE9DFE0FD5F0E9E4CEFD22ED5D
:1012B400F8F5F0EE8420D21CFEADF075F008EF2FA7
:1012C400FFED33FD4007985006D5F0F222C398FD98
:0512D4000FD5F0EA2235
:1012D900EB9FF5F0EA9E42F0E99D42F0E89C45F06B
:0112E90022E2
:0C12EA00A42582F582E5F03583F583220F
:1012F600D083D082F8E4937012740193700DA3A387
:1013060093F8740193F5828883E47374029368609A
:06131600EFA3A3A380DF9A
:101DD700E4FFFE12131C600C0FEF70010E09E9708F
:051DE700F20A80EF226A
:10177400020EC9E493A3F8E493A34003F68001F2B4
:1017840008DFF48029E493A3F85407240CC8C33376
:10179400C4540F4420C8834004F456800146F6DF45
:1017A400E4800B010204081020408090141CE47EA5
:1017B400019360BCA3FF543F30E509541FFEE4933A
:1017C400A360010ECF54C025E060A840B8E493A301
:1017D400FAE493A3F8E493A3C8C582C8CAC583CA2C
:1017E400F0A3C8C582C8CAC583CADFE9DEE780BEE4
:0114FD0000EE
:10131C00BB010689828A83E0225002E722BBFE02CF
:09132C00E32289828A83E4932202
:00000001FF
