:1019000012010002000000400516408100000102A3
:1019100000010A06000200000040010009022E003A
:1019200001010080320904000004FF0000000705E7
:1019300002020002000705040200020007058602F9
:101940000002000705880200020009022E000101C2
:101950000080320904000004FF00000007050202B5
:101960004000000705040240000007058602400011
:101970000007058802400000040309040C0341002D
:101980004300430045005300260355005300420026
:101990002D00410049004F00310036002D0031007C
:1019A00036004100000000000000000000000000C0
:100E440060803800013F0101010101070003020233
:100E540002020200F5F7F7F7F7F7F7F700000000D2
:100E64000000003F013F01010101010702050000EC
:100E740000000000F6F7F7F7F7F7F7F700000000B7
:100E84000000003F011301210139010700010001A5
:100E9400000B0200F7F7F3F7F5F7F7F7003600F069
:100EA4000012003F010138010101010702020D0097
:100EB40000000000F2F7F7F7F7F7F7F700002D004E
:100EC4000000003F6024388700000000000000009C
:100ED400000000000000000000000000000000000E
:100EE400000000000000000000000000473880E01F
:100EF4008000F7AA4E00608038AB013F0101010178
:100F040001070003020202020200F5F7F7F7F7F700
:100F1400F7F7000000000000003F013F010101015C
:100F240001070205000000000000F6F7F7F7F7F7E5
:100F3400F7F7000000000000003F01130121013910
:100F4400010700010001000B0200F7F7F3F7F5F7C2
:100F5400F7F7003600F0002D003F010138010101D0
:100F6400010702020D0000000000F2F7F7F7F7F79F
:100F7400F7F700002D000000003F60243932000024
:100F8400000000000000000000000000000000005D
:100F9400000000000000000000000000000000004D
:0C0FA400000047392BE08000F7AA4E0047
:101D590090E67174FFF0F5B490E672E04480F043C8
:101D6900B6802290E60174AAF090E6F574FFF0229D
:101D7900F59B759DE4E4F59EFF2290E67BE090E6F5
:041D89007CF00F22B9
:10170900121D6C90392BE090E6F3F090392CE090A3
:10171900E6C3F090392DE090E6C1F090392EE090C3
:10172900E6C2F0903930E090E6C0F0903931E090AF
:10173900E6F4F075AF077438F59A74AB121D791297
:101749001D83BF80FA121D59000000E490E6C4F021
:1017590000000090E6C5F0903932E090E6C6F090BE
:101769003933E090E6C7F0903934E090E6C8F0905C
:101779003935E090E6C9F0903936E090E6CAF09044
:101789003937E090E6CBF0903938E090E6CCF0902C
:081799003939E090E6CDF022A1
:1019B000121D6C903880E090E6F3F0903881E09052
:1019C000E6C3F0903882E090E6C1F0903883E09072
:1019D000E6C2F0903885E090E6C0F0903886E0905E
:1019E000E6F4F075AF077438F59A7400121D791299
:1019F0001D83BF80FA121D59000000E490E6C4F078
:101A000000000090E6C5F0903887E090E6C6F090C0
:101A10003888E090E6C7F0903889E090E6C8F0900A
:101A2000388AE090E6C9F090388BE090E6CAF090F2
:101A3000388CE090E6CBF090388DE090E6CCF090DA
:081A4000388EE090E6CDF022A3
:0A00360000010202030304040505A3
:101E2700EC4EFEED4F2436F58274003EF583E493C5
:101E3700FF3395E0FEEF24A1FFEE34E68F82F583B2
:101E47002290E6BCE0547EFF7E00E0D394807C00C5
:011E57002268
:10114000E4F52DF52CF52BF52AC208C205C207C21D
:10115000061209BE7E197F008E0A8F0B7512197553
:10116000131275081975091C75101975114A751433
:1011700019751578EE54C07003021244752E00756F
:101180002F808E308F31C374AE9FFF74199ECF2491
:1011900002CF3400FEE48F298E28F527F526F525A9
:1011A000F524F523F522AF29AE28AD27AC26AB25D3
:1011B000AA24A923A822C312144F5036E5312525AD
:1011C000F582E5303524F583E0FFE52F2525F5820E
:1011D000E52E3524F583EFF0E5252401FFE43524E1
:1011E000FEE43523FDE435228F258E248D23F52260
:1011F00080B4852E0A852F0B74002480FF74193467
:10120000FFFEC3E5139FF513E5129EF512C3E50D2E
:101210009FF50DE50C9EF50CC3E50F9FF50FE50E50
:101220009EF50EC3E5099FF509E5089EF508C3E59F
:10123000119FF511E5109EF510C3E5159FF515E515
:10124000149EF514D2E843D82090E668E04409F0F3
:1012500090E65CE0443DF0D2AFD20912000390E684
:1012600080E054F7F0538EF8C2081214AB30060534
:10127000120CA7C2063008F212004050EDC208124C
:021280001EFD51
:1012820020051690E682E030E704E020E1EF90E6E8
:1012920082E030E604E020E0E4121E581218FE80DC
:0112A200C784
:100CA70090E6B9E012146C0D4B000D9F010DF9038E
:100CB7000CCA060D45080D3F090D330A0D390B0007
:100CC700000E3012209E4003020E3C90E6BBE0244B
:100CD700FE602214603324FD601114602224067024
:100CE70048E50A90E6B3F0E50B8037E51290E6B3E6
:100CF700F0E513802DE50C90E6B3F0E50D8023E5D4
:100D07000E90E6B3F0E50F801990E6BAE0FF121EE9
:100D170084AA06A9077B01EA494B600DEE90E6B36A
:100D2700F0EF90E6B4F0020E3C020E35122084027A
:100D37000E3C12207A020E3C121C39020E3C122085
:100D470070020E3C1220A04003020E3C90E6B8E071
:100D5700247F60151460192402703AA205E4332534
:100D6700E0FFA207E4334F8018E490E740F08016D5
:100D7700121E4840047D0180027D00121E27E054A8
:100D87000190E740F0E4A3F090E68AF090E68B74D8
:100D970002F0020E3C020E351220A24003020E3C66
:100DA70090E6B8E024FE601624026003020E3C9031
:100DB700E6BAE0B40105C205020E3C020E3590E624
:100DC700BAE0702C121E4840047D0180027D00129B
:100DD7001E27E054FEF090E6BCE054801313135432
:100DE7001FFFE0540F2F90E683F0E04420F080458A
:100DF700803C1220A4503E90E6B8E024FE601A24FE
:100E070002703290E6BAE0B40104D205802790E67A
:100E1700BAE0B40202801E8015121E4840047D010C
:100E270080027D00121E278008120056500790E6A8
:0D0E3700A0E04401F090E6A0E04480F0222D
:0300330002208E1A
:04208E0053D8EF3202
:10164A00362D31364100362D31364500322D3136B0
:10165A004100322D313600322D31364500362D36D5
:10166A00344D4100362D36344D4500322D36344D39
:10167A004100322D36344D00322D36344D45003678
:10168A002D33324100362D33324500322D3332416B
:10169A0000322D333200322D33324500362D3634A6
:1016AA004100362D36344500322D36344100322D74
:1016BA00363400322D36344500362D39364100365F
:1016CA002D39364500322D39364100322D39360052
:1016DA00322D39364500362D3132384100362D311A
:1016EA0032384500322D3132384100322D3132380C
:0F16FA0000322D31323845002D4F5448455200F3
:100FB00041395B0041395A0041395FFF41395CFEDC
:100FC0004139780041396200C101C103021C0000AF
:020FD000C1005E
:100FD300E490E68AF090E6BEE090E68BF0227BFF99
:100FE300E4F5377538012290E6BAE075F008A4FFFE
:100FF300A3E07C002FFFEC35F0FEE42FF582745064
:101003003EF583227BFF75370175380122E490E6B4
:101013008BF090E6BBE0FF90E6BAE075F0089050E5
:1010230003121460EF22E090E740F0E490E68AF0C8
:1010330090E68B227440253AF582E434E7F5832267
:10104300AD387AE779407F40AB07222534F534E5A4
:10105300373533F533C3E5369538F536E53595370A
:10106300F535227586005391EF90E65D225403FB1C
:1010730090E6BAE075F008A422904017E090E740AC
:10108300F0904018E090E741F022F5B18EB08DA0CA
:101093008D9090401BEDF00DED22E490E68AF090E8
:1010A300E6BEE022C3E53A9538E53995372290E666
:1010B300047480F02275F004EF121460E0FEEF2553
:1010C300E022E534253AF582E5333539F583227B91
:1010D300FFE4F537F53822F582E43440F58322F551
:1010E30082E43439F58322850D82850C83A374024F
:1010F300F022850F82850E83A37407F022F07A39DC
:101103007B79AD417F0E227801AF06EF0822F0EA2A
:1011130025E025E0222441F582E434E7F58322FE2D
:10112300E07C002400FFEC3E2290E6BCE0FF90E66A
:0D113300BBE022E0FD90E6BBE0C4131322F8
:042092004380022263
:042096005380FD2254
:04209A00638002223B
:10205E001210B10000007406F0000000E4F0000061
:02206E0000224E
:101C7800A20A9202904011E4F090401C04F0E4F0B3
:101C8800300A1290E67174FFF0F5B490E672748031
:101C9800F075B6FF22903974E0904011F0E490E6B8
:0B1CA80071F0F5B490E672F0F5B62282
:05004600D20A021C7843
:05004E00C20A021C784B
:101ED7007541039039797430F0E4A3F0A3740312C9
:101EE7001100121FFE9039797438F0E4A3F0A304AF
:061EF700121100021FFEA3
:101FC600AE057D03EF54014418903979F0A3EEF085
:0C1FD600A3EBF07A397B797F0E021FFE2E
:10158A00E490E671F090E672F075B3FF75B4FF75FA
:10159A00B5FF75B6FF90401004F0E4FEFD12110A83
:1015AA00800103D8FD12108D70F30EEE70EF90409B
:1015BA00107405F0E4FEFD12110A800103D8FD1231
:1015CA00108D70F30EEE70EFF5B3F5B5FEFDFC125B
:1015DA00110A800103D8FDF5B18DA090401C740159
:1015EA00F0AF90ABB0E4F0EFB50504EB6E60379066
:1015FA00395C7401F0EC540FFA25E025E02440121E
:10160A00103BED121111121118EE1211112442F5AC
:10161A0082E434E7F583EF1211112443F582E434AE
:10162A00E7F583EBF00C0DED70A50EEE70A1903985
:10163A005CE0B4FE02E4F012004E904010E4F022A6
:1017A1008B398A3A893BE4F53C1220358F3DE53D82
:1017B10025E02410901988F0E4F53CAF3DEF339516
:1017C100E0FEC3E53C9FEE6480F87480985027AB3F
:1017D10039AA3AA93B853C827583001213ABFDE51A
:1017E1003C75F002A42498F9741935F08982F583C7
:0717F100EDF0053C80C5226C
:101EB00090401374AAF0E064AA70197455F0E064BD
:101EC000557011744FF0E0B44F0A7449F0E0B44912
:071ED000037F00227F0122C5
:101AD400121EB0EF14601B0470591210457D017F73
:101AE400037E00121BA690E740E0541F90395FF07C
:101AF40080411210457D027FF67E1D121BA690E7E1
:101B040040E0F533A3E090395FF0E5333392E033FE
:101B140092E0F5331210457D017F037E00121BA66F
:101B240090E740E0653360037F042290E740E0548F
:091B34001FFF2290395FE0FF223F
:10204A0090401AEDF0903978E537F0903962E5382A
:04205A00F00217A1D8
:1009BE00E4F53290E600E054E74410F090E601745E
:1009CE0080F090E67AE04401F01217F890E678E0B5
:1009DE005410FFC4540F4450903959F0E013E433CF
:1009EE00903961F090E61074A0F090E611F00000DE
:1009FE000090E612F0000000E490E613F000000014
:100A0E0090E61474E0F0000000E490E615F0121089
:100A1E00B10000007482F00000007486F000000047
:100A2E00E4F000000090E618F00000007411F000F1
:100A3E00000090E61A7409F0000000121AD49039E2
:100A4E005FEFF0E0FF444090190AF0EF541F1214CC
:100A5E006C0ABD000ACD010AD9020AEA030AF6049D
:100A6E000B06050B12060B1E070B2A080B36090B7D
:100A7E00440A0B520B0B600C0B6E0D0B7C0E0B8A8B
:100A8E000F0B98100BA6110BB4120BC2130BD01434
:100A9E000BDE150BEB160BF8170C05180C12190CB8
:100AAE001F1A0C2C1B0C391C0C461D00000C567BFF
:100ABE00FF7A16794A753701E4F538FD020C517A42
:100ACE001679501210D27D01020C517BFF7A1679E5
:100ADE0056753701E4F5387D02020C517A16795CB1
:100AEE001210D27D03020C517BFF7A167961E4F568
:100AFE0037F5387D04020C517A1679671210077D8E
:100B0E0008020C517A16796E120FE17D09020C5112
:100B1E007A1679751210077D0A020C517A16797CB5
:100B2E00120FE17D0B020C517BFF7A167982120FA8
:100B3E00E37D0C020C517BFF7A1679891210097D28
:100B4E0010020C517BFF7A16798F120FE37D110282
:100B5E000C517BFF7A1679951210097D12020C51F9
:100B6E007BFF7A16799B120FE37D13020C517BFFEC
:040B7E007A1679A0CA
:100B8200120FE37D14020C517BFF7A1679A6121024
:100B9200097D10020C517BFF7A1679AC120FE37DAE
:100BA20011020C517BFF7A1679B21210097D1202E2
:100BB2000C517BFF7A1679B8120FE37D13020C51A8
:100BC2007BFF7A1679BD120FE37D14020C517BFF75
:100BD2007A1679C31210097D10020C517BFF7A1626
:100BE20079C9120FE37D1180667BFF7A1679CF12E5
:100BF20010097D1280597BFF7A1679D5120FE37D99
:100C020013804C7BFF7A1679DA120FE37D14803F52
:100C12007BFF7A1679E01210097D1080327BFF7A11
:100C22001679E7120FE37D1180257BFF7A1679EEA4
:100C32001210097D1280187BFF7A1679F5120FE3E4
:100C42007D13800B7BFF7A1679FB120FE37D141262
:100C5200204A80097BFF7A1779021217A1E4FF74F8
:100C6200632FF582E43439F583E4F02F1210DAE4CD
:100C7200F00FBF15EA90401DE4F012004612158AEB
:100C8200C20912201A90E6C37480F090E6C214F0F2
:100C920000000090E6E27402F043B202D205121E96
:050CA200D7751E0122C0
:1014AB00E58070047F0180027F00EF90E68030E0E2
:1014BB0006E04408F08004E054F7F0E51E700330BA
:1014CB000035E51D451C7006751C08751DFFE51DD7
:1014DB00151D7002151CE51D451C7004F51E800FB3
:1014EB00AE1CAF1D7C027D3F1213FAEF20E00512FC
:1014FB002096800312209290401FE030E05912207A
:10150B009AE4F090E6F574FFF0C2031210B1E49088
:10151B00E6CEF000000090E6CFF000000090E6D0A1
:10152B00F000000090E6D1F000000000000090E613
:10153B00047482F00000007486F0000000E4F000F8
:10154B00000090E6917480F0000000F0000000F0C5
:10155B00000000F0000000E5BB30E7220000009027
:10156B00E6AFE090E6B0121122FED3EF9400EE94BA
:0F157B0000400BEE9402500690E6487406F022F2
:02004000D322C9
:0218FE00D322F3
:02209E00D3224B
:0220A000D32249
:0220A200D32247
:0220A400D32245
:101C390090E680E030E71800000090E6247402F096
:101C4900000000E490E625F0000000D201801600B3
:101C59000000E490E624F000000090E6257440F0CE
:0F1C6900000000C20190E6BAE0903960F0D3228B
:0A20700090396012102904F0D32209
:0A207A0090E6BAE0903958F0D32246
:0A20840090395812102904F0D322FD
:101B3D00E4FF9040117404F0A374F0F0A37401F06D
:101B4D00E490E6CEF000000090E6CFF000000090AB
:101B5D00E6D0F000000090E6D17420F00000007592
:101B6D00BB06000000904019E4F01FEF600AE5BBD2
:101B7D0020E70500000080F2E4FF90F8021210B893
:101B8D00244012103BEEF090F8031210B812111809
:091B9D00EEF00FBF10E402205E1F
:10005600E4F53BF53C751E0190E6B9E012146C031D
:100066007B10038711039E1202EB200341210348F4
:1000760022034E2303CB3503C53800D539060B9131
:1000860007B7A207B7A307AAA90789AC0917B30838
:10009600FBB40601B608DBB70622BA0641BB01B3BC
:1000A600BC03E5BE05A6BF00C6C3012EC503D1D05D
:1000B60003DAD104FCD200F4D408FBFB000009BA31
:1000C60012112CFD90E6BAE0FB121FC60206019043
:1000D600E6B8E020E74190E6BCE0600A146003025F
:1000E60009BCD2098002C209121FA80209BC90E607
:1000F600B8E020E722120FD390E6A0E020E1F990C5
:10010600E6BCE090E740E0FF90E6BCE0FEE42E129D
:1001160010DAEFF00209BC90E6BCE0FFE42F121003
:10012600DAE090E74002039690E6B8E030E7030293
:1001360009B090E6BEE0D39400400A120FD390E6D1
:10014600A0E020E1F9D209121FA8E5BB20E70302CF
:1001560009BCE5AC30E0030209BCD203E490E6CE6C
:10016600F000000090E6CFF000000090E6D0F0002E
:100176000000A2033390E6D1F000000000000090DA
:10018600E6BAE0905001F090E6BCE0905002F090A4
:10019600E6BDE0905002F075BB0600000090401FDF
:1001A600E4F090E6BBE0905001F00209BC90E6B89E
:1001B600E030E70302027890E6BEE0D39400400AFE
:1001C600120FD390E6A0E020E1F990E6BEE0C394DA
:1001D60004402090E740E030E20A90E743E01392C3
:1001E60009121FA890E740E030E10890E742E0904E
:1001F600401FF090E6BEE0600A90E740E020E00392
:100206000209BCE5AC5401FFE5BB54804F90E740C2
:10021600F0E020E7030209BCE030E0030209BC126B
:10022600112C4FFF90E6BDE04FFF90E6BAE04F700D
:1002360003D38001C3920390E6BBE090E6CEF000C4
:10024600000090E6BAE090E6CFF000000090E6BD30
:10025600E090E6D0F0000000A203E433FF90E6BC95
:10026600E04F90E6D1F000000075BB0600000002EA
:0502760009BC90E6B098
:10027B00E090E740F090E6AFE090E741F090E69930
:10028B00E090E742F090E698E090E743F090E614B8
:10029B00E090E744F090E61AE090E745F090E63501
:1002AB00E090E746F090E634E090E747F0A3E5AC4A
:1002BB00F090E6A9E090E749F090E654E090E74A29
:1002CB00F090E655E090E74BF03004047F0180029C
:1002DB007F0090E760EFF012109D90E68B02077E97
:1002EB0090E6BEE0B4020F90E6BBE0C4333354C0DB
:1002FB00121019F0802890E6BEE06403702090E69F
:10030B00BBE0FF7401A807088002C333D8FC25E0CB
:10031B0044C0121019F0120FEAE090E742F0120FEE
:10032B00EAE090E740F0121073FFA3E0120FF7E042
:10033B0090E74102061A121010F00209BCE490E695
:10034B008B8003121010F090E6BC12113654037A16
:10035B00001210702BFFEA120FFAEDF090E6BD12AF
:10036B0011361210702BFFEA120FFAEDF00209BCD6
:10037B00120FD390E6A0E020E1F9802B904015E01E
:10038B0090E740F0904016E090E741F0E490E68A69
:10039B0002061A120FD390E6A0E020E1F990E74293
:1003AB00E05403904014F090E740E0904015F0903B
:1003BB00E741E0904016F00209BC90E6F574FFF0BF
:1003CB0012205E0209BC0000001210B10209BC0031
:1003DB000000E490E604F00209BC120FD390E6A0F3
:1003EB00E020E1F990E740E0903963F0904000F0B5
:1003FB0090E741E0903964F0904001F090E742E0E3
:10040B00903965F0904002F090E743E0903966F048
:10041B00904003F090E744E0903967F0904004F08F
:10042B0090E745E0903968F0904005F090E746E0A2
:10043B00903969F0904006F090E747E090396AF008
:10044B00904007F090E748E090396BF0904008F04F
:10045B0090E749E090396CF0904009F090E74AE062
:10046B0090396DF090400AF090E74BE090396EF0C8
:10047B0090400BF090E74CE090396FF090400CF00F
:10048B0090E74DE0903970F090400DF090E74EE022
:10049B00903971F090400EF090E74FE0903972F088
:1004AB0090400FF090E750E0903973F0904010F0CF
:1004BB0090E751E0903974F0904011F090E752E0E2
:0B04CB00903975F0904012F090E7535C
:1004D600E0903976F0904013F090395FE0541FD3E6
:1004E600940450030209BC90E754E0903977F090E9
:1004F600401DF00209BC903963E090E740F0903966
:1005060064E090E741F0903965E090E742F0903979
:1005160066E090E743F0903967E090E744F0903961
:1005260068E090E745F0903969E090E746F0903949
:100536006AE090E747F090396BE090E748F0903931
:100546006CE090E749F090396DE090E74AF0903919
:100556006EE090E74BF090396FE090E74CF0903901
:1005660070E090E74DF0903971E090E74EF09039E9
:1005760072E090E74FF0903973E090E750F09039D1
:1005860074E090E751F0903975E090E752F09039B9
:1005960076E090E753F0903977E090E75402061A38
:1005A60090E6BEE07007904019F00209B490E6BEEE
:1005B600E064047035904019F0053EE53E70020592
:1005C6003D12107C904019E4F0053EE53E700205B0
:1005D6003D904017E090E742F0904018E090E743E6
:1005E600F090E68B7404F00209BC12107C90E68B46
:1005F6007402F0904019E4F00209BC121B3D90E62B
:10060600BEE00209B490395CE090E740F090E6BFA6
:10061600E090E68AF090E6BEE00209B4903978E010
:10062600B4010890E74074BBF0800890395FE09011
:10063600E740F012102E04F00209BC903978E0640D
:1006460001600302077212004690E74074BBF09007
:10065600E6BBE0C313FFE5B154802FF5B1E090E6A9
:10066600C4F090E6BAE090E6C5F090E6BDE090E60C
:10067600BC12112290395DF0A3EFF090395DE0FED7
:10068600A3E0FF4E700302076DE5BB30E7EDE5AB77
:1006960020E1E830014ED3EF9400EE9402401C9026
:1006A600E6D07402F0000000E490E6D1F00000000D
:1006B6009039567402F0A3E4F0807990395DE0FC3D
:1006C600A3E0FDEC90E6D0F0000000ED90E6D1F05E
:1006D60000000090395DE0FFA3E0903956CFF0A30B
:1006E600EFF0805090395DE0FCA3E0FDD39440EC40
:1006F6009400E4401B90E6D0F000000090E6D17430
:1007060040F0000000903956E4F0A37440F08024D5
:1007160090E6CFF090395DE0FAA3E0FBEA90E6D0F0
:0F072600F0000000EB90E6D1F000000090395693
:10073500ECF0A3EDF0E4F5BB000000E5BB30E7FB12
:10074500000000903956E0FEA3E0FFC390395EE05B
:100755009FF090395DE09EF0E5B1547F04FFE5B16F
:1007650054802FF5B102068112004E800890395F42
:10077500E090E740F012102E04F090E6A0E04480EF
:10078500F00209BC90E6B5E054FEF090E6BFE01239
:100795000FD490E6BBE090E6B3F090E6BAE090E6C1
:1007A500B4F00209BC9039617401F0903959E04404
:1007B50001F090E6BAE0753300F534A3E0FEEE42B1
:1007C5003390E6BEE0753500F536A3E0FEEE423522
:1007D50090E6B8E064C0600302087CE536453570F4
:1007E500030209BC90E6A0E020E1F9C3E536944098
:1007F500E5359400500885353785363880067537D8
:100805000075384090E6B9E064A3703B90E6BCE023
:10081500B40116A3E0701290E6BBE030E70B90E759
:10082500407402F0A314F08042E4F539F53A121051
:10083500A750381210C5E0FF121037EFF0053AE562
:100845003A70EB053980E7E4F539F53A1210A7500F
:100855001012103774CDF0053AE53A70EF0539807E
:10086500EB121043AF34AE33121BA612102EE5382F
:10087500F012104E0207E090E6B8E0644060030213
:1008850009BCE536453570030209BC12102EF090FF
:10089500E6A0E020E1F990E68BE0753700F53890A9
:1008A500E6B9E0B4A31EE4F539F53A1210A7501ED7
:1008B500121037E0FF1210C5EFF0053AE53A70EB7C
:1008C500053980E7121043AF34AE33121D24E538E5
:1008D50012104E02088790E6B8E030E70612109D28
:1008E5000209B4120FD890395BE0448090401EF0A5
:1008F500121ED70209BC90E6B8E020E70F120FD30D
:1009050090E6A0E020E1030209BC80F412109D02EC
:1009150009B490E6BEE0702890E6BCE0F53E90E6AE
:04092500BBE0F53FFF
:1009290090E6BAE0F540120FD890E6A0E04480F0D6
:10093900AB40AD3FAF3E121FC60209BC90E6BEE018
:1009490064117063120FD490E6A0E020E1F9E4F598
:1009590039F53A90E740E0F53DE53D6056C3E53AA3
:100969009402E5399400504BE53D30E02AAF3AC096
:1009790007E53A25E0FFE53933FE74422FF5827425
:10098900E73EF583E0FD74412FF58274E73EF58378
:10099900E0FBD007121FC6053AE53A70020539E5B2
:1009A9003DC313F53D80B290E6BEE090E68BF08042
:0509B90002D322C3225D
:101F2200C0E0C083C082C085C084C086758600D2EE
:101F3200061210697401F0D086D084D085D082D088
:041F420083D0E03236
:101F6A00C0E0C083C082C085C084C0861210667477
:0F1F7A0004F0D086D084D085D082D083D0E032DE
:101F8900C0E0C083C082C085C084C0861210667458
:0F1F990002F0D086D084D085D082D083D0E032C1
:101D8D00C0E0C083C082C085C084C08675860085D2
:101D9D00100C85110D1210EA85080E85090F121011
:101DAD00F51210697410F0D086D084D085D082D011
:041DBD0083D0E032BD
:101F4600C0E0C083C082C085C084C086758600D2CA
:101F5600081210697408F0D086D084D085D082D05B
:041F660083D0E03212
:101CB300C0E0C083C082C085C084C08675860090A2
:101CC300E680E030E71285080C85090D1210EA85DD
:101CD300100E85110F1210F51210697420F0D086C2
:0B1CE300D084D085D082D083D0E032C6
:01003200329B
:01004200328B
:0120A6003207
:0120A7003206
:0120A8003205
:0120A9003204
:0120AA003203
:0120AB003202
:0120AC003201
:0120AD003200
:0120AE0032FF
:0120AF0032FE
:0120B00032FD
:0120B10032FC
:0120B20032FB
:0120B30032FA
:0120B40032F9
:0120B50032F8
:0120B60032F7
:0120B70032F6
:0120B80032F5
:0120B90032F4
:0120BA0032F3
:0120BB0032F2
:0120BC0032F1
:0120BD0032F0
:0120BE0032EF
:0120BF0032EE
:0120C00032ED
:0120C10032EC
:0120C20032EB
:0120C30032EA
:0120C40032E9
:0120C50032E8
:0120C60032E7
:0120C70032E6
:101BF600AB07AA06AC05E4FD903961E0600B7E00F8
:101C06000DEE24791210E2EAF0AE050D74792E126B
:101C160010E2EBF0AF050D74792F1210E2ECF090A4
:101C26003959E0FF7A397B79121FFE903959E0FF66
:031C3600021CEE9F
:101D24008E418F428D438A448B45E4F546E546C394
:101D3400954350200542E542AE417002054114FF2F
:101D4400E5452546F582E43544F583E0FD121BF6AE
:051D5400054680D922C4
:101BA6008E418F428D438A448B45E4FDF54690393C
:101BB60061E06012E541FF7E000DEE2479F582E4D6
:101BC6003439F583EFF0AE050D74792EF582E434E1
:101BD60039F583E542F0903959E0FF7A397B79127D
:101BE6001FFE903959E0FFAB45AA44AD43021FE200
:10201A00A20992043004051219B0800990401F7475
:0B202A0002F012170912004E02205EA7
:101FA800A209920430040890E45D7412F0800C9049
:0E1FB800401F7402F090E45D742DF002205E74
:101E580090E682E030E004E020E60B90E682E03095
:101E6800E119E030E71590E680E04401F07F147E48
:0C1E7800001218B890E680E054FEF02242
:101EFD0090E682E044C0F090E681F0438701000057
:041F0D0000000022AE
:1000030030090990E680E0440AF0800790E680E03A
:100013004408F07FDC7E051218B890E65D74FFF0AB
:0F00230090E65FF05391EF90E680E054F7F02203
:0817F800E4F51BD2E9D2AF2297
:101CEE0090E678E020E6F9C2E990E678E04480F0EC
:101CFE00EF25E090E679F090E678E030E0F990E6B6
:101D0E0078E04440F090E678E020E6F990E678E05E
:061D1E0030E1D6D2E922FB
:101DF500A90790E678E020E6F9E51B702390E678E0
:101E0500E04480F0E925E090E679F08D16AF03A96E
:101E1500077517018A188919E4F51A751B01D3226C
:021E2500C322D6
:101DC100A90790E678E020E6F9E51B702590E67812
:101DD100E04480F0E925E0440190E679F08D16AF0A
:101DE10003A9077517018A188919E4F51A751B03E8
:041DF100D322C32214
:03004B000212A3FB
:1012A300C0E0C083C082C085C084C086758600C08C
:1012B300D075D000C000C001C002C003C006C00783
:1012C30090E678E030E206751B0602138D90E6780F
:1012D300E020E10CE51B64026006751B0702138D19
:1012E300E51B24FE605F14603624FE700302137E48
:1012F30024FC700302138A2408600302138DAB17C6
:10130300AA18A919AF1A051A8F827583001213AB95
:1013130090E679F0E51A65167070751B05806B9081
:10132300E679E0AB17AA18A919AE1A8E8275830065
:101333001213D8751B02E5166401704E90E678E02F
:101343004420F08045E51624FEB51A0790E678E0C0
:101353004420F0E51614B51A0A90E678E04440F00C
:10136300751B0090E679E0AB17AA18A919AE1A8E7F
:10137300827583001213D8051A800F90E678E04433
:1013830040F0751B008003751B005391DFD007D01D
:1013930006D003D002D001D000D0D0D086D084D0E4
:0813A30085D082D083D0E03236
:021E8400A907AC
:101E8600AE14AF158F828E83A3E064037017AD0185
:101E960019ED7001228F828E83E07C002FFDEC3ECF
:091EA600FEAF0580DF7E007F0025
:011EAF002210
:101FE200121DC1E51B24FA600E146006240770F36B
:0C1FF200D322E4F51BD322E4F51BD3221C
:101FFE00121DF5E51B24FA600E146006240770F31B
:0C200E00D322E4F51BD322E4F51BD322FF
:1018B8008E328F3390E600E054187012E53324011D
:1018C800FFE43532C313F532EF13F533801590E694
:1018D80000E05418FFBF100BE53325E0F533E5327F
:1018E80033F532E5331533AE32700215324E6005EA
:0618F800121F1180EE2218
:101F11007400F58690FDA57C05A3E582458370F9E3
:011F2100229D
:03004300021800A0
:0300530002180090
:10180000021F2200021F8900021F6A00021F4600F9
:10181000021D8D00021CB3000200320002004200D3
:101820000220A6000220A7000220A8000220A90092
:101830000220AA000220AB000220AC000220AD0072
:101840000220AE00020042000220AF000220B000E1
:101850000220B1000220B2000220B3000220B40036
:101860000220B500020042000200420002004200D5
:101870000220B6000220B7000220B8000220B90002
:101880000220BA000220BB000220BC000220BD00E2
:101890000220BE000220BF000220C0000220C100C2
:1018A0000220C2000220C3000220C4000220C500A2
:0818B0000220C6000220C7005F
:03000000021A4899
:0C1A4800787FE4F6D8FD758146021A8F05
:1013AB00BB010CE58229F582E5833AF583E02250F7
:1013BB0006E92582F8E622BBFE06E92582F8E22241
:0D13CB00E58229F582E5833AF583E493225B
:1013D800F8BB010DE58229F582E5833AF583E8F04B
:1013E800225006E92582C8F622BBFE05E92582C8F7
:0213F800F222DF
:1013FA00BC000BBE0029EF8DF084FFADF022E4CCD7
:10140A00F875F008EF2FFFEE33FEEC33FCEE9DEC9F
:10141A00984005FCEE9DFE0FD5F0E9E4CEFD22EDE5
:10142A00F8F5F0EE8420D21CFEADF075F008EF2F2F
:10143A00FFED33FD4007985006D5F0F222C398FD20
:05144A000FD5F0EA22BD
:10144F00EB9FF5F0EA9E42F0E99D42F0E89C45F0F3
:01145F00226A
:0C146000A42582F582E5F03583F5832297
:10146C00D083D082F8E4937012740193700DA3A30F
:10147C0093F8740193F5828883E473740293686023
:06148C00EFA3A3A380DF23
:10203500E4FFFE121492600C0FEF70010E09E970B7
:05204500F20A80EF2209
:101A5400021140E493A3F8E493A34003F68001F257
:101A640008DFF48029E493A3F85407240CC8C33393
:101A7400C4540F4420C8834004F456800146F6DF62
:101A8400E4800B0102040810204080900E44E47EA0
:101A9400019360BCA3FF543F30E509541FFEE49357
:101AA400A360010ECF54C025E060A840B8E493A31E
:101AB400FAE493A3F8E493A3C8C582C8CAC583CA49
:101AC400F0A3C8C582C8CAC583CADFE9DEE780BE01
:010FD200001E
:10149200BB010689828A83E0225002E722BBFE0258
:0914A200E32289828A83E493228B
:00000001FF
