:100AB8001201000200000040051601800100010239
:100AC80000010A060002000000400100090220009F
:100AD800010100A0320904000002FF000000070520
:100AE8000202000200070586020002000902200037
:100AF800010100A0320904000002FF000000070500
:100B080001024000000705810240000004030904B7
:100B180026034100430043004500530020004900DC
:100B28002F004F002000500072006F006400750015
:100B380063007400730016035500530042002D0033
:0E0B4800440049004F002D0033003200000031
:03004300020A00AE
:03005300020A009E
:100A0000020EB600020F3B00020F2500020F0D0080
:100A1000020CFA00020D3100020032000200420016
:100A2000020052000209FF00020FA900020FAA00F3
:100A3000020FAB00020FAC00020FAD00020FAE00C0
:100A4000020FAF0002004200020FB000020FB1001F
:100A5000020FB200020FB300020FB400020FB50084
:100A6000020FB600020042000200420002004200F3
:100A7000020FB700020FB800020FB900020FBA0050
:100A8000020FBB00020FBC00020FBD00020FBE0030
:100A9000020FBF00020FC000020FC100020FC20010
:100AA000020FC300020FC400020FC500020FC600F0
:080AB000020FC700020FC8008D
:0A0F75000001020203030404050555
:10096C00E4F50BF50AF509F508C203C200C202C290
:10097C000112003675230A7524B8752B0A752CCA1A
:10098C0075210A7522D475290A752AF4752D0B75F3
:10099C002E14D2E843D82090E668E04409F090E6A3
:1009AC005CE0443DF0D2AFD20412000390E680E04C
:1009BC0054F7F0538EF8C203300105120576C201CC
:1009CC003003291209FD5024C203120E9120001687
:1009DC0090E682E030E704E020E1EF90E682E03040
:1009EC00E604E020E0E4120E39120F9F120BE280B5
:0109FC00C733
:1005760090E6B9E070030206271470030206A4246D
:10058600FE700302072724FB700302062114700382
:1005960002061B1460731460762405600302078646
:1005A600120FA1400302079290E6BBE024FE6022F0
:1005B60014603324FD601114602224067048E5237C
:1005C60090E6B3F0E5248037E52B90E6B3F0E52C12
:1005D600802DE52590E6B3F0E5268023E52790E615
:1005E600B3F0E528801990E6BAE0FF120E65AA0678
:1005F600A9077B01EA494B600DEE90E6B3F0EF9058
:10060600E6B4F002079202078B120F6302079212FA
:100616000F87020792120F7F020792120F510207ED
:1006260092120FA3400302079290E6B8E0247F607F
:100636001514601924027063A200E43325E0FFA2BA
:1006460002E4334F8041E490E740F0803F90E6BCFF
:10065600E0547EFF7E00E0D394807C0040047D0160
:1006660080027D00EC4EFEED4F2475F582740F3E40
:10067600F583E493FF3395E0FEEF24A1FFEE34E625
:100686008F82F583E0540190E740F0E4A3F090E612
:100696008AF090E68B7402F002079202078B120F23
:1006A600A5400302079290E6B8E024FE60162402F5
:1006B600600302079290E6BAE0B40105C2000207A1
:1006C6009202078B90E6BAE0705590E6BCE0547E45
:1006D600FF7E00E0D394807C0040047D0180027D93
:1006E60000EC4EFEED4F2475F582740F3EF583E463
:1006F60093FF3395E0FEEF24A1FFEE34E68F82F5FB
:1007060083E054FEF090E6BCE05480131313541FAC
:10071600FFE0540F2F90E683F0E04420F0806D80D8
:1007260064120FA7506690E6B8E024FE6019240212
:10073600705A90E6BAE0B40104D200804F90E6BA4F
:10074600E064026047803E90E6BCE0547EFF7E0097
:10075600E0D394807C0040047D0180027D00EC4E55
:10076600FEED4F2475F582740F3EF583E493FF3357
:1007760095E0FEEF24A1FFEE34E68F82F583800834
:10078600120056500790E6A0E04401F090E6A0E083
:030796004480F0AC
:01079900223D
:0300330002004E7A
:04004E0053D8EF3262
:04004600022F000085
:0C003600D200120F8FE4F5B175B63F2226
:040F970043B1202220
:040F9B0053B1DF224D
:100BE200E5336035E530452F7006752F2F7530FFE0
:100BF200E53015307002152FE530452F7004F533BE
:100C0200800FAE2FAF307C0B7DFF1208F1EF20E09A
:100C120005120F9B8003120F97E5B190E68020E743
:0A0C220005E04408F022E054F7F06A
:010C2C0022A5
:0209FD00D32203
:020F9F00D3225B
:020FA100D32259
:080F7F0090E6BAE0F534D3223C
:100F510090E740E534F0E490E68AF090E68B04F007
:020F6100D32299
:080F870090E6BAE0F531D32237
:100F630090E740E531F0E490E68AF090E68B04F0F8
:020F7300D32287
:020FA300D32257
:020FA500D32255
:020FA700D32253
:1000560075330190E678E05410C4540F4450F532DD
:1000660013E433F53590E6B9E0120946024207017A
:1000760057100169110187120260200324210345EC
:1000860022034B2305742805742C05742D05742E44
:1000960001FF3001FF3103F0A203F0A303EAA90335
:1000A600C0AC0574F000B8F100CEF20574F30000A0
:1000B600057290E6BAE0F580A3E0F590A3E0F5A01E
:1000C600A3E0F5B0E402031D90E6BEE0750E00F570
:1000D6000FA3E0FEEE420EE50F450E700490E68B90
:1000E600F0E50F450E700302057490E6A0E020E1EE
:1000F600F9C3E50F9440E50E94005008850E10856F
:100106000F118006751000751140E4F512F513C342
:10011600E5139511E5129510501DAF13C3E50F9F1A
:10012600FE74402FF582E434E7F583EEF00513E51F
:100136001370DC051280D8E490E68AF090E68BE531
:1001460011F0C3E50F9511F50FE50E9510F50E802C
:100156009090E6BEE090E68BF090E6A0E020E1F914
:100166000201EA90E740E580F0A3E590F0A3E5A060
:10017600F0A3E5B0F0E490E68AF090E6BEE0020374
:100186001DE490E68AF090E6BEE090E68BF090E6FD
:10019600A0E020E1F990E744E030E0047FFF800230
:1001A6007F008FB290E744E030E1047FFF80027F5A
:1001B600008FB390E744E030E2047FFF80027F00C7
:1001C6008FB490E744E030E3047FFF80027F008F26
:1001D600B590E6BAE05401C454F0FF90E744E05409
:1001E6000F4FF5B190E740E0F580A3E0F590A3E06E
:1001F600F5A0A3E0F5B002057490E740E580F0A312
:10020600E590F0A3E5A0F0A3E5B0F0E5B130E40495
:100216007F0180027F0090E6BAEFF0E5B1540F90BF
:10022600E744F0A37469F0A304F0A304F0A304F078
:10023600E490E68AF090E6BEE002031D90E6BAE09E
:10024600FF120E65AA06A9077B01EA494B6009EE73
:1002560090E6B3F0EF0203E3D32290E6BEE0B402E9
:100266002090E6BBE0C4333354C0FF90E6BAE07595
:10027600F008A42403F582E5F03480F583EFF080DE
:100286005290E6BEE06403704A90E6BBE0FF74015C
:10029600A807088002C333D8FC25E044C0FF90E6D7
:1002A600BAE075F008A42403F582E5F03480F583FE
:1002B600EFF090E6BAE075F008A4FFA3E07C002F0B
:1002C600FFEC35F0FEE42FF58274803EF583E09076
:1002D600E742F090E6BAE075F008A4FFA3E07C00E0
:1002E6002FFFEC35F0FEE42FF58274803EF583E0B7
:1002F60090E740F090E6BAE075F008A4FFA3E02F7F
:10030600FFEC35F0FEE42FF58274803EF583E09035
:10031600E741F090E6BEE090E68BF0020574E490CB
:10032600E68BF090E6BBE0FF90E6BAE075F008A435
:100336002403F582E5F03480F583EFF0020574E4DA
:1003460090E68B801DE490E68BF090E6BBE0FF9094
:10035600E6BAE075F008A42403F582E5F03480F5EA
:1003660083EFF090E6BCE0FD90E6BBE0C4131354C7
:10037600037A005403FB90E6BAE075F008A42BFF5D
:10038600EA35F0FEE42FF58274803EF583EDF090B9
:10039600E6BDE0FD90E6BBE0C413135403FB90E614
:1003A600BAE075F008A42BFFEA35F0FEE42FF582DB
:1003B60074803EF583EDF002057490E6B5E054FED8
:1003C600F090E6BFE090E68AF090E6BEE090E68B1D
:1003D600F090E6BBE090E6B3F090E6BAE090E6B4C3
:1003E600F002057475350143320190E6BAE0750CEA
:1003F60000F50DA3E0FEEE420C90E6BEE0750E00A1
:10040600F50FA3E0FEEE420E90E6B8E064C060038E
:100416000204DCE50F450E700302057490E6A0E0C9
:1004260020E1F9C3E50F9440E50E94005008850ECF
:1004360010850F11800675100075114090E6B9E021
:10044600B4A335E4F512F513C3E5139511E512953A
:1004560010505EE50D2513F582E50C3512F583E0A7
:10046600FF74402513F582E434E7F583EFF00513B6
:10047600E51370D4051280D0E4F512F513C3E51325
:100486009511E5129510501874402513F582E43441
:10049600E7F58374CDF00513E51370E1051280DDF1
:1004A600AD117AE779407F40AB07AF0DAE0C120C69
:1004B6002DE490E68AF090E68BE511F0250DF50D1A
:1004C600E510350CF50CC3E50F9511F50FE50E9506
:1004D60010F50E02041990E6B8E0644060030205C8
:1004E60074E50F450E7003020574E490E68AF090F9
:1004F600E68BF090E6A0E020E1F990E68BE075103F
:1005060000F51190E6B9E0B4A335E4F512F513C38E
:10051600E5139511E5129510503674402513F582B2
:10052600E434E7F583E0FFE50D2513F582E50C35A8
:1005360012F583EFF00513E51370D4051280D0ADE4
:10054600117AE779407F40AB07AF0DAE0C120D9ED6
:10055600E511250DF50DE510350CF50CC3E50F95E8
:0F05660011F50FE50E9510F50E0204E7D322C331
:010575002263
:100EB600C0E0C083C08290E6B5E04401F0D20153A1
:0F0EC60091EF90E65D7401F0D082D083D0E032DE
:100F2500C0E0C083C0825391EF90E65D7404F0D0B9
:060F350082D083D0E032FF
:100F3B00C0E0C083C0825391EF90E65D7402F0D0A5
:060F4B0082D083D0E032E9
:100CFA00C0E0C083C08290E680E030E70E852125FF
:100D0A00852226852927852A28800C852925852A52
:100D1A00268521278522285391EF90E65D7410F0ED
:070D2A00D082D083D0E0323B
:100F0D00C0E0C083C082D2035391EF90E65D7408B8
:080F1D00F0D082D083D0E03255
:100D3100C0E0C083C08290E680E030E70E852125C7
:100D4100852226852927852A28800C852925852A1B
:100D5100268521278522285391EF90E65D7420F0A6
:070D6100D082D083D0E03204
:01003200329B
:01004200328B
:01005200327B
:0109FF0032C5
:010FA9003215
:010FAA003214
:010FAB003213
:010FAC003212
:010FAD003211
:010FAE003210
:010FAF00320F
:010FB000320E
:010FB100320D
:010FB200320C
:010FB300320B
:010FB400320A
:010FB5003209
:010FB6003208
:010FB7003207
:010FB8003206
:010FB9003205
:010FBA003204
:010FBB003203
:010FBC003202
:010FBD003201
:010FBE003200
:010FBF0032FF
:010FC00032FE
:010FC10032FD
:010FC20032FC
:010FC30032FB
:010FC40032FA
:010FC50032F9
:010FC60032F8
:010FC70032F7
:010FC80032F6
:040CBB00AA06AC05D4
:100CBF00E4FD7E000DEE2400F582E43400F583EAB6
:100CCF00F00E0D74002EF582E43400F583EFF00D75
:100CDF0074002402F582E43400F583ECF07A007B93
:0B0CEF0000AF32120EF1AF32020D68B0
:0A0D9E008E148F158D168A178B181E
:100DA800E4F519E519C3951650200515E515AE1497
:100DB8007002051414FFE5182519F582E43517F5B6
:0A0DC80083E0FD120CBB051980D971
:010DD20022FE
:0A0C2D008E148F158D168A178B1890
:100C3700E4FDF519E5356012E514FF7E000DEE249D
:100C470000F582E43400F583EFF0AE050D74002E55
:100C5700F582E43400F583E515F07A007B00AF32C6
:0E0C6700120EF1AB18AA17AD16AF32020ED561
:100E390090E682E030E004E020E60B90E682E030C4
:100E4900E119E030E71590E680E04401F07F147E77
:0C0E590000120C7590E680E054FEF022C0
:100E910090E682E044C0F090E681F04387010000D3
:040EA100000000222B
:1000030030040990E680E0440AF0800790E680E03F
:100013004408F07FDC7E05120C7590E65D74FFF0FA
:0F00230090E65FF05391EF90E680E054F7F02203
:080F8F00E4F51FD2E9D2AF2204
:100D680090E678E020E6F9C2E990E678E04480F081
:100D7800EF25E090E679F090E678E030E0F990E64B
:100D880078E04440F090E678E020E6F990E678E0F4
:060D980030E1D6D2E92291
:100E0700A90790E678E020E6F9E51F702390E678D9
:100E1700E04480F0E925E090E679F08D1AAF03A968
:100E270007751B018A1C891DE4F51E751F01D32256
:020E3700C322D4
:100DD300A90790E678E020E6F9E51F702590E6780C
:100DE300E04480F0E925E0440190E679F08D1AAF04
:100DF30003A907751B018A1C891DE4F51E751F03D2
:040E0300D322C32211
:03004B0002079A0F
:10079A00C0E0C083C082C085C084C086758600C0A0
:1007AA00D075D000C000C001C002C003C006C00797
:1007BA0090E678E030E206751F0602088490E67833
:1007CA00E020E10CE51F64026006751F0702088439
:1007DA00E51F24FE605F14603624FE70030208756C
:1007EA0024FC700302088124086003020884AB1BFE
:1007FA00AA1CA91DAF1E051E8F827583001208A2AE
:10080A0090E679F0E51E651A7070751F05806B9089
:10081A00E679E0AB1BAA1CA91DAE1E8E8275830069
:10082A001208CF751F02E51A6401704E90E678E04F
:10083A004420F08045E51A24FEB51E0790E678E0CC
:10084A004420F0E51A14B51E0A90E678E04440F018
:10085A00751F0090E679E0AB1BAA1CA91DAE1E8E7F
:10086A00827583001208CF051E800F90E678E04457
:10087A0040F0751F008003751F005391DFD007D029
:10088A0006D003D002D001D000D0D0D086D084D0F8
:08089A0085D082D083D0E0324A
:020E6500A907DB
:100E6700AE2DAF2E8F828E83A3E064037017AD0182
:100E770019ED7001228F828E83E07C002FFDEC3EFE
:090E8700FEAF0580DF7E007F0054
:010E9000223F
:100ED500120DD3E51F24FA600E146006240770F383
:0C0EE500D322E4F51FD322E4F51FD32232
:100EF100120E07E51F24FA600E146006240770F332
:0C0F0100D322E4F51FD322E4F51FD32215
:100C75008E0C8F0D90E600E054187012E50D2401DE
:100C8500FFE4350CC313F50CEF13F50D801590E655
:100C950000E05418FFBF100BE50D25E0F50DE50C40
:100CA50033F50CE50D150DAE0C7002150C4E6005F7
:060CB500120EA580EE22E4
:100EA5007400F58690FDA57C05A3E582458370F960
:010EB500221A
:03000000020B569A
:0C0B5600787FE4F6D8FD758135020B9D18
:1008A200BB010CE58229F582E5833AF583E022500B
:1008B20006E92582F8E622BBFE06E92582F8E22255
:0D08C200E58229F582E5833AF583E493226F
:1008CF00F8BB010DE58229F582E5833AF583E8F05F
:1008DF00225006E92582C8F622BBFE05E92582C80B
:0208EF00F222F3
:1008F100BC000BBE0029EF8DF084FFADF022E4CCEB
:10090100F875F008EF2FFFEE33FEEC33FCEE9DECB3
:10091100984005FCEE9DFE0FD5F0E9E4CEFD22EDF9
:10092100F8F5F0EE8420D21CFEADF075F008EF2F43
:10093100FFED33FD4007985006D5F0F222C398FD34
:050941000FD5F0EA22D1
:10094600D083D082F8E4937012740193700DA3A340
:1009560093F8740193F5828883E473740293686054
:06096600EFA3A3A380DF54
:100B620002096CE493A3F8E493A34003F68001F234
:100B720008DFF48029E493A3F85407240CC8C33394
:100B8200C4540F4420C8834004F456800146F6DF63
:100B9200E4800B0102040810204080900046E47EAD
:100BA200019360BCA3FF543F30E509541FFEE49358
:100BB200A360010ECF54C025E060A840B8E493A31F
:100BC200FAE493A3F8E493A3C8C582C8CAC583CA4A
:100BD200F0A3C8C582C8CAC583CADFE9DEE780BE02
:01004A0000B5
:00000001FF
