:1008B800120100020000004005161080010001022C
:1008C80000010A06000200000040010009022000A1
:1008D800010100A0320904000002FF000000070522
:1008E8000202000200070586020002000902200039
:1008F800010100A0320904000002FF000000070502
:1009080001024000000705810240000004030904B9
:1009180026034100430043004500530020004900DE
:100928002F004F002000500072006F006400750017
:1009380063007400730026035500530042002D0025
:100948004900440049004F002D00310036002000C6
:0E095800460061006D0069006C00790000002F
:03004300020800B0
:03005300020800A0
:10080000020F5A00020FDF00020FC900020FB100F1
:10081000020D3D00020D7400020042000200520071
:100820000207FF00021097000210980002109900C2
:1008300002109A0002109B0002109C0002109D0002
:1008400002109E000200520002109F000210A00041
:100850000210A1000210A2000210A3000210A400C6
:100860000210A500020052000200520002005200D5
:100870000210A6000210A7000210A8000210A90092
:100880000210AA000210AB000210AC000210AD0072
:100890000210AE000210AF000210B0000210B10052
:1008A0000210B2000210B3000210B4000210B50032
:0808B0000210B6000210B700AF
:0A00360000010202030304040505A3
:03000B00020F39A8
:100F3900C0E00509E50970020508640F4508700E4F
:100F4900050DE50D7002050C750800750900D0E066
:010F59003265
:100A0900E4F524F523F522F521C203C200C202C28E
:100A190001120DAB750E08750FB87516087517CA52
:100A2900750A08750BD47514087515F475180975C8
:100A39001914D2E843D82090E668E04409F090E61A
:100A49005CE0443DF0D2AFD204120EB290E680E0F1
:100A590054F7F0538EF8C2033001051203EEC201B8
:100A69003003291200405024C20312000E20001640
:100A790090E682E030E704E020E1EF90E682E030A2
:100A8900E604E020E0E4120EE11207FD120C0A80F0
:010A9900C795
:1003EE0090E6B9E0700302049F14700302051C240A
:1003FE00FE700302059F24FB700302049914700320
:10040E00020493146073146076240560030205FEE3
:10041E0012108F400302060A90E6BBE024FE602213
:10042E0014603324FD601114602224067048E50E1A
:10043E0090E6B3F0E50F8037E51690E6B3F0E517DA
:10044E00802DE51090E6B3F0E5118023E51290E6DD
:10045E00B3F0E513801990E6BAE0FF120F0DAA066D
:10046E00A9077B01EA494B600DEE90E6B3F0EF90E1
:10047E00E6B4F002060A02060312103102060A1250
:10048E00107302060A12000302060A12101F020659
:10049E000A121091400302060A90E6B8E0247F602B
:1004AE001514601924027063A200E43325E0FFA244
:1004BE0002E4334F8041E490E740F0803F90E6BC89
:1004CE00E0547EFF7E00E0D394807C0040047D01EA
:1004DE0080027D00EC4EFEED4F2436F58274003E18
:1004EE00F583E493FF3395E0FEEF24A1FFEE34E6AF
:1004FE008F82F583E0540190E740F0E4A3F090E69C
:10050E008AF090E68B7402F002060A0206031210BD
:10051E0093400302060A90E6B8E024FE6016240219
:10052E00600302060A90E6BAE0B40105C2000206B4
:10053E000A02060390E6BAE0705590E6BCE0547EDF
:10054E00FF7E00E0D394807C0040047D0180027D1C
:10055E0000EC4EFEED4F2436F58274003EF583E43A
:10056E0093FF3395E0FEEF24A1FFEE34E68F82F584
:10057E0083E054FEF090E6BCE05480131313541F36
:10058E00FFE0540F2F90E683F0E04420F0806D8062
:10059E0064121095506690E6B8E024FE60192402AD
:1005AE00705A90E6BAE0B40104D200804F90E6BAD9
:1005BE00E064026047803E90E6BCE0547EFF7E0021
:1005CE00E0D394807C0040047D0180027D00EC4EDF
:1005DE00FEED4F2436F58274003EF583E493FF332F
:1005EE0095E0FEEF24A1FFEE34E68F82F5838008BE
:1005FE00120056500790E6A0E04401F090E6A0E00D
:03060E004480F035
:0106110022C6
:0300330002004E7A
:04004E0053D8EF3262
:100B26005553422D4949524F2D3136005553422DCA
:100B360049492D3136005553422D524F2D3136003D
:100B46005553422D4949524F2D38005553422D4990
:100B5600492D38005553422D4949524F2D30340006
:100B66005553422D4944494F2D3136005553422D98
:100B760049444F2D3136005553422D4944494F2D96
:100B860038005553422D4944494F2D3400555342A0
:0A0B96002D49492D4F5448455200E7
:040046000233000081
:0410830043B1402213
:0410870053B1BF2280
:04108B0063B14022EB
:0A10430090E740E0F580A3E0F5908F
:07104D0053B1F543B10A2283
:0E106500C28C538EF75389F1438901C2A92230
:060BA0008B258A2689273F
:100BA600E4F52812100A8F29E52925E02402900988
:100BB6003EF0E4F528AF29EF3395E0FEC3E5289F24
:100BC600EE6480F87480985027AB25AA26A927855D
:100BD600288275830012071AFDE52875F002A42401
:100BE60040F9740935F08982F583EDF0052880C552
:100BF600E52875F002A42440F9740935F08982F5D8
:030C060083E4F094
:010C090022C8
:101054007AE779407F40AB077D087FF87E1D020C5C
:011064006823
:100966007AE779407F40AB077D017F037E00120C5A
:100976006890E740E0541FF53C9008C2E0453CF023
:10098600E53C540F1207BE09AF0009B70109BF02C3
:1009960009C70409CF0509D70609DF0809E70A09C7
:1009A600EF0C09F70E000009FF7BFF7A0B79268012
:1009B6004E7BFF7A0B793280467BFF7A0B793C803F
:1009C6003E7BFF7A0B794680367BFF7A0B79518026
:1009D6002E7BFF7A0B795A80267BFF7A0B7966800D
:1009E6001E7BFF7A0B797280167BFF7A0B797D80EE
:1009F6000E7BFF7A0B798880067BFF7A0B79931240
:030A06000BA02220
:100DAB0012107B90E678E05410FFC4540F4450F5BA
:100DBB003A13E433F53E120966121065D2007580C2
:100DCB00FF7590FF75B2FF75B3FF75B18A75B67F6E
:060DDB0012108702104D0A
:100FF50085388085399012104DE4F50CF50DF5080E
:05100500F509C28C2278
:100C0A00D3E50D9537E50C95364003120FF5E53B14
:100C1A00603AE4F50CF50DE5344533700675332F6B
:100C2A007534FFE534153470021533E534453370F5
:100C3A0004F53B800FAE33AF347C0B7DFF1207699E
:100C4A00EF20E0051210878003121083E5B190E6C9
:0D0C5A008020E705E04408F022E054F7F0A8
:010C6700226A
:02004000D322C9
:0207FD00D32205
:02108F00D3226A
:0800030090E6BAE0F53DD322BE
:10101F0090E740E53DF0E490E68AF090E68B04F02F
:02102F00D322CA
:0810730090E6BAE0F535D32246
:1010310090E740E535F0E490E68AF090E68B04F025
:02104100D322B8
:02109100D32268
:02109300D32266
:02109500D32264
:10005600753B0190E678E05410FFC4540F4450F508
:100066003A13E433F53E90E6B9E01207BE020D07F7
:1000760001821001A01101B512022A2002302102CC
:10008600302303EC2803EC2C03EC2D03EC2E00B9F3
:100096002F01D83001D8310268A20268A30262A9F2
:1000A6000238AC03ECF000ECF100F9F203ECF300DB
:1000B6000003EA90E6BBE0FE90E6BAE07C0024008E
:1000C600F537EC3EF53690E6BDE0F53990E6BCE056
:1000D600F538E53745367007C28CC2A9020230D220
:1000E6008CD2A902023090E6BAE0F580A3E0F59042
:1000F60002023090E6BEE0752700F528A3E0FEEE8A
:100106004227E5284527700490E68BF0E528452729
:1001160070030203EC90E6A0E020E1F9C3E5289421
:1001260040E5279400500885272985282A800675EA
:100136002900752A40E4F52BF52CC3E52C952AE514
:100146002B9529501DAF2CC3E5289FFE74402FF533
:1001560082E434E7F583EEF0052CE52C70DC052B04
:1001660080D8E490E68AF090E68BE52AF0C3E5288D
:10017600952AF528E5279529F527809090E6BEE093
:10018600D3940050030203ECE090E68BF090E6A0D7
:10019600E020E1F91210430203EC90E740E580F01D
:1001A600A3E590F0A3E5A0F0A3E5B0F0E4805290BB
:1001B600E6BEE0D3940050030203ECE090E68BF039
:1001C60090E6A0E020E1F9121043E490E68AF002FE
:1001D60003EC90E740E580F0A3E590F0A3E5A0F0FE
:1001E600A3E5B0F0E5B130E0047F0180027F009026
:1001F600E6BAEFF090E7457469F0E4A3F0A3F0A344
:10020600F090E68AF0801D90E6BAE0FF120F0DAA84
:1002160006A9077B01EA494B6008EE90E6B3F0EFCA
:100226008033D32290E6BEE08001E490E68BF002B4
:1002360003EC90E6B5E054FEF090E6BFE090E68A67
:10024600F090E6BEE090E68BF090E6BBE090E6B379
:10025600F090E6BAE090E6B4F00203EC753E014396
:100266003A0190E6BAE0752500F526A3E0FEEE42D7
:100276002590E6BEE0752700F528A3E0FEEE4227AE
:1002860090E6B8E064C06003020354E52845277091
:10029600030203EC90E6A0E020E1F9C3E5289440D0
:1002A600E5279400500885272985282A8006752980
:1002B60000752A4090E6B9E0B4A335E4F52BF52C99
:1002C600C3E52C952AE52B9529505EE526252CF5C8
:1002D60082E525352BF583E0FF7440252CF582E475
:1002E60034E7F583EFF0052CE52C70D4052B80D090
:1002F600E4F52BF52CC3E52C952AE52B952950180A
:100306007440252CF582E434E7F58374CDF0052C92
:10031600E52C70E1052B80DDAD2A7AE779407F4038
:10032600AB07AF26AE25120C68E490E68AF090E69D
:100336008BE52AF02526F526E5293525F525C3E59D
:1003460028952AF528E5279529F52702029190E6B2
:10035600B8E0644060030203ECE528452770030219
:1003660003ECE490E68AF090E68BF090E6A0E020BD
:10037600E1F990E68BE0752900F52A90E6B9E0B43C
:10038600A335E4F52BF52CC3E52C952AE52B952909
:1003960050367440252CF582E434E7F583E0FFE51A
:1003A60026252CF582E525352BF583EFF0052CE582
:1003B6002C70D4052B80D0AD2A7AE779407F40ABEC
:1003C60007AF26AE25120E17E52A2526F526E529BE
:1003D6003525F525C3E528952AF528E5279529F538
:0703E6002702035FD322C3CD
:0103ED0022ED
:100F5A00C0E0C083C08290E6B5E04401F0D20153FC
:0F0F6A0091EF90E65D7401F0D082D083D0E03239
:100FC900C0E0C083C0825391EF90E65D7404F0D015
:060FD90082D083D0E0325B
:100FDF00C0E0C083C0825391EF90E65D7402F0D001
:060FEF0082D083D0E03245
:100D3D00C0E0C083C08290E680E030E70E850A10E7
:100D4D00850B11851412851513800C8514108515CE
:100D5D0011850A12850B135391EF90E65D7410F017
:070D6D00D082D083D0E032F8
:100FB100C0E0C083C082D2035391EF90E65D740814
:080FC100F0D082D083D0E032B1
:100D7400C0E0C083C08290E680E030E70E850A10B0
:100D8400850B11851412851513800C851410851597
:100D940011850A12850B135391EF90E65D7420F0D0
:070DA400D082D083D0E032C1
:01004200328B
:01005200327B
:0107FF0032C7
:011097003226
:011098003225
:011099003224
:01109A003223
:01109B003222
:01109C003221
:01109D003220
:01109E00321F
:01109F00321E
:0110A000321D
:0110A100321C
:0110A200321B
:0110A300321A
:0110A4003219
:0110A5003218
:0110A6003217
:0110A7003216
:0110A8003215
:0110A9003214
:0110AA003213
:0110AB003212
:0110AC003211
:0110AD003210
:0110AE00320F
:0110AF00320E
:0110B000320D
:0110B100320C
:0110B200320B
:0110B300320A
:0110B4003209
:0110B5003208
:0110B6003207
:0110B7003206
:060CB000AB07AA06AC052B
:100CB600E4FDE53E600F7E000DEE2400F582E4348F
:100CC60000F583EAF0AE050D74002EF582E43400DB
:100CD600F583EBF0AF050D74002FF582E43400F5D3
:100CE60083ECF07A007B00AF3A120F95AF3A020D13
:010CF600E11C
:0A0E17008E2D8F2E8D2F8A308B3127
:100E2100E4F532E532C3952F5020052EE52EAE2D87
:100E31007002052D14FFE5312532F582E43530F5D8
:0A0E410083E0FD120CB0053280D9E9
:010E4B002284
:0A0C68008E2D8F2E8D2F8A308B31D8
:100C7200E4FDF532E53E6012E52DFF7E000DEE2427
:100C820000F582E43400F583EFF0AE050D74002E1A
:100C9200F582E43400F583E52EF07A007B00AF3A6A
:0E0CA200120F95AB31AA30AD2FAF3A020F7989
:100EE10090E682E030E004E020E60B90E682E0301C
:100EF100E119E030E71590E680E04401F07F147ECF
:0C0F010000120CF790E680E054FEF02295
:10000E0090E682E044C0F090E681F0438701000064
:04001E0000000022BC
:100EB20030040990E680E0440AF0800790E680E082
:100EC2004408F07FDC7E05120CF790E65D74FFF0BB
:0F0ED20090E65FF05391EF90E680E054F7F02246
:08107B00E4F51FD2E9D2AF2217
:100DE10090E678E020E6F9C2E990E678E04480F008
:100DF100EF25E090E679F090E678E030E0F990E6D2
:100E010078E04440F090E678E020E6F990E678E07A
:060E110030E1D6D2E92217
:100E8000A90790E678E020E6F9E51F702390E67860
:100E9000E04480F0E925E090E679F08D1AAF03A9EF
:100EA00007751B018A1C891DE4F51E751F01D322DD
:020EB000C3225B
:100E4C00A90790E678E020E6F9E51F702590E67892
:100E5C00E04480F0E925E0440190E679F08D1AAF8A
:100E6C0003A907751B018A1C891DE4F51E751F0358
:040E7C00D322C32298
:03004B0002061298
:10061200C0E0C083C082C085C084C086758600C029
:10062200D075D000C000C001C002C003C006C00720
:1006320090E678E030E206751F060206FC90E67846
:10064200E020E10CE51F64026006751F070206FC4C
:10065200E51F24FE605F14603624FE70030206ED7F
:1006620024FC70030206F9240860030206FCAB1B9B
:10067200AA1CA91DAF1E051E8F8275830012071AC0
:1006820090E679F0E51E651A7070751F05806B9013
:10069200E679E0AB1BAA1CA91DAE1E8E82758300F3
:1006A200120747751F02E51A6401704E90E678E062
:1006B2004420F08045E51A24FEB51E0790E678E056
:1006C2004420F0E51A14B51E0A90E678E04440F0A2
:1006D200751F0090E679E0AB1BAA1CA91DAE1E8E09
:1006E20082758300120747051E800F90E678E0446A
:1006F20040F0751F008003751F005391DFD007D0B3
:1007020006D003D002D001D000D0D0D086D084D081
:0807120085D082D083D0E032D3
:020F0D00A90732
:100F0F00AE18AF198F828E83A3E064037017AD0103
:100F1F0019ED7001228F828E83E07C002FFDEC3E55
:090F2F00FEAF0580DF7E007F00AB
:010F38002296
:100F7900120E4CE51F24FA600E146006240770F364
:0C0F8900D322E4F51FD322E4F51FD3228D
:100F9500120E80E51F24FA600E146006240770F314
:0C0FA500D322E4F51FD322E4F51FD32271
:100CF7008E258F2690E600E054187012E526240111
:100D0700FFE43525C313F525EF13F526801590E687
:100D170000E05418FFBF100BE52625E0F526E52572
:100D270033F525E5261526AE25700215254E6005F7
:060D370012002280EE22F2
:100022007400F58690FDA57C05A3E582458370F9F1
:0100320022AB
:03000000020A9A57
:0C0A9A00787FE4F6D8FD75813E020AE189
:10071A00BB010CE58229F582E5833AF583E0225094
:10072A0006E92582F8E622BBFE06E92582F8E222DE
:0D073A00E58229F582E5833AF583E49322F8
:10074700F8BB010DE58229F582E5833AF583E8F0E8
:10075700225006E92582C8F622BBFE05E92582C894
:02076700F2227C
:10076900BC000BBE0029EF8DF084FFADF022E4CC74
:10077900F875F008EF2FFFEE33FEEC33FCEE9DEC3D
:10078900984005FCEE9DFE0FD5F0E9E4CEFD22ED83
:10079900F8F5F0EE8420D21CFEADF075F008EF2FCD
:1007A900FFED33FD4007985006D5F0F222C398FDBE
:0507B9000FD5F0EA225B
:1007BE00D083D082F8E4937012740193700DA3A3CA
:1007CE0093F8740193F5828883E4737402936860DE
:0607DE00EFA3A3A380DFDE
:10100A00E4FFFE1207E4600C0FEF70010E09E970AD
:05101A00F20A80EF2244
:100AA600020A09E493A3F8E493A34003F68001F253
:100AB60008DFF48029E493A3F85407240CC8C33351
:100AC600C4540F4420C8834004F456800146F6DF20
:100AD600E4800B0102040810204080900046E47E6A
:100AE600019360BCA3FF543F30E509541FFEE49315
:100AF600A360010ECF54C025E060A840B8E493A3DC
:100B0600FAE493A3F8E493A3C8C582C8CAC583CA06
:100B1600F0A3C8C582C8CAC583CADFE9DEE780BEBE
:01004A0000B5
:1007E400BB010689828A83E0225002E722BBFE0213
:0907F400E32289828A83E4932246
:00000001FF
