:03000000020200F9
:1002000090E6007412F0750800750900750B007512
:100210000A00750C00750D00750E00750F007581D4
:100220005F7A007B007C007D007E0075B00075B5B4
:100230000F7580FF75B20675B37FD296D282D2B3A6
:10024000C295743690C003F07582007490F074010A
:10025000F0D295C2B3C0E0D2B39040007480F0C237
:10026000B3D0E0D290D293D292D291C2927E037157
:100270006CC2937E03716CC2907E03716CC2917EDE
:1002800003716CD2927E03716CD2937E03716CD237
:10029000907E03716CD2917E03716CC2900090E6E7
:1002A000047480F00090E6047400F00090E604749A
:1002B00002F00090E6047404F00090E6047406F086
:1002C0000090E6047408F00090E6047400F00090DA
:1002D000E69074FFF00090E69174FFF090E68B7466
:1002E000FFF090E6A07480F090E6B57401F0E50FA1
:1002F000A2E55002716620B70BE509B40106750846
:100300000075090090E6A3E020E202C1EF90E65DEF
:10031000E030E204E4D2E2F020E00930E604E4D286
:10032000E6F080CAB291D292D293E4D2E0F090E6A5
:10033000A0E04480F090E6B9E0B4B0028035B4B1FA
:100340000261C8B4B20261E3B4B304C29161F3B410
:10035000B4028177B4B5028179B4A202817B90E6C0
:100360008B74FFF08088A280B3929422DCFEDDFCC7
:10037000DEFA2290E6BAE0C0E030E717C0E0D2B380
:100380009040007480F0C2B3D0E0750900D291D2E1
:1003900093D292D0E0C0E030E600D0E0C0E030E0A0
:1003A00017D2949040007401D2B3F0750901C2B322
:1003B000E50FA2B492E0F50FD0E0C0E0A2E5E50FB2
:1003C00092E5F50FD0E0818F90E6BCE0F50A90E66B
:1003D000BDE0F50B90E6BBE05407F50DF1C47508E0
:1003E00001818F90E6BCE0C5F090E6BDE0C5F0F17C
:1003F000AA818F758600D294D2B39080107401F0D8
:1004000090E6BEE0B4001F90E6BBE0F50090E6BACF
:10041000E0F50190E6BCE023F582758380E501F00C
:10042000A3E500F0804390E68B74FFF090E6A0E037
:100430005402B400F775858075840090E740E0A30E
:100440008006A3A305840584B40002801CC3135056
:10045000F1C0E0E00586F00586A30584E00586F09E
:100460000586A30584D0E080DF908012F090801094
:100470007400F0C2B380188016801490E6B8E0B41F
:10048000C00491978009B44004B1C08002800090FC
:10049000E68B74FFF041EE90E6BEE0F9B400012275
:1004A00090E6BAE0FAA3E0FBC0E0C082C08390E629
:1004B00078E0D2E7F0D083D082D0E090E67974A2E1
:1004C000F0C0E0C082C08390E678E030E0FCA2E1BA
:1004D000D083D082D0E0EBF0C0E0C082C08390E651
:1004E00078E030E0FCA2E1D083D082D0E0EAF0C036
:1004F000E0C082C08390E678E030E0FCA2E1D083E7
:10050000D082D0E090E740AA827800C0E0C082C0EC
:100510008390E678E0D2E7F0D083D082D0E090E616
:100520007974A3F0C0E0C082C08390E678E030E048
:10053000FCA2E1D083D082D0E0E0B90113C0E0C0DA
:1005400082C08390E678E0D2E5F0D083D082D0E01C
:10055000C0E0C082C08390E678E030E0FCA2E1D049
:1005600083D082D0E0E9C398C0E0B40213C0E0C0F9
:0D05700082C08390E678E0D2E5F0D083D021
:10057D0082D0E0B40113C0E0C082C08390E678E081
:10058D00D2E6F0D083D082D0E090E679E090E740DB
:10059D008A82F0080AD0E0B401A990E68BE9F0C098
:1005AD00E0C083C08290E678E020E6FCD082D08364
:1005BD00D0E02290E6BEE0F9B4001922C0E0C0827E
:1005CD00C08390E678E0D2E6F0E020E6FCD083D060
:1005DD0082D0E02290E68B74FFF090E6A0E054020A
:1005ED00B400F790E6BAE0FAA3E0FBC0E0C082C029
:1005FD008390E678E0D2E7F0D083D082D0E090E629
:10060D007974A2F0C0E0C082C08390E678E030E05B
:10061D00FCA2E1D083D082D0E0EBF0C0E0C082C07C
:10062D008390E678E030E0FCA2E1D083D082D0E088
:10063D00EAF0C0E0C082C08390E678E030E0FCA232
:10064D00E1D083D082D0E090E7407A00E5822AF5B0
:10065D0082E090E679F0C0E0C082C08390E678E059
:10066D0030E0FCA2E1D083D082D0E00A19E9B400D9
:10067D00DBC0E0C082C08390E678E0D2E6F0E020F7
:10068D00E6FCD083D082D0E0C0E0C082C08390E68B
:10069D0078E0D2E7F0D083D082D0E090E67974A2F2
:1006AD00F0C0E0C082C08390E678E030E0FCA2E1CB
:1006BD00D083D082D0E0C0E0C082C08390E678E0E5
:1006CD00D2E6F0E020E6FCD083D082D0E0C0E0C0DE
:1006DD0082C08390E678E0A2E1D083D082D0E05052
:1006ED00A722E50820E002801590E691E0F990E65A
:1006FD0090E0F8B40006E9B400028002F11B00900E
:10070D00E69074FFF00090E69174FFF041EEE50B7A
:10071D00543F4440F5F0AA0AE9250AF50AE8350BDD
:10072D00543FF50B75860090F00085F0858A84099D
:10073D00D902801BE0A30586F0A3E58530E70C7593
:10074D008540E50D045407F50DF1C40586D9E5087E
:10075D00D802801DE0A30586F0A3E58530E70C7572
:10076D008540E50D045407F50DF1C40586D9E5D88E
:10077D00E322C4C0F0C0E0540FF5F0E59054F0450D
:10078D00F0F5907E1E716CD0E0C4540FF5F0E5903D
:10079D0054F045F0F5907E1E716CD0F022D2B3C2AC
:1007AD0095C0E0743690C003F0758200D0E0F0E59E
:1007BD00F0F0D295C2B322C0E0E50D1392B01392C2
:1007CD00B11392B2E50DB40027E50EB40722E50989
:1007DD0030E01DE50FB29130B712A2B44007B292CE
:1007ED0020E00980F0B29330E00280E992E0F50F4D
:0C07FD00850D0ED0E0D291D293D2922252
:00000001FF
