:100EB80012010002000000400516608001000102D6
:100EC80000010A060002000000400100090220009B
:100ED800010100A0320904000002FF00000007051C
:100EE8000202000200070586020002000902200033
:100EF800010100A0320904000002FF0000000705FC
:100F080001024000000705810240000004030904B3
:100F180026034100430043004500530020004900D8
:100F28002F004F002000500072006F006400750011
:100F380063007400730020035500530042002D0025
:100F480041004F00310036002D00310036004100CD
:080F5800000000000000000091
:03004300020E00AA
:03005300020E009A
:100E00000216D80002174700020DEA0002172F0051
:100E10000214500002148700020032000200420057
:100E200002004A00020052000217FA000217FB00FB
:100E30000217FC000217FD000217FE000217FF0058
:100E4000021800000200420002180100021802000D
:100E50000218030002180400021805000218060018
:100E60000218070002004200020042000200420095
:100E7000021808000218090002180A0002180B00E4
:100E800002180C0002180D0002180E0002180F00C4
:100E900002181000021811000218120002181300A4
:100EA0000218140002181500021816000218170084
:080EB0000218180002181900D5
:0A00360000010202030304040505A3
:100FF900E4F524F523F522F521C203C200C202C299
:1010090001120A19750A0E750BB875120E7513CAF5
:1010190075080E7509D475100E7511F475140F75D0
:101029001514D2E843D82090E668E04409F090E628
:101039005CE0443DF0D2AFD20612000390E680E0B6
:1010490054F7F0538EF8C2033001051207F5C201B7
:101059003003291200405024C20312168F200016B3
:1010690090E682E030E704E020E1EF90E682E030AC
:10107900E604E020E0E41215C312004E121529809F
:01108900C79F
:1007F50090E6B9E070030208A614700302092324E9
:10080500FE70030209A624FB70030208A0147003FE
:1008150002089A14607314607624056003020A05C1
:100825001200504003020A1190E6BBE024FE60224C
:1008350014603324FD601114602224067048E50A13
:1008450090E6B3F0E50B8037E51290E6B3F0E513DB
:10085500802DE50C90E6B3F0E50D8023E50E90E6DE
:10086500B3F0E50F801990E6BAE0FF1215EFAA067E
:10087500A9077B01EA494B600DEE90E6B3F0EF90D6
:10088500E6B4F0020A11020A0A121798020A1112B6
:1008950017D8020A111217D0020A11121786020A76
:1008A500111217F44003020A1190E6B8E0247F60A4
:1008B5001514601924027063A200E43325E0FFA239
:1008C50002E4334F8041E490E740F0803F90E6BC7E
:1008D500E0547EFF7E00E0D394807C0040047D01DF
:1008E50080027D00EC4EFEED4F2436F58274003E0D
:1008F500F583E493FF3395E0FEEF24A1FFEE34E6A4
:100905008F82F583E0540190E740F0E4A3F090E690
:100915008AF090E68B7402F0020A11020A0A121795
:10092500F64003020A1190E6B8E024FE60162402A0
:100935006003020A1190E6BAE0B40105C200020A9A
:1009450011020A0A90E6BAE0705590E6BCE0547EC2
:10095500FF7E00E0D394807C0040047D0180027D11
:1009650000EC4EFEED4F2436F58274003EF583E42F
:1009750093FF3395E0FEEF24A1FFEE34E68F82F579
:1009850083E054FEF090E6BCE05480131313541F2B
:10099500FFE0540F2F90E683F0E04420F0806D8057
:1009A500641217F8506690E6B8E024FE6019240238
:1009B500705A90E6BAE0B40104D200804F90E6BACE
:1009C500E064026047803E90E6BCE0547EFF7E0016
:1009D500E0D394807C0040047D0180027D00EC4ED4
:1009E500FEED4F2436F58274003EF583E493FF3324
:1009F50095E0FEEF24A1FFEE34E68F82F5838008B3
:100A0500120056500790E6A0E04401F090E6A0E001
:030A15004480F02A
:010A180022BB
:0300330002004682
:0400460053D8EF326A
:100C4E005553422D414F31362D31364100555342C9
:100C5E002D414F31362D313645005553422D414FE2
:100C6E0031362D313241005553422D414F31362D03
:100C7E00313245005553422D414F31362D3841000A
:100C8E005553422D414F31362D3845005553422D87
:100C9E00414F31362D3441005553422D414F31369F
:100CAE002D3445005553422D414F31322D313641B1
:100CBE00005553422D414F31322D3136450055539B
:100CCE00422D414F31322D313241005553422D418B
:100CDE004F31322D313245005553422D414F313275
:100CEE002D3841005553422D414F31322D3845009C
:100CFE005553422D414F31322D3441005553422D23
:100D0E00414F31322D3445005553422D414F2D4F19
:050D1E0054484552009D
:0D17B900011A80011CFFC105C104011620AA
:0617E800D2A7751A802251
:0617EE00C2A7E4F51A2277
:0917C700A2A7B392A7631A8022C5
:02004000D322C9
:02004E00D322BB
:02005000D322B9
:0817D00090E6BAE0F51DD322FA
:1017860090E740E51DF0E490E68AF090E68B04F0E1
:02179600D3225C
:0817D80090E6BAE0F517D322F8
:1017980090E740E517F0E490E68AF090E68B04F0D5
:0217A800D3224A
:0217F400D322FE
:0217F600D322FC
:0217F800D322FA
:0F17AA009040077401F01216A3904007E4F0225C
:061669007B007A007939D4
:10166F00C2A5AFB1E5B130E603D38001C39206D274
:0F167F00A5EA494B6004EF120D50A206E433FFB9
:01168E002239
:0D12AB0075805575905575B1AAC2A4D2A4E6
:1012B8007EFFE4F5B6904004F075B4FFFB7A007940
:1012C800398010121669EF6D60211217C7E539547D
:1012D80028700712166FAD0780E9121669AD07125C
:1012E800166FEF6D60051217AAE4FE75B6FF904001
:0812F80004E4F075B4FFAF0639
:0113000022CA
:1011F70075B6FF904004E4F075B4FF75805575909F
:101207000575B1AAC2A4D2A47580AA75900A75B152
:1012170055C2A4D2A475805575900575B180C2A436
:10122700D2A475805575900575B1AAC2A4D2A475CC
:1012370080AA75900A75B155C2A4D2A47580557558
:0A124700900575B1A0C2A4D2A42244
:101197005307077E0075805575905575B1AAC2A48F
:1011A700D2A47580AA7590AA75B155C2A4D2A475A8
:1011B700805575905575B180C2A4D2A475805575B8
:1011C700905575B1AAC2A4D2A47580AA7590AA75C4
:1011D700B155C2A4D2A4E4F580EFC4F8540FC8688F
:1011E700FF8F90E51A4430F5A075B1301212B42282
:020F60008F34CC
:100F6200E4F536E534C39420400375342075B6FFAA
:100F7200904004E4F075B4FFE5347019E4F535AF40
:100F8200357E00121197EF42360535E535C39408D8
:100F920040EDAF362275805575905575B1AAC2A441
:100FA200D2A47580AA7590AA75B155C2A4D2A475AF
:100FB200805575905575B180C2A4D2A475805575BF
:100FC200905575B1AAC2A4D2A47580AA7590AA75CB
:100FD200B155C2A4D2A4E4F580E53430E0047F80A8
:100FE20080027F008F90E534C313451A4430F5A088
:060FF20075B1301212B4CB
:010FF80022D6
:1016B400E4F5257525FFF516AF16120F60EF7005DA
:1016C40085162580090516E516C3942040EA1217ED
:0316D400AAAF2595
:0116D70022F0
:1012510075B6FF904004E4F075B4FF1211F78F28C2
:10126100E4F527E4F526852680852790E528451AAB
:101271004430F5A0C2A68526B11212B48526808518
:101281002790E528451A4430F5A0D2A68527B1124A
:1012910012B40526E52670CE1217C70527E527707B
:0912A100C21217EE1217AA7F0019
:0112AA002221
:10177200E4F525AF251212510525E525C394104045
:03178200F27F00F3
:011785002241
:101116008F348D358B3675B6FF904004E4F075B488
:10112600FF1212AB7580AA7590AA75B1551212B44A
:1011360075805575905575B1A01212B485368085A7
:101146003590E534540F451A4430F5A08538B11270
:1011560012B41212AB7580AA7590AA75B155121207
:10116600B475805575905575B1A01212B485368048
:10117600853590E534540F451A4430F5A08537B1CE
:10118600D2A61212B4E4F5B690400404F075B4BFCA
:011196002236
:10141800E4F5B6904004F075B4FF8B808D90EF54DE
:101428000F451A4430F5A0C2A5AFB1AD07D2A5D279
:10143800A6C2A5AFB1EFFEEEFCD2A5E4F5B604F066
:0714480075B4BFAE04AF054F
:01144F00227A
:10161B00E4F5B690400404F075B4BF8D808B90EF69
:10162B00540FFFE5A054F04FF5A0C2B1D2B0C2A544
:07163B00C2B2D2B2D2A52217
:10164200E4F5B690400404F075B4BF8D808B90EF42
:10165200540FFFE5A054F04FF5A0C2B1C2B0C2A52D
:07166200C2B2D2B2D2A522F0
:061301008B258A268927D6
:10130700E4F52812175D8F29E52925E02402900FBF
:101317003EF0E4F528E528C395295027AB25AA26F2
:10132700A927852882758300120D23FDE52875F00E
:1013370002A42440F9740F35F08982F583EDF00596
:031347002880D229
:01134A002280
:100A190090E600E04410F01217E090E678E05410F8
:100A2900C4540F4450F51813E433F51E7AE779409E
:100A39007F40AB077D017F037E0012134B90E74097
:100A4900E0541FF51C4470900EC2F0E51C540FB41D
:100A590010004003020B17900A67F8282873020A4E
:100A690097020A9F020AA7020AAF020AB7020ABF3F
:100A7900020AC7020ACF020AD7020ADF020AE702FC
:100A89000AEF020AF7020AFF020B07020B0F7BFFAC
:100A99007A0C794E807E7BFF7A0C795B80767BFFBE
:100AA9007A0C7968806E7BFF7A0C797580667BFF9A
:100AB9007A0C7982805E7BFF7A0C798E80567BFF77
:100AC9007A0C799A804E7BFF7A0C79A680467BFF57
:100AD9007A0C79B2803E7BFF7A0C79BF80367BFF36
:100AE9007A0C79CC802E7BFF7A0C79D980267BFF12
:100AF9007A0C79E6801E7BFF7A0C79F280167BFFEF
:100B09007A0C79FE800E7BFF7A0D790A80067BFFCD
:100B19007A0D79161213017580FF7590FF75A0FF84
:100B290075B007E4F5B175B2FF75B3FF75B4FF751C
:0D0B3900B507F5B61217E81217EED200222C
:10152900300408C2041216B41217EE300514C205AD
:10153900E519B4FF051217728005AF19121251127D
:1015490017EEE5B090E68020E705E04408F022E0D8
:0415590054F7F02231
:10005600E4F53190E678E05410FFC4540F4450F5AF
:100066001813E433F51E90E6B9E0120DAB05C61081
:1000760005C61105FE12066FA2066FA30669A9063C
:100086003FAC04D3B30302B400E9B502D7B7039477
:10009600BF0486DF00D9F00302FB00A7FC000007BF
:1000A600F190E6BCE0047018D20490E74074FCF0CE
:1000B600E490E68AF090E6BEE090E68BF002038DCF
:1000C60090E6BCE0FF120F6090E740EFF01217EEEB
:1000D60002038DD20590E6BCE0F51990E74074F076
:1000E6000204CBE4F528F527F526F52590E6BAE0D7
:1000F600FFE5284FF528E527F527E526F526E5252A
:10010600F525A3E0FFE4FCFDFE7808120D98E5282E
:100116004FF528E5274EF527E5264DF526E5254C2E
:10012600F525A3E0FFE4FCFDFE7810120D98E52806
:100136004FF528E5274EF527E5264DF526E5254C0E
:10014600F52590E6BEE0752B00F52CA3E0FEEE4209
:100156002B90E6B8E020E703020225E52C452B703C
:10016600030207F390E6A0E020E1F9C3E52C9440F2
:10017600E52B94005008852B2D852C2E8006752D99
:1001860000752E40E4F52FF530C3E530952EE52FAA
:04019600952D5070E3
:10019A00AF28AE27AD26AC257810120D84E4C0072F
:1001AA00AF28AE27AD26AC257808120D84AD07E539
:1001BA0028FFAB07D0071214188E328F33AD307474
:1001CA00402DF582E434E7F583EFF0E532FF744120
:0A01DA002DF582E434E7F583EFF021
:1001E40074022530F530E4352FF52FE4FAF9F8E5FB
:1001F400282401F528EA3527F527E93526F526E8E8
:100204003525F5258085E490E68AF090E68BE52E89
:10021400F0C3E52C952EF52CE52B952DF52B02013D
:1002240061532CFEE52C452B70030207F3E490E6A2
:100234008AF090E68BF090E6A0E020E1F990E68B5E
:10024400E054FE752D00F52EE4F52FF530C3E530AE
:10025400952EE52F952D506BAF28AE27AD26AC25F6
:100264007810120D84E4C007AF28AE27AD26AC2564
:100274007808120D84AD07E528FFAB07AF30744151
:100284002FF582E434E7F583E0F53774402FF582E7
:10029400E434E7F583E0F538D0071211167402252B
:1002A40030F530E4352FF52FE4FAF9F8E528240188
:1002B400F528EA3527F527E93526F526E83525F525
:1002C40025808AC3E52C952EF52CE52B952DF52B51
:1002D40002022890E6B8E030E70F904000E090E793
:1002E40040F0E490E68A0205E190E6BAE054012584
:1002F400E0FF904000E054FD44044F0205E190E625
:10030400B8E030E70302038DE490E68AF090E6BE9D
:10031400E090E68BF090E6A0E020E1F9E4F5B690F9
:10032400400404F075B4BFC2A5C2B0C2B1E4F52F55
:10033400F53090E6BCE0FF90E6BEE0FDC3E5309DFD
:10034400E52F94005039AE3074402EF582E434E742
:10035400F583E0F58074412EF582E434E7F583E01B
:10036400F590EF540FFEE5A054F04EF5A0C2B2D2C2
:10037400B274022530F530E4352FF52F0F80B853D1
:10038400A0F0D2B0D2B10205BBE490E68A0205E146
:0C0394009040057401F04387807598309C
:0603A00075320CD532FDA0
:0303A60075983017
:0603A90075320CD532FD97
:0303AF007598300E
:0603B20075320CD532FD8E
:0E03B800E599C41313540390E740F075983094
:0603C60075320CD532FD7A
:1003CC00859931E531C41313540390E741F0E531BD
:0E03DC0025E025E0FF90E740E04FF0759830F7
:0603EA0075320CD532FD56
:1003F00085993190E741E0FFE53125E025E0FEEF0A
:070400004EF0904005E4F00E
:0604070075320CD532FD38
:0C040D009040057401F043878075983022
:0604190075320CD532FD26
:03041F007598309D
:0604220075320CD532FD1D
:0304280075983094
:06042B0075320CD532FD14
:0E043100E599C41313540390E742F075983018
:06043F0075320CD532FD00
:10044500859931E531C41313540390E743F0E53141
:0E04550025E025E0FF90E742E04FF07598307B
:0604630075320CD532FDDC
:1004690085993190E743E0FFE53125E025E0FEEF8E
:100479004EF0904005E4F090E68A0205E190E6B876
:10048900E020E72CE490E68AF090E6BEE090E68B67
:10049900F090E6A0E020E1F990E740E0FF90E6BAAD
:1004A900E0FEE42EF582E43440F583EFF00207F331
:1004B90090E6BAE0FFE42FF582E43440F583E0905A
:1004C900E740F0E490E68A0205E190E6BEE07013A9
:1004D90090E6BCE0FF90E6BAE0FDA3E0FB12161B34
:1004E9000205E290E6BEE064116008E06422600360
:1004F9000205C4E490E68AF090E6BEE090E68BF04F
:1005090090E6A0E020E1F9E4F52FF53090E740E02E
:10051900F531E531603D30E02AAF30C007E53025DF
:10052900E0FFE52F33FE74412FF58274E73EF58332
:10053900E0FD74422FF58274E73EF583E0FBD007B6
:100549001216420530E5307002052FE531C313F567
:100559003180BF90E6BEE0D39411404D752F0075F0
:10056900300890E751E0F531E531603D30E02AAFE0
:1005790030C007E53025E0FFE52F33FE74422FF543
:100589008274E73EF583E0FD74432FF58274E73EFC
:10059900F583E0FBD0071216420530E530700205FD
:1005A9002FE531C313F53180BF53A0F0D2B1D2B0DA
:1005B900C2A5C2B2D2B2D2A50207F3801C90E6B896
:1005C900E030E720904001E090E740F0904002E001
:1005D90090E741F0E490E68AF090E6BEE090E68B81
:1005E900F00207F390E6BEE090E68BF090E6A0E01B
:1005F90020E1F9802EE490E68AF090E6BEE090E6EC
:100609008BF090E6A0E020E1F990E6BAE05401C44D
:100619003333335480FF90E742E054034FF5319070
:100629004003F090E740E0904001F090E741E0900E
:100639004002F00207F390E6B5E054FEF090E6BF01
:10064900E090E68AF090E6BEE090E68BF090E6BB9B
:10065900E090E6B3F090E6BAE090E6B4F00207F372
:10066900751E0143180190E6BAE0752900F52AA321
:10067900E0FEEE422990E6BEE0752B00F52CA3E0E2
:10068900FEEE422B90E6B8E064C0600302075BE52A
:100699002C452B70030207F390E6A0E020E1F9C393
:1006A900E52C9440E52B94005008852B2D852C2EA4
:1006B9008006752D00752E4090E6B9E0B4A335E4A7
:1006C900F52FF530C3E530952EE52F952D505EE5D4
:1006D9002A2530F582E529352FF583E0FF74402579
:1006E90030F582E434E7F583EFF00530E53070D476
:1006F900052F80D0E4F52FF530C3E530952EE52F91
:10070900952D501874402530F582E434E7F583744B
:10071900CDF00530E53070E1052F80DDAD2E7AE7AB
:1007290079407F40AB07AF2AAE2912134BE490E61C
:100739008AF090E68BE52EF0252AF52AE52D352954
:10074900F529C3E52C952EF52CE52B952DF52B02D6
:10075900069890E6B8E0644060030207F3E52C458B
:100769002B70030207F3E490E68AF090E68BF09091
:10077900E6A0E020E1F990E68BE0752D00F52E90DA
:10078900E6B9E0B4A335E4F52FF530C3E530952E8D
:10079900E52F952D503674402530F582E434E7F580
:1007A90083E0FFE52A2530F582E529352FF583EF2A
:1007B900F00530E53070D4052F80D0AD2E7AE77979
:1007C900407F40AB07AF2AAE291214F4E52E252A43
:1007D900F52AE52D3529F529C3E52C952EF52CE5C6
:0B07E9002B952DF52B020766D322C3D1
:0107F40022E2
:1016D800C0E0C083C08290E6B5E04401F0D2015377
:0F16E80091EF90E65D7401F0D082D083D0E032B4
:100DEA00C0E0C083C0825391EF90E65D7404F0D0F6
:060DFA0082D083D0E0323C
:10174700C0E0C083C0825391EF90E65D7402F0D091
:0617570082D083D0E032D5
:10145000C0E0C083C08290E680E030E70E85080CD3
:1014600085090D85100E85110F800C85100C8511D6
:101470000D85080E85090F5391EF90E65D7410F00D
:07148000D082D083D0E032DE
:10172F00C0E0C083C082D2035391EF90E65D74088E
:08173F00F0D082D083D0E0322B
:10148700C0E0C083C08290E680E030E70E85080C9C
:1014970085090D85100E85110F800C85100C85119F
:1014A7000D85080E85090F5391EF90E65D7420F0C6
:0714B700D082D083D0E032A7
:01003200329B
:01004200328B
:01004A003283
:01005200327B
:0117FA0032BC
:0117FB0032BB
:0117FC0032BA
:0117FD0032B9
:0117FE0032B8
:0117FF0032B7
:0118000032B5
:0118010032B4
:0118020032B3
:0118030032B2
:0118040032B1
:0118050032B0
:0118060032AF
:0118070032AE
:0118080032AD
:0118090032AC
:01180A0032AB
:01180B0032AA
:01180C0032A9
:01180D0032A8
:01180E0032A7
:01180F0032A6
:0118100032A5
:0118110032A4
:0118120032A3
:0118130032A2
:0118140032A1
:0118150032A0
:01181600329F
:01181700329E
:01181800329D
:01181900329C
:0413D900AA06AC05AF
:1013DD00E4FD7E000DEE2400F582E43400F583EA91
:1013ED00F00E0D74002EF582E43400F583EFF00D50
:1013FD0074002402F582E43400F583ECF07A007B6E
:0B140D0000AF18121713AF180214BE36
:0A14F4008E348F358D368A378B3821
:1014FE00E4F539E539C3953650200535E535AE347A
:10150E007002053414FFE5382539F582E43537F5D8
:0A151E0083E0FD1213D9053980D9CE
:0115280022A0
:0A134B008E348F358D368A378B38CB
:10135500E4FDF539E51E6012E534FF7E000DEE244F
:1013650000F582E43400F583EFF0AE050D74002E30
:10137500F582E43400F583E535F07A007B00AF189B
:0E138500121713AB38AA37AD36AF180216F7A1
:1015C30090E682E030E004E020E60B90E682E03033
:1015D300E119E030E71590E680E04401F07F147EE6
:0C15E3000012139390E680E054FEF0220A
:10168F0090E682E044C0F090E681F04387010000CD
:04169F000000002225
:1000030030060990E680E0440AF0800790E680E03D
:100013004408F07FDC7E0512139390E65D74FFF0D5
:0F00230090E65FF05391EF90E680E054F7F02203
:1016A3007400F58690FDA57C05A3E582458370F95A
:0116B3002214
:0817E000E4F53FD2E9D2AF228B
:1014BE0090E678E020E6F9C2E990E678E04480F024
:1014CE00EF25E090E679F090E678E030E0F990E6EE
:1014DE0078E04440F090E678E020E6F990E678E097
:0614EE0030E1D6D2E92234
:10159100A90790E678E020E6F9E53F702390E67828
:1015A100E04480F0E925E090E679F08D3AAF03A9B7
:1015B10007753B018A3C893DE4F53E753F01D32225
:0215C100C32243
:10155D00A90790E678E020E6F9E53F702590E6785A
:10156D00E04480F0E925E0440190E679F08D3AAF52
:10157D0003A907753B018A3C893DE4F53E753F03A0
:04158D00D322C32280
:03004B00020B465F
:100B4600C0E0C083C082C085C084C086758600C0F0
:100B5600D075D000C000C001C002C003C006C007E7
:100B660090E678E030E206753F06020C3090E678B3
:100B7600E020E10CE53F64026006753F07020C3099
:100B8600E53F24FE605F14603624FE7003020C21EC
:100B960024FC7003020C2D24086003020C30AB3BCE
:100BA600AA3CA93DAF3E053E8F82758300120D23F8
:100BB60090E679F0E53E653A7070753F05806B907A
:100BC600E679E0AB3BAA3CA93DAE3E8E827583003A
:100BD600120D62753F02E53A6401704E90E678E0C8
:100BE6004420F08045E53A24FEB53E0790E678E0DD
:100BF6004420F0E53A14B53E0A90E678E04440F029
:100C0600753F0090E679E0AB3BAA3CA93DAE3E8E2F
:100C160082758300120D62053E800F90E678E044EF
:100C260040F0753F008003753F005391DFD007D039
:100C360006D003D002D001D000D0D0D086D084D048
:080C460085D082D083D0E0329A
:0215EF00A9074A
:1015F100AE14AF158F828E83A3E064037017AD0123
:1016010019ED7001228F828E83E07C002FFDEC3E6C
:09161100FEAF0580DF7E007F00C2
:01161A0022AD
:1016F70012155DE53F24FA600E146006240770F3A7
:0C170700D322E4F53FD322E4F53FD322C7
:10171300121591E53F24FA600E146006240770F356
:0C172300D322E4F53FD322E4F53FD322AB
:101393008E258F2690E600E054187012E52624016E
:1013A300FFE43525C313F525EF13F526801590E6E5
:1013B30000E05418FFBF100BE52625E0F526E525D0
:1013C30033F525E5261526AE25700215254E600555
:0613D3001216A380EE22B9
:0300000002108A61
:0C108A00787FE4F6D8FD75813F0210D19C
:100D2300BB010CE58229F582E5833AF583E0225085
:100D330006E92582F8E622BBFE06E92582F8E222CF
:0D0D4300E58229F582E5833AF583E49322E9
:100D5000BB010689828A83F0225002F722BBFE0182
:020D6000F3227C
:100D6200F8BB010DE58229F582E5833AF583E8F0C7
:100D7200225006E92582C8F622BBFE05E92582C873
:020D8200F2225B
:100D8400E86010ECA2E713FCED13FDEE13FEEF1385
:040D9400FFD8F02272
:100D9800E8600FEFC333FFEE33FEED33FDEC33FCB9
:030DA800D8F1225D
:100DAB00D083D082F8E4937012740193700DA3A3D7
:100DBB0093F8740193F5828883E4737402936860EB
:060DCB00EFA3A3A380DFEB
:10175D00E4FFFE120DD1600C0FEF70010E09E97060
:05176D00F20A80EF22EA
:10109600020FF9E493A3F8E493A34003F68001F268
:1010A60008DFF48029E493A3F85407240CC8C3335B
:1010B600C4540F4420C8834004F456800146F6DF2A
:1010C600E4800B01020408102040809017B9E47EEA
:1010D600019360BCA3FF543F30E509541FFEE4931F
:1010E600A360010ECF54C025E060A840B8E493A3E6
:1010F600FAE493A3F8E493A3C8C582C8CAC583CA11
:10110600F0A3C8C582C8CAC583CADFE9DEE780BEC8
:0117C6000022
:100DD100BB010689828A83E0225002E722BBFE0220
:090DE100E32289828A83E4932253
:00000001FF
