:1014000012010002000000400516408100000102A8
:1014100000010A06000200000040010009022E003F
:1014200001010080FA0904000004FF000000070524
:1014300002020002000705040200020007058602FE
:101440000002000705880200020009022E000101C7
:101450000080FA0904000004FF00000007050202F2
:101460004000000705040240000007058602400016
:10147000000705880240000014030000000000007F
:101480000000000000000000000000000C0341000C
:10149000430043004500530022035500530042001F
:1014A0002D00410049004F00310036002D00310071
:1014B00036004100000000000000000080818283AF
:1014C000848586879091929394959697A0A1A2A3E4
:1014D000A4A5A6A7B0B1B2B3B4B5B6B7C0D0C0E0AA
:1014E000EF9014BC939014F3F0ED9014BC9390140F
:1014F000F5F0A2009200D0E0D0D022C0D0C0E0EF42
:101500009014BC93901512F0ED9014BC93901515A7
:0B151000F0A200B39200D0E0D0D02287
:102780005553422D41494F005553422D4149003187
:10279000362D0031322D0031360036340033320010
:1027A000393600313238003000410045007A0000EF
:1027B0000000000000000000000000000000000019
:0127C0000018
:10171A00C11002650000016700016BFF0168FEC18C
:03172A0013C111D7
:04004E0043800222C7
:042DC0005380FD221D
:042DC4006380022204
:1026F700EF5407FE7401A806088002C333D8FCFE16
:10270700EF131313541FFFED6013EF1460080470E9
:10271700239040158003904016E04EF022EF14609E
:10272700080470109040158003904016E0FFEEF407
:05273700FEEF5EF02240
:10294100EF54F824F8600B2408700C904015E0FE59
:102951008005904016E0FEEF5407FF7401A80708B8
:102961008002C333D8FC5206EE60047F0180027FEF
:02297100002242
:102D5400904015E0120F40904016E0900001020FE1
:012D6400521C
:102C6400120EFA903073F0904015F0900001120F9C
:0A2C740013903074F0904016F02227
:10235A00E4FF745D2FF582E43430F583E4F00FBFB7
:10236A0015F0E4903072F0A374FFF0A3F0E490301B
:10237A0081F0A3F0A3F0A3F0FFEF25E025E0247697
:10238A00F582E43430F583E4F0EFC4333354C044C7
:10239A0032FEEF25E025E02475F582E43430F5833A
:0723AA00EEF00FBF02D32289
:10224C0043B202E4FF745D2FF582E43430F583E091
:10225C00FEE42FF582E43440F583EEF00FBF14E575
:10226C00903071E090401DF0903072E0904014F08E
:10227C00903073E0904015F0903074E0904016F080
:10228C00903082E0FD903081E0FBE4FF12245A9004
:0D229C003084E0FBFD7F0112245A022D9FCB
:1028000090401C7401F0E4F0301B16904011F090E1
:10281000E67174FFF0F5B490E6727480F075B6FF5F
:102820002290306EE0904011F0E490E671F0F5B443
:0728300090E672F0F5B622FC
:102625007531038562828561837430F0A3E4F0859A
:102635006282856183A3A37403F0AB62AA61AD31A5
:102645007F0E122C2D8562828561837438F0A3E498
:10265500F0856282856183A3A304F0AB62AA61ADB4
:06266500317F0E022C2D56
:10245A008F378D388B397D03E537540144188562EF
:10246A0082856183F0A3E538F0856282856183A362
:10247A00A3E539F0AB62AA617F0E122C2DE5375421
:10248A0001FF25E02481F582E43430F583E539F053
:10249A00EF25E02482F582E43430F583E538F02232
:10266B0090E604E0FF430780000000EFF00000005D
:10267B007406F00000007402F090E6997480F0008C
:10268B000000F0000000F0000000F0000000E490FB
:10269B00E68AF090E68B04F090E604E0FF53077FA8
:0626AB00000000EFF02228
:10162300D21B122800E490E671F090E672F075B3D5
:10163300FF75B4FF75B5FF75B6FF90401004F0E475
:10164300FEFD7801AF06EF08800103D8FDF5B18EEA
:10165300B08DA08D9090401BEDF00DED70E40EEE7B
:1016630070E09040107405F0E4FEFD7801AF06EFE2
:1016730008800103D8FDF5B18EB08DA08D90904008
:101683001BEDF00DED70E40EEE70E0F5B3F5B5FE75
:10169300FDFC7801AF06EF08800103D8FDF5B18D9D
:1016A300A090401C7401F0AF90ABB0E4F0EFB5052F
:1016B30004EB6E6047756801EC540FFA25E025E0F2
:1016C3002440F582E434E7F583EDF0EA25E025E0F4
:1016D3002441F582E434E7F583EEF0EA25E025E0E2
:1016E3002442F582E434E7F583EFF0EA25E025E0D0
:1016F3002443F582E434E7F583EBF00C0DED7092AF
:101703000EEE708EE568B4FE03E4F568C21B122882
:0717130000904010E4F022F9
:101E23009040117404F0A374F0F0A37401F0E490F3
:101E3300E6CEF000000090E6CFF000000090E6D080
:101E4300F000000090E6D17410F000000075BB06AE
:101E5300000000904019E4F0122B1EE4FDFCED2578
:101E6300E0FFEC33FE74022FF58274F83EF583E055
:101E7300FB74402FF58274E73EF583EBF074032F78
:101E8300F58274F83EF583E0FB74412FF58274E725
:101E93003EF583EBF00DBD00010CED64104C70BEFC
:0F1EA30090E6B0E090E740F090E68B7420F022DC
:102AE30090401374AAF0E064AA70197455F0E0647E
:102AF300557011744FF0E0B44F0A7449F0E0B449D3
:072B0300037F00227F012285
:101A3F00122AE3EF14602E046003021AE67AE779A4
:101A4F00407F40AB077D027F027E001224B290E7F9
:101A5F0041E0541FF54190E740E0B401047F8080DE
:101A6F00737F00806F7AE779407F40AB077D027FFD
:101A7F00F67E1D1224B290E740E0F540A3E0F54258
:101A8F00AF407802EF08800123D8FDF540AF4278D0
:101A9F0002EF08800123D8FDF5427AE779407F40B5
:101AAF00AB077D027F037E001224B290E740E0FF78
:101ABF00A3E0FEEFB54005EE654260057541048079
:101ACF001690E740E0541FF541A3E0B401047F8076
:0A1ADF0080027F00EF4241AF412278
:0B003600900FAFE0F520A3E0F52122C1
:0B2D7400900FAFE520F0A3E521F02256
:10117000EFB41000400302120E901180F82828737B
:101180000211B00211B60211BC0211C20211C80252
:1011900011CE0211D40211DA0211E00211E602119D
:1011A000EC0211F20211F80211FE02120402120AFC
:1011B000A20092128058A20192128052A2029212B0
:1011C000804CA20392128046A20492128040A20593
:1011D0009212803AA20692128034A2079212802EB6
:1011E000A20892128028A20992128022A20A9212C8
:1011F000801CA20B92128016A20C92128010A20DDB
:101200009212800AA20E92128004A20F9212301C37
:1012100002B212EDB4100040030212A2901223F8A1
:1012200028287302125302125802125D021262023F
:10123000126702126C02127102127602127B021203
:101240008002128502128A02128F021294021299EF
:1012500002129EA212920022A212920122A21292C5
:101260000222A212920322A212920422A212920538
:1012700022A212920622A212920722A212920822FF
:10128000A212920922A212920A22A212920B22A266
:1012900012920C22A212920D22A212920E22A212DD
:0312A000920F2288
:101AE900122941EF24FF9212301A02B212AF05A255
:071AF90012E433FD0226F7A1
:10254600E490309BF0A374FFF0A3F0E49030ABF07E
:102556009030AAF09030ADF09030ACF0FFEF25E06F
:1025660025E0249FF582E43430F583E4F0EFC433AC
:102576003354C04432FEEF25E025E0249EF582E484
:0B2586003430F583EEF00FBF02D322CB
:101BB8009030ABE0FD9030AAE0FBE4FF12245A908D
:101BC80030ADE0FD9030ACE0FB7F0112245A90303C
:101BD8009BE0904014F090309CE0904015F09030DD
:101BE8009DE0904016F0E4F52BE52B25E025E02458
:101BF8009FF582E43430F583E0603BE52B25E02552
:101C0800E0249EF582E43430F583E0FDE52B25E001
:101C180025E024A0F582E43430F583E0FBE52B25AC
:101C2800E025E024A1F582E43430F583E0F53FE4D3
:101C3800FF1221EE8016E52B25E025E0249EF58293
:101C4800E43430F583E0FDE4FF122B2F052BE52B60
:061C5800C3940240942237
:0800030090401AEDF00223B158
:01002A0022B3
:100C2500782E7C007D007BFF7A2779AF7E007F12CE
:100C3500120ED490E601E054FEF090E61074A0F098
:100C450090E611F000000090E612F0000000E4903C
:100C5500E613F000000090E61474E0F0000000E4F4
:100C650090E615F090E6047480F00000007402F040
:100C75000000007406F0000000E4F000000090E6BB
:100C850018F00000007411F000000090E61A7409D5
:100C9500F0000000121A3F8F6BE56B30E7047F818F
:100CA50080027F8090140BEFF0000000E56B541F6D
:100CB500FF444090140AF0EFD394044003D380011D
:100CC500C39211EF75F00584F52CEF75F005848559
:100CD500F02BE52B6003B40203D38001C39213E527
:100CE5006B30E70B7543FF754427754580800975A3
:100CF50043FF7544277545887B007A00792E1223BA
:100D050002E52BC394027BFF50067A27798F800476
:100D15007A2779938B438A4489457B007A00792E1B
:100D2500122302E52C14602714603E1460461460FB
:100D35004E1460562405706C7543FF754427754540
:100D4500977B007A00792E122302852B2D806775FB
:100D550043FF75442775459A7B007A00792E122347
:100D650002E52B2408F52D804D7543FF7544277545
:100D7500459D801F7543FF75442775459A801475F9
:100D850043FF7544277545A080097543FF754427C2
:100D95007545A37B007A00792E122302E52B2410DA
:100DA500F52D80127543FF7544277545A77B007A9D
:100DB50000792E122302E52B14600F14600E1460C7
:100DC500331460062404701A8002800B7543FF7586
:100DD50044277545A980147543FF7544277545ABB0
:100DE50080097543FF7544277545AD7B007A007909
:0F0DF5002E1223027B007A00792EAD2D0200030F
:102ABB0012162343AF011218CBC21B12280090E64B
:102ACB00C37480F000000090E6C214F00000009088
:082ADB00E6E27402F002262578
:01005200228B
:10290E00E5BB30E72D00000090E6AFE0FE90E6B0AC
:10291E00E07C002400F566EC3EF565D3E566940098
:10292E00E5659400400CE5659402500690E6487407
:03293E0006F0227E
:10005600E4F52DF52ED2181207965003020471907E
:10006600E6B9E0120F80009D1200E03500DA380193
:10007600E2910397A20397A303CFB301DCB6039DD6
:10008600B701FABA0214BB02F2BC00E6BE0173BFA6
:100096000144D20000046DE490E68AF090E6BEE0EA
:1000A60090E68BF090E6A0E020E1F990E742E0547C
:1000B60003903072F0904014F090E740E090307377
:1000C600F0904015F090E741E0903074F0904016C3
:1000D600F002047190E6F574FFF012266B020471CB
:1000E600E490E68AF090E6BEE090E68BF090E6A01B
:1000F600E020E1F9E4F52BF52CAF2C74402FF582C6
:10010600E434E7F583E0FE745D2FF582E43430F5E0
:1001160083EEF0FEE4252CF5827440352BF583EE54
:10012600F0052CE52C7002052B6414452B70CA9043
:10013600E754E0903071F090401DF0020471E4F550
:100146002BF52CAF2C745D2FF582E43430F583E06B
:10015600FE74402FF582E434E7F583EEF0052CE5D6
:100166002C7002052B6415452B70D8807D90E6BE59
:10017600E064047041904019F00530E530700205E6
:100186002F904017E090E740F0904018E090E7414C
:10019600F0904019E4F00530E5307002052F9040EC
:1001A60017E090E742F0904018E090E743F090E6C1
:1001B6008B74040203B0904019E4F0122B1E904099
:1001C60017E090E740F0904018E090E741F090E6A5
:1001D6008B74020203B0121E2302047190E740E5FD
:1001E60068F090E6BFE090E68AF090E6BEE090E622
:1001F6008B0203B03013047FBB8002AF6B90E740E5
:10020600EFF0E490E68AF090E68B040203B0201348
:10021600030202DDD21B12280090E74074BBF09067
:10022600E6BBE0C313FFE5B154802FF5B1E090E6DD
:10023600C4F090E6BAE090E6C5F090E6C4E0700936
:1002460090E6C5E07003122DC090E6BDE0FE90E694
:10025600BCE07C002400F56AEC3EF569E56A456978
:10026600606EE5BB30E7F5E5AB20E1F0D3E56A94D7
:1002760000E5699402401890E6D07402F000000090
:10028600E490E6D1F0000000756302F5648017E59E
:100296006990E6D0F0000000E56A90E6D1F0000033
:1002A60000856963F564E4F5BB000000E5BB30E753
:1002B600FB000000C3E56A9564F56AE5699563F598
:1002C60069E5B1547F04FFE5B154802FF5B1808C08
:1002D600C21B122800800690E740E56BF0E490E62A
:1002E6008AF090E6BEE090E68B0203B090E6B8E0B6
:1002F60030E74890E740E5BBF0A3E5ACF090E6B008
:10030600E090E742F090E6AFE090E743F090E6D168
:10031600E090E744F090E6D0E090E745F090E6CF35
:10032600E090E746F090E6CEE090E747F0E490E60E
:100336008AF090E6BEE090E68B806FE5AC5401FF54
:10034600E5BB54804F90E740F0E030E736E020E030
:100356003290E6BBE090E6CEF000000090E6BAE010
:1003660090E6CFF000000090E6BDE090E6D0F00009
:10037600000090E6BCE090E6D1F000000075BB06F8
:10038600000000E490E68AF090E6BEE090E68B80FE
:1003960019120FD202047190E6B8E030E717E49024
:1003A600E68AF090E6BEE090E68BF090E6A0E044A8
:1003B60080F002047190E6BEE090E68BF090401E5D
:1003C6007480F012262502047190E6BEE0701AE0F1
:1003D60090E68BF090E6BCE0FF90E6BBE0FD90E691
:1003E600BAE0FB12245A02047190E6BEE064117072
:1003F6006C90E68AF090E6BEE090E68BF090E6A080
:10040600E020E1F9E4F52BF52C90E740E0F52FE547
:100416002F6058C3E52C9402E52B9400504DE52F30
:1004260030E02AAF2CC007E52C25E0FFE52B33FE94
:1004360074422FF58274E73EF583E0FD74412FF593
:100446008274E73EF583E0FBD00712245A052CE5BB
:100456002C7002052BE52FC313F52F80B290E6BE54
:0D046600E090E68BF08004C218D322C32280
:10172D00608030AF013F010101010107000302029A
:10173D0002020200F5F7F7F7F7F7F7F700000000E0
:10174D000000003F013F01010101010702050000FA
:10175D0000000000F6F7F7F7F7F7F7F700000000C5
:10176D000000003F011301210139010700010001B3
:10177D00000B0200F7F7F3F7F5F7F7F7003600F077
:10178D00002D003F010138010101010702020D008A
:10179D0000000000F2F7F7F7F7F7F7F700002D005C
:1017AD000000003F60243136000000000000000002
:1017BD00000000000000000000000000000000001C
:1017CD0000000000000000000000000047312FE085
:0617DD008000F7AA4E0097
:1018CB0090E60174AAF090E6F574FFF090312FE0EA
:1018DB0090E6F3F0903130E090E6C3F0903131E0D8
:1018EB0090E6C1F0903132E090E6C2F0903134E0F6
:1018FB0090E6C0F0903135E090E6F4F075AF0774E8
:10190B0030F59A74AFF59B759DE4E4F59EFF90E678
:10191B007BE090E67CF00FBF80F490E67174FFF0F3
:10192B00F5B490E672E04480F043B680000000E42A
:10193B0090E6C4F000000090E6C5F0903136E090E0
:10194B00E6C6F0903137E090E6C7F0903138E09082
:10195B00E6C8F0903139E090E6C9F090313AE0906A
:10196B00E6CAF090313BE090E6CBF090313CE09052
:0C197B00E6CCF090313DE090E6CDF0228B
:05002E000000000000CD
:1017E3000261002F0254002E024A0000015201013F
:0517F3004D01014C0155
:1021EE008B3EAC07A905E9C413135403FD75F00823
:1021FE00ECA42403F582E5F03450F583E9F0EC7598
:10220E00F008A4FFED7A002FFFEA35F0FEE42FF57B
:10221E008274503EF583E53EF0E42FF58274503E15
:10222E00F583E53FF0AF047E007C00AB01E53E7523
:0E223E004600F547E53F754800F549021C5E75
:102B2F00AB05EBC413135403FD75F008EFA4240396
:102B3F00F582E5F03450F583EBF07E007C007A00EF
:032B4F000222A9B6
:1024FA008D36AC07A903E536C413135403FDEC75F6
:10250A00F008A4FFED7A002FFFEA35F0FEE42FF57C
:10251A008274503EF583E9F0E42FF58274503EF55B
:10252A0083E538F0AF047E007C00AB36E9754600DF
:0C253A00F547E538754800F549021C5EC5
:101FC900A9077401A805088002C333D8FC25E04499
:101FD900C0FF75F008E9A42403F582E5F03450F553
:101FE90083EFF0E975F008A4FFED7583002FFFE595
:101FF9008335F0FEE42FF58274503EF583E0FC74DE
:10200900422BF582E434E7F583ECF0E42FF5827492
:10201900503EF583E0FF74402BF582E434E7F58305
:10202900EFF0E975F008A47C002DFFEC35F0FEE433
:102039002FF58274503EF583E0FF74412BF582E45D
:0720490034E7F583EFF022FC
:101987008B378A388939E4F53BE4F53AE53B75F05E
:101997000CA4AB372539F9E53835F0FAE53A75F097
:1019A70004A429F9EA35F0FA900001120F13604DEB
:1019B700AA38A93975F00CE53BA4F58285F0837543
:1019C700F004E53A120F74120F13FCE53B75F00CA7
:1019D700A429F9EA35F0FAE53A75F004A429F9EAF9
:1019E70035F0FA900002120F13FD900003120F1347
:1019F700F53FAB05AD04AF3B1221EE8022AB37AA12
:101A070038A93975F00CE53BA4F58285F08375F0AC
:101A170004E53A120F74120F13FDAF3B122B2F057B
:101A27003AE53AC394025003021993053BE53BC3D9
:081A37009401500302199022F2
:102D1D00903003E07006903002E06003022BF31256
:032D2D000046223B
:102B75007E007FAF7D007B017A307900120FA69031
:102B850030007409F0E4A3F012235A12224C022CEF
:012B9500C679
:10000E007D021224AA903000E0B40904A3E060033C
:0C001E00022B757DAF1224AA12224C2286
:102CC6007A307B007DAF7F017E1F1228A57DAF7F06
:062CD600007E1F022DD458
:10205000122D1D90E6BEE0F538753A02E53860575E
:10206000C3944050058538398003753940E490E6C3
:102070008AF090E68BE539F090E6A0E020E1F9E403
:10208000F537E537C39539502574402537F582E497
:1020900034E7F583E0FFAE3A053AEE7C007B01249D
:1020A00000F9EC3430FAEF120F40053780D4C3E565
:0A20B000389539F53880A5022D1D82
:092D9F007B017A30797502198775
:101C5E008E408F418C428D438A448B45E543AE4284
:101C6E007802C333CE33CED8F9FF90307675F00CB0
:101C7E00E541120F74E54075F00CA42583F583E55C
:101C8E00822FF582E5833EF5837401F090307775EF
:101C9E00F00CE541120F74E54075F00CA42583F5A8
:101CAE0083E5822FF582E5833EF583E547F090309C
:101CBE007875F00CE541120F74E54075F00CA42513
:101CCE0083F583E5822FF582E5833EF583E549F0C2
:101CDE0090307575F00CE541120F74E54075F00CFF
:101CEE00A42583F583E5822FF582E5833EF583E512
:031CFE0045F0228C
:1022A9008E3C8F3D8C3E8D3FE53FAE3E7802C33379
:1022B900CE33CED8F9FF90307675F00CE53D120F8C
:1022C90074E53C75F00CA42583F583E5822FF5822E
:1022D900E5833EF583E4F090307575F00CE53D1229
:1022E9000F74E53C75F00CA42583F583E5822FF581
:0922F90082E5833EF583EBF0223F
:0F2D6500D3E50C9550E50B954F4003122D7F22BF
:012DDF0022D1
:102B5200903005E0FE903004E07C002400F550EC5B
:102B62003EF54F45507007C28CC2A9C21922D28CC1
:032B7200D2A922C3
:012DE00022D0
:10273C0090E6BEE090E68BF090E6A0E020E1F9E4B4
:10274C00FF74422FF582E434E7F583E0FEEF7C0062
:10275C007B012486F9EC3430FAEE120F400FBF29BE
:10276C00E090E740E0903004F090E741E0903005D5
:04277C00F0022B52EA
:0B2D7F00121BB8E4F50BF50CD2192272
:102C7E00E4F50BF50CC28CC2A9538EF75389F143C0
:082C8E008901122DE0022B5216
:1029D700E54B454A6017E54B154B7002154A14C382
:1029E70094FFE54A648094805016022DC030181079
:1029F700754A02754BFF12004EC218E4F50BF50C31
:012A070022AC
:1012A30090E6B8E020E703021358E4F536903004E3
:1012B300E0FFAE36053674402EF582E434E7F5835D
:1012C300EFF0903005E0FFAE36053674402EF58220
:1012D300E434E7F583EFF0E4F535E535C3942950BD
:1012E300247E007B0174862535F9EE3430FA120E24
:1012F300FAFF74402536F582E434E7F583EFF00511
:1013030035053680D5AE36053674402EF582E43485
:10131300E7F583E50CF0E50BFFAE36053674402E9A
:10132300F582E434E7F583EFF0A219E433FFAE3638
:10133300053674402EF582E434E7F583EFF0C219E5
:10134300E490E68AF090E6BEE090E68BF090E6A0AB
:10135300E04480F02290E6BEE090E68BF090E6A0B9
:10136300E020E1F990E6BEE06429705AE4F536AF77
:1013730036053674402FF582E434E7F583E0903088
:1013830004F0AF36053674402FF582E434E7F58375
:10139300E0903005F0E4F535E535C3942950247425
:1013A300402536F582E434E7F583E0FFE5357C003C
:1013B3007B012486F9EC3430FAEF120F4005350532
:0713C3003680D5122B5222E7
:042DC800755201221D
:10212400122D1D90E6BEE0F538E4F53AE538605727
:10213400C3944050058538398003753940E490E6EE
:102144008AF090E68BE539F090E6A0E020E1F9E42E
:10215400F537E537C39539502574402537F582E4C2
:1021640034E7F583E0FFAE3A053AEE7C007B0124C8
:102174001BF9EC3430FAEF120F40053780D4C3E575
:08218400389539F53880A522D9
:102408001552E552704B90301BE0F552120036E43D
:10241800F52490305CE0FFE524C39F5031E5242586
:10242800E0241CF582E43430F583E0F525E5242525
:10243800E0241DF582E43430F583E0F526547FFD71
:10244800E52633921AAF25121AE9052480C4122D05
:022458007422EC
:102B960090E6BEE090E68BF090E6A0E020E1F990AA
:102BA600E740E0903006F090E741E0903007F022F1
:101F3E00154DE54D6003021FC8903006E0F54D7B50
:101F4E00017A317972122D54E4FFFE74722EF582ED
:101F5E00E43431F583E0FD745A2EF582E43431F524
:101F6E0083E06DF97D01E4FCECC394085046E95D15
:101F7E006029745C2FF582E43431F583E014F0743B
:101F8E005C2FF582E43431F583E07020745A2EF51F
:101F9E0082E43431F583E06DF08000903007E0FB91
:101FAE00745C2FF582E43431F583EBF00CED25E013
:0B1FBE00FD0F80B40EEE640270912253
:102C960090E6BEE090E68BF090E6A0E020E1F990A9
:082CA600E740E0903008F02245
:102A3700E4FF746C2FF582E43431F583E4F07470AD
:102A47002FF582E43431F58374FFF0746E2FF5822D
:0C2A5700E43431F583E4F00FBF02D72215
:10218C00154CE54C705B903008E0F54C7B017A31D6
:10219C00796C122D54E4FF74702FF582E43431F510
:1021AC0083C083C082E0FE746C2FF582E43431F579
:1021BC0083E0FDEE5DD082D083F0746E2FF582E467
:1021CC003431F583C083C082E0FE746C2FF582E459
:1021DC003431F583E0FDEE4DD082D083F00FBF0299
:0221EC00B62219
:042DCC00755101221A
:101D01001551E551603DE4F52490301AE0FFE524DA
:101D1100C39F507C74592524F8E6602316E6701F92
:101D2100E52425E0240AF582E43430F583E0FE540D
:101D31007FFFEE30E7047D0080027D011226F7056A
:101D41002480C6903009E0F551E4F52490301AE082
:101D5100FFE524C39F5039E52425E0240BF582E4F7
:101D61003430F583E0FF74592524F8A607E52425CE
:101D7100E0240AF582E43430F583E0FE547FFFEE7F
:101D810030E7047D0180027D001226F7052480BC26
:011D9100222F
:1029730090E6BEE090E68BF090E6A0E020E1F9E47B
:10298300FF74402FF582E434E7F583E0FEEF7C002B
:102993007B012409F9EC3430FAEE120F400FBF1219
:0229A300E02230
:10047300E4F53690E6B8E030E77790E6BEE0FF704B
:100483000490E68BF0BF010D90E74074AFF090E667
:100493008B7401F01FEF605190E6A0E020E1F9EFCB
:1004A300C3944050048F358003753540E4FEEEC39A
:1004B30095355023AD3605367C007B0174002DF94C
:1004C300EC3430FA120EFAFD74402EF582E434E770
:1004D300F583EDF00E80D7E490E68AF090E68BE5A5
:1004E30035F0C3EF9535FF80AC90E6A0E04480F093
:1004F3002290E6BFE0FF90E6BEE04F707790E6BD46
:10050300E0704D90E6BCE024EF6023249F6030242C
:10051300FD603324F360342472703590E6BAE064EE
:10052300CE702DA3E064AC7027122CC6802290E617
:10053300BAE0B4CE1BA3E0B4AC16122B758011E461
:1005430090301AF0800A7551018005E490305CF018
:1005530090E6BDE06480600302079590E6BCE0642A
:1005630001600302079590E6BAE0903002F090E64E
:10057300BB02062890E6BFE0600302079590E6BD44
:10058300E0FE90E6BCE07C002400FFEC3EFE60034E
:10059300020795EF120F8005CE2005CE2105CE224E
:1005A30005CE2306032F063041063E51064C530663
:1005B3006C61067A63069A7106A87306C874071DF0
:1005C300810728830745840000079590E6BEE0B4C1
:1005D300AD0312205090E6BCE030E00312224C90B1
:1005E300E6BCE020E10302079590E6BAE064CE6042
:1005F30003020795A3E064AC6003020795022CC6CF
:1006030090E6BEE064026003020795E090E68BF09B
:1006130090E6A0E020E1F9122D1D90E740E0903034
:1006230002F090E741E0903003F0022D1D90E6BE0A
:10063300E0642B600302079502273C90E6BEE0646A
:10064300026003020795022B9690E6BEE064016008
:1006530003020795E090E68BF090E6A0E020E1F935
:1006630090E740E0903006F02290E6BEE06401603F
:1006730003020795022C9690E6BEE0640160030234
:100683000795E090E68BF090E6A0E020E1F990E793
:1006930040E0903008F02290E6BEE064126003026E
:1006A300079502297390E6BEE06401600302079593
:1006B300E090E68BF090E6A0E020E1F990E740E0DF
:1006C300903009F02290E6BEE064026003020795D1
:1006D30090301AE0C39408400302079590E6BEE009
:1006E30090E68BF090E6A0E020E1F990E740E0FF90
:1006F30090301AE0FE25E02408F582E43430F583D7
:10070300EFF090E741E0FFEE25E02409F582E434C1
:1007130030F583EFF090301A807590E6BEE06442C6
:10072300707002212490E6BEE064017065E090E6FB
:100733008BF090E6A0E020E1F990E740E090301BD9
:10074300F02290E6BEE06402704890305CE0C3940F
:1007530020503F90E6BEE090E68BF090E6A0E020CC
:10076300E1F990E740E0FF90305CE0FE25E0241AD9
:10077300F582E43430F583EFF090E741E0FFEE25B6
:10078300E0241BF582E43430F583EFF090305CE035
:0307930004F0224D
:1027C100E4F52B7AE779407F40AB077D087FF87EFF
:1027D1001D1224B2E4F52B7440252BF582E434E775
:1027E100F583E0FDE52B75F002A4247AF974143524
:0F27F100F08982F583EDF0052BE52BB408D92292
:1025DC0090E600E054E7F0438E2012004612002AE9
:1025EC00122DB890E678E05410FFC4540F4450F507
:1025FC005313E433F5571227C1120C25D2141200D1
:10260C000E122D74122DC8122C7E122A37122DCCBC
:09261C00122D1D122DC0022ABB73
:102BD5001200521229D7122D65E58090E68020E07B
:0E2BE50006E04408F08004E054F7F002290EE8
:1023B1008B408A418942E4F543122D088F44E5445C
:1023C10025E02402901498F0E4F543AF44EF3395EF
:1023D100E0FEC3E5439FEE6480F87480985027AB1C
:1023E10040AA41A942854382758300120F13FDE57E
:1023F1004375F002A4249AF9741435F08982F583A7
:07240100EDF0054380C52248
:102591008E438F44AC05E4FDE5576012E543FF7EB1
:1025A100000DEE2562F582E43561F583EFF0AE05AD
:1025B1000DE5622EF582E43561F583E544F0AF0562
:1025C1000DE5622FF582E43561F583ECF0AB62AA8B
:0B25D10061AF53122C2DAF530213CA50
:032DD40002259144
:1028A5008E3D8F3E8D3F8A408B41E4F542E542C324
:1028B500953F5020053EE53EAE3D7002053D14FFB7
:1028C500E5412542F582E43540F583E0FD122DD43E
:0528D500054280D9223C
:0824AA007A307B007F017E1FE8
:1024B2008E438F448D458A468B47E4FDF548E557A8
:1024C2006012E543FF7E000DEE2562F582E4356180
:1024D200F583EFF0AE050DE5622EF582E43561F588
:1024E20083E544F0AB62AA61AF53122C2DAB47AA2D
:0824F20046AD45AF53022C1169
:100FD20090E6BAE0753500F536A3E0FEEE423590B4
:100FE200E6BEE0753700F538A3E0FEEE423790E644
:100FF200B8E064C060030210DDE5384537700302D3
:10100200116F90E6A0E020E1F9C3E5389440E5379E
:101012009400500885373985383A8006753900754D
:101022003A4090E6B9E064A3705790E6BCE0B401A0
:101032001BA3E0701790E6BBE030E71090E7407426
:1010420003F0A37401F0A37403F0806AE4F53BF5A6
:101052003CC3E53C953AE53B9539505AE536253C8B
:10106200F582E535353BF583E0FF7440253CF5829A
:10107200E434E7F583EFF0053CE53C70D4053B80B2
:10108200D0E4F53BF53CC3E53C953AE53B95395058
:10109200187440253CF582E434E7F58374CDF005FD
:1010A2003CE53C70E1053B80DDAD3A7AE77B40AF41
:1010B20036AE351224B2E490E68AF090E68BE53A39
:1010C200F02536F536E5393535F535C3E538953A47
:1010D200F538E5379539F537020FFB90E6B8E0644D
:1010E20040600302116FE5384537700302116FE467
:1010F20090E68AF090E68BF090E6A0E020E1F9908D
:10110200E68BE0753900F53A90E6B9E0B4A335E430
:10111200F53BF53CC3E53C953AE53B9539503274D5
:1011220040253CF582E434E7F583E0FFE536253CD3
:10113200F582E535353BF583EFF0053CE53C70D4AF
:10114200053B80D0AD3A7AE77B40AF36AE35122808
:10115200A5E53A2536F536E5393535F535C3E538B1
:0E116200953AF538E5379539F5370210E82251
:1017F90090E6B8E020E7030218CA74402401F58294
:10180900E434E7F5837409F074402402F582E43482
:10181900E7F583E4F074402403F582E434E7F583C3
:101829007415F074402404F582E434E7F5837401F7
:10183900F074402405F582E434E7F5837402F0740A
:10184900402406F582E434E7F5837401F0744024FA
:1018590007F582E434E7F5837402F074402408F54F
:1018690082E434E7F58374FFF074402409F582E4D7
:1018790034E7F58374FFF07440240AF582E434E711
:10188900F5837408F07440240BF582E434E7F5839A
:101899007420F07440240CF582E434E7F583740F66
:1018A900F07440240DF582E434E7F583740FF09069
:1018B900E74014F0E490E68AF090E6BEE090E68B0B
:0218C900F0220B
:0B2D8A00E550454F7003D38001C322C9
:02004100D322C8
:022DD700D32205
:082DA80090E6BAE0F556D322D3
:102D300090E740E556F0E490E68AF090E68B04F0E8
:022D4000D3229C
:082DB00090E6BAE0F54ED322D3
:102D420090E740E54EF0E490E68AF090E68B04F0DE
:022D5200D3228A
:022DD900D32203
:022DDB00D32201
:022DDD00D322FF
:1007960090E6B9E0120F8007E61007E61108141478
:1007A60008851508EF20091421092722094723087F
:1007B600B02509472707D42E07CE3C07E03F07DAC6
:1007C600A207DAA3000009FC1204730209FE121242
:1007D600A30209FE120FD20209FE1217F90209FE40
:1007E60090E6B8E030E70C7B017AE77940122D54A9
:1007F6000208A990E6BEE090E68BF090E6A0E02025
:10080600E1F97B017AE77940122C640209FEE4F5EE
:1008160032746C2532F582E43431F583E0FF74409E
:100826002532F582E434E7F583EFF00532E532B49C
:1008360002DFE4F53274702532F582E43431F58353
:10084600E0FF74422532F582E434E7F583EFF005E4
:1008560032E532B402DFE4F532746E2532F582E415
:100866003431F583E0FF74442532F582E434E7F54C
:1008760083EFF00532E532B402DF122A378024E432
:10088600F532745A2532F582E43431F583E0FF748B
:10089600402532F582E434E7F583EFF00532E532A0
:1008A600B402DFE490E68AF0805290E6BEE0B40936
:1008B600047F0180027F008F31E4FAF533E4F532DC
:1008C600E532C39403501CAF02AB33AD32121FC9DD
:1008D6000532E53160047F0380027F02EF2533F5A0
:1008E6003380DD0ABA01D6801390E6BAE0FFA3E0B2
:1008F600FEC413135403FDE4FB121FC990E6BEE0C9
:1009060090E68BF090E6A0E04480F00209FEE490C9
:10091600E68BF090E6BAE0FFA3E0FD122B2F02096A
:10092600FEE490E68BF090E6BAE0FFA3E0FEC41387
:10093600135403FDA3E0FBA3E0F5381224FA0209E1
:10094600FE90E6BEE0701590E6BAE0FFA3E0FDA3D8
:10095600E0FBA3E0F53F1221EE0209FE90E6BEE0C1
:10096600640960030209FEE090E68BF090E6A0E0E1
:1009760020E1F9E4F532E4F53475F009E532A4F541
:100986008285F08375F003E534120F74E582244006
:10099600F582E58334E7F583E0FD75F009E532A4D9
:1009A600F58285F08375F003E534120F74E5822431
:1009B60041F582E58334E7F583E0FB75F009E5321E
:1009C600A4F58285F08375F003E534120F74E58291
:1009D6002442F582E58334E7F583E0F53FAF321232
:1009E60021EE0534E534C39403408E0532E532C367
:0A09F600940140828002C322D32244
:102BB600C0E0C083C08290E6B5E04401F0D2155370
:0F2BC60091EF90E65D7401F0D082D083D0E032C1
:102CDC00C0E0C083C0825391EF90E65D7404F0D0E5
:062CEC0082D083D0E0322B
:102CF200C0E0C083C0825391EF90E65D7402F0D0D1
:062D020082D083D0E03214
:10283700C0E0C083C08290E680E030E70E85090FD4
:10284700850A10851311851412800C85130F8514C2
:1028570010850911850A125391EF90E65D7410F007
:07286700D082D083D0E032E3
:102CAE00C0E0C083C082D2175391EF90E65D7408E6
:082CBE00F0D082D083D0E03297
:10286E00C0E0C083C08290E680E030E70E85090F9D
:10287E00850A10851311851412800C85130F85148B
:10288E0010850911850A125391EF90E65D7420F0C0
:07289E00D082D083D0E032AC
:012DE10032BF
:012DE20032BE
:012DE30032BD
:012DE40032BC
:012DE50032BB
:012DE60032BA
:012DE70032B9
:012DE80032B8
:012DE90032B7
:012DEA0032B6
:012DEB0032B5
:012DEC0032B4
:012DED0032B3
:012DEE0032B2
:012DEF0032B1
:012DF00032B0
:012DF10032AF
:012DF20032AE
:012DF30032AD
:012DF40032AC
:012DF50032AB
:012DF60032AA
:012DF70032A9
:012DF80032A8
:012DF90032A7
:012DFA0032A6
:012DFB0032A5
:012DFC0032A4
:012DFD0032A3
:012DFE0032A2
:012DFF0032A1
:012E0000329F
:012E0100329E
:012E0200329D
:012E0300329C
:012E0400329B
:0A2D95000001020203030404050517
:03000B00022C497B
:102C4900C0E0C0D00508E508B43C0B050CE50C70E4
:0B2C590002050B750800D0D0D0E0325F
:101D9200E4F52AF529F528F527C217C214C216C29E
:101DA200151225DC750D14750E00751514751612B5
:101DB200750914750A1C75131475144A7517147570
:101DC2001878D2E843D82090E668E04409F090E61B
:101DD2005CE0443DF0D2AFD21B122A0890E680E0CC
:101DE20054F7F0538EF8C217301505120A00C215C7
:101DF200301729122D8A5024C217122B0A201416CA
:101E020090E682E030E704E020E1EF90E682E03005
:101E1200E604E020E0E4122A63120041122BD5808E
:011E2200C7F8
:100A000090E6B9E07003020AB1147003020B2E24C1
:100A1000FE7003020BB124FB7003020AAB147003D7
:100A2000020AA514607314607624056003020C1199
:100A3000122DD74003020C1D90E6BBE024FE60227D
:100A400014603324FD601114602224067048E50D03
:100A500090E6B3F0E50E8037E51590E6B3F0E516C5
:100A6000802DE50F90E6B3F0E5108023E51190E6C8
:100A7000B3F0E512801990E6BAE0FF122A8FAA06B9
:100A8000A9077B01EA494B600DEE90E6B3F0EF90C9
:100A9000E6B4F0020C1D020C16122D42020C1D12BF
:100AA0002DB0020C1D122DA8020C1D122D30020CAF
:100AB0001D122DD94003020C1D90E6B8E0247F6082
:100AC0001514601924027063A214E43325E0FFA218
:100AD00016E4334F8041E490E740F0803F90E6BC5D
:100AE000E0547EFF7E00E0D394807C0040047D01D2
:100AF00080027D00EC4EFEED4F2495F582742D3E74
:100B0000F583E493FF3395E0FEEF24A1FFEE34E696
:100B10008F82F583E0540190E740F0E4A3F090E683
:100B20008AF090E68B7402F0020C1D020C16122D56
:100B3000DB4003020C1D90E6B8E024FE60162402A0
:100B40006003020C1D90E6BAE0B40105C214020C69
:100B50001D020C1690E6BAE0705590E6BCE0547E9B
:100B6000FF7E00E0D394807C0040047D0180027D04
:100B700000EC4EFEED4F2495F582742D3EF583E496
:100B800093FF3395E0FEEF24A1FFEE34E68F82F56C
:100B900083E054FEF090E6BCE05480131313541F1E
:100BA000FFE0540F2F90E683F0E04420F0806E8049
:100BB00065122DDD506790E6B8E024FE601A24022D
:100BC000705B90E6BAE0B40104D214805090E6BAAB
:100BD000E0B402028047803E90E6BCE0547EFF7E97
:100BE00000E0D394807C0040047D0180027D00EC15
:100BF0004EFEED4F2495F582742D3EF583E493FF70
:100C00003395E0FEEF24A1FFEE34E68F82F583807A
:100C100008120056500790E6A0E04401F090E6A0CC
:050C2000E04480F02219
:03003300022DD0CB
:042DD00053D8EF32B3
:102BF300903003E0FFF5CB8FCD903002E0FFF5CAB4
:0E2C03008FCCE4F5C8D2BDD2AFD2ADD2CA227A
:05004600C2CAC2AD2298
:03002B000220BAF6
:1020BA00C0E0C0F0C083C082C0D075D000C000C0EC
:1020CA0001C002C003C004C005C006C007122DC467
:1020DA00903006E06003121F3E903008E060031261
:1020EA00218C90301AE06003121D0190305CE06090
:1020FA000990301BE06003122408122DC4C2CFD00D
:10210A0007D006D005D004D003D002D001D000D029
:0A211A00D0D082D083D0F0D0E032A4
:102A630090E682E030E004E020E60B90E682E0307E
:102A7300E119E030E71590E680E04401F07F147E31
:0C2A8300001226B190E680E054FEF02224
:102B0A0090E682E044C0F090E681F043870100003D
:042B1A000000002295
:102A0800301B0990E680E0440AF0800790E680E0F9
:102A18004408F07FDC7E051226B190E65D74FFF075
:0F2A280090E65FF05391EF90E680E054F7F022D4
:102B1E007400F58690FDA57C05A3E582458370F9CA
:012B2E002284
:082DB800E4F51ED2E9D2AF22BE
:1013CA0090E678E020E6F9C2E990E678E04480F019
:1013DA00EF25E090E679F090E678E030E0F990E6E3
:1013EA0078E04440F090E678E020E6F990E678E08C
:0613FA0030E1D6D2E92229
:1029A500A90790E678E020E6F9E51E702390E67821
:1029B500E04480F0E925E090E679F08D19AF03A9B0
:1029C50007751A018A1B891CE4F51D751E01D322A2
:0229D500C3221B
:1028DA00A90790E678E020E6F9E51E702590E678EB
:1028EA00E04480F0E925E0440190E679F08D19AFE3
:1028FA0003A907751A018A1B891CE4F51D751E03B5
:04290A00D322C322EF
:03004B0002151B80
:10151B00C0E0C083C082C085C084C086758600C011
:10152B00D075D000C000C001C002C003C006C00708
:10153B0090E678E030E206751E0602160590E67816
:10154B00E020E10CE51E64026006751E070216051D
:10155B00E51E24FE605F14603624FE70030215F650
:10156B0024FC700302160224086003021605AB1A52
:10157B00AA1BA91CAF1D051D8F82758300120F13AB
:10158B0090E679F0E51D65197070751E05806B90FE
:10159B00E679E0AB1AAA1BA91CAE1D8E82758300DF
:1015AB00120F52751E02E5196401704E90E678E039
:1015BB004420F08045E51924FEB51D0790E678E040
:1015CB004420F0E51914B51D0A90E678E04440F08C
:1015DB00751E0090E679E0AB1AAA1BA91CAE1D8EF6
:1015EB0082758300120F52051D800F90E678E04440
:1015FB0040F0751E008003751E005391DFD007D09D
:10160B0006D003D002D001D000D0D0D086D084D069
:08161B0085D082D083D0E032BB
:022A8F00A90795
:102A9100AE17AF188F828E83A3E064037017AD0168
:102AA10019ED7001228F828E83E07C002FFDEC3EB8
:092AB100FEAF0580DF7E007F000E
:012ABA0022F9
:102C11001228DAE51E24FA600E146006240770F308
:0C2C2100D322E4F51ED322E4F51ED322DA
:102C2D001229A5E51E24FA600E146006240770F320
:0C2C3D00D322E4F51ED322E4F51ED322BE
:1026B1008E2B8F2C90E600E054187012E52C24012B
:1026C100FFE4352BC313F52BEF13F52C801590E6A2
:1026D10000E05418FFBF100BE52C25E0F52CE52B8D
:1026E10033F52BE52C152CAE2B7002152B4E600506
:0626F100122B1E80EE22F8
:03004300021B009D
:03005300021B008D
:101B0000022BB600022CF200022CDC00022CAE00EC
:101B10000228370002286E00022DE100022DE200AB
:101B2000022DE300022DE400022DE500022DE60067
:101B3000022DE700022DE800022DE900022DEA0047
:101B4000022DEB00022DE200022DEC00022DED0033
:101B5000022DEE00022DEF00022DF000022DF1000B
:101B6000022DF200022DE200022DE200022DE20021
:101B7000022DF300022DF400022DF500022DF600D7
:101B8000022DF700022DF800022DF900022DFA00B7
:101B9000022DFB00022DFC00022DFD00022DFE0097
:101BA000022DFF00022E0000022E0100022E020074
:081BB000022E0300022E0400C6
:03000000021EB22B
:0C1EB200787FE4F6D8FD75816C021EF903
:100E0400E709F608DFFA8046E709F208DFFA803ED0
:100E140088828C83E709F0A3DFFA8032E309F608BD
:100E2400DFFA8078E309F208DFFA807088828C8325
:100E3400E309F0A3DFFA806489828A83E0A3F608D9
:100E4400DFFA805889828A83E0A3F208DFFA804CB3
:100E540080D280FA80C680D4806980F2803380108A
:100E640080A680EA809A80A880DA80E280CA8033F3
:100E740089828A83ECFAE493A3C8C582C8CCC5836B
:100E8400CCF0A3C8C582C8CCC583CCDFE9DEE7803B
:100E94000D89828A83E493A3F608DFF9ECFAA9F0BA
:100EA400EDFB2289828A83ECFAE0A3C8C582C8CC10
:100EB400C583CCF0A3C8C582C8CCC583CCDFEADE29
:100EC400E880DB89828A83E493A3F208DFF980CC8B
:100ED40088F0EF60010E4E60C388F0ED2402B40484
:100EE4000050B9F582EB2402B4040050AF2323452B
:060EF4008223900E5473EE
:100EFA00BB010689828A83E0225002E722BBFE02F6
:090F0A00E32289828A83E4932228
:100F1300BB010CE58229F582E5833AF583E0225093
:100F230006E92582F8E622BBFE06E92582F8E222DD
:0D0F3300E58229F582E5833AF583E49322F7
:100F4000BB010689828A83F0225002F722BBFE0190
:020F5000F3228A
:100F5200F8BB010DE58229F582E5833AF583E8F0D5
:100F6200225006E92582C8F622BBFE05E92582C881
:020F7200F22269
:0C0F7400A42582F582E5F03583F5832288
:100F8000D083D082F8E4937012740193700DA3A300
:100F900093F8740193F5828883E473740293686014
:060FA000EFA3A3A380DF14
:102302008B408A4189428B468A478948AB400542C5
:10231200E542AA417002054114F9120EFA70ED74F9
:10232200FF2542F54274FF3541F541AB430545E5D2
:1023320045AA447002054414F9120EFAFFAB400597
:1023420042E542AA417002054114F9EF120F4070B2
:08235200DAAB46AA47A94822B4
:102D0800E4FFFE120EFA600C0FEF70010E09E97075
:052D1800F20A80EF2229
:100FA600EF4E6012EF60010EEDBB010B89828A8362
:100FB600F0A3DFFCDEFA2289F05007F709DFFCA96F
:0C0FC600F022BBFEFCF309DFFCA9F022C6
:101EBE00021D92E493A3F8E493A34003F68001F28B
:101ECE0008DFF48029E493A3F85407240CC8C33325
:101EDE00C4540F4420C8834004F456800146F6DFF4
:101EEE00E4800B010204081020408090171AE47E53
:101EFE00019360BCA3FF543F30E509541FFEE493E9
:101F0E00A360010ECF54C025E060A840B8E493A3AF
:101F1E00FAE493A3F8E493A3C8C582C8CAC583CADA
:101F2E00F0A3C8C582C8CAC583CADFE9DEE780BE92
:0117F80000F0
:00000001FF
