:1018000012010002000000400516408000000102A5
:1018100000010A06000200000040010009022E003B
:1018200001010080320904000004FF0000000705E8
:1018300002020002000705040200020007058602FA
:101840000002000705880200020009022E000101C3
:101850000080320904000004FF00000007050202B6
:101860004000000705040240000007058602400012
:101870000007058802400000040309040C0341002E
:101880004300430045005300240355005300420029
:101890002D0041004900310036002D003100360096
:0E18A0004100000000000000000000000000F9
:100E4C005553422D414931362D31364100555342CF
:100E5C002D414931362D313645005553422D4149EE
:100E6C0031322D313641005553422D414931322D0D
:100E7C003136005553422D414931322D3136450022
:100E8C005553422D414931362D36344D4100555381
:100E9C00422D414931362D36344D45005553422DA6
:100EAC00414931322D36344D41005553422D414983
:100EBC0031322D36344D005553422D414931322DAE
:100ECC0036344D45005553422D414931362D333280
:100EDC0041005553422D414931362D333245005591
:100EEC0053422D414931322D333241005553422D5D
:100EFC00414931322D3332005553422D4149313263
:100F0C002D333245005553422D414931362D36345F
:100F1C0041005553422D414931362D36344500554B
:100F2C0053422D414931322D363441005553422D17
:100F3C00414931322D3634005553422D414931321D
:100F4C002D363445005553422D414931362D393615
:100F5C0041005553422D414931362D393645005506
:100F6C0053422D414931322D393641005553422DD2
:100F7C00414931322D3936005553422D41493132D8
:100F8C002D393645005553422D414931362D3132DC
:100F9C003841005553422D414931362D31323845B7
:100FAC00005553422D414931322D313238410055D3
:100FBC0053422D414931322D313238005553422D97
:100FCC00414931322D31323845005553422D41497A
:070FDC002D4F54484552005F
:100B1400014400C103C10202410000422957000000
:100B24004129560002460000014300014BFF0145E4
:0F0B3400FE016400014E00C10102160000C10065
:1012360090E6BAE075F008A4FFA3E07C002FFFEC6F
:1012460035F0FEE42FF58274503EF58322E490E6F5
:101256008AF090E6BEE090E68B22E490E68BF09072
:10126600E6BBE0FF90E6BAE075F008905003121373
:10127600F2EF2290E740F0E490E68AF090E68B22C7
:10128600904017E090E740F0904018E090E741F07A
:1012960022AD387AE779407F40AB07227440253A81
:1012A600F582E434E7F583222534F534E537353322
:1012B600F533C3E5369538F536E5359537F53522F8
:1012C6007586005391EF90E65D225403FB90E6BAD3
:1012D600E075F008A422C3E53A9538E5399537223A
:1012E60090E671F0F5B490E67222E534253AF5827F
:1012F600E5333539F58322F582E43429F5832285F1
:101306000D82850C83A37402F022850F82850E83DD
:10131600A37407F022E490E671F090E672F022F0F2
:10132600EA25E025E022E0FD90E6BBE0C4131322A7
:0713360090E604E0F532220D
:041EF2004380022205
:041EF6005380FD22F6
:041EFA0063800222DD
:101A740030033090401C7401F0E4F030081704F097
:101A8400E4F0904011F090E67174FF1212E9748052
:101A9400F075B6FF22904011E560F012131BF5B407
:101AA400F5B62290E671300818E518F08519B4905F
:101AB400E672E0547F451AF0E5B6547F451BF5B64F
:101AC40022E0F51885B41990E672E05480F51AE521
:101AD400B65480F51BD201E41212E6E0547FF053B1
:031AE400B67F22A8
:1018AE0012131B75B3FF75B4FF75B5FF75B6FFFE4A
:1018BE00FD7801AF06EF08800103D8FDF5B18EB0BB
:1018CE008DA08D9090401BEDF00DED70E40EEE703E
:1018DE00E0F5B3F5B5FEFDFC7801AF06EF0880012B
:1018EE0003D8FDF5B18DA090401C7401F0AF90AB04
:1018FE00B0E4F0EFB50504EB6E603A754501EC54BB
:10190E000FFA25E025E024401212A6EE121325242C
:10191E0041F582E434E7F583ED1213252442F58276
:10192E00E434E7F583EB1213252443F582E434E720
:10193E00F583EFF00C0DED709F0EEE709BE545B448
:0B194E00FE03E4F545E4F5B4F5B62215
:101959009040117404F0A374F0F0A37401F0E490C2
:10196900E6CEF000000090E6CFF000000090E6D04F
:10197900F000000090E6D17410F000000075BB067D
:10198900000000904019E4F0121DD8E4FDFCED259B
:10199900E0FFEC33FE74022FF58274F83EF583E024
:1019A900FB74402FF58274E73EF583EBF074032F47
:1019B900F58274F83EF583E0FB74412FF58274E7F4
:1019C9003EF583EBF00DBD00010CED64104C70BECB
:0F19D90090E6B0E090E740F090E68B7420F022AB
:10169F008B338A348935E4F536121EBB8F37E53725
:1016AF0025E02402901888F0E4F536AF37EF339534
:1016BF00E0FEC3E5369FEE6480F87480985027AB48
:1016CF0033AA34A93585368275830012133DFDE5A3
:1016DF003675F002A4248AF9741835F08982F583DF
:0716EF00EDF0053680C52275
:1006C800E4F5321212E6F0F5B690E601E054FEF0D9
:1006D800121EEA90E678E05410FFC4540F4450F517
:1006E8004013E433F54D90E61074A0F090E611F055
:1006F80000000090E612F0000000E490E613F0001D
:10070800000090E61474E0F0000000E490E615F0B4
:1007180090E6047480F00000007402F00000007499
:1007280006F0000000E4F000000090E618F0000079
:10073800007411F000000090E61A7409F00000003F
:1007480090401FE4F090401AF09040107403F0902D
:100758004019E4F0121DD890401EE054FE6003C317
:100768008001D39203121286904010E4F090401C4E
:1007780004F0E4F0754B0190401374AAF0E064AA09
:1007880070187455F0E0B45511744FF0E0B44F0A86
:100798007449F0E0B44903E4F54BE54B14601104E7
:1007A800704F1212997D017F037E001217B88039AD
:1007B8001212997D027FF67E1D1217B890E740E06D
:1007C800F532A3E0F54BE5323392E03392E0F532AF
:1007D8001212997D017F037E001217B890E740E05E
:1007E80065326005754B04800890E740E0541FF5BA
:1007F8004BE54B444090180AF0E4F564F54EE54BA0
:10080800541F1213FE086B00087C01088702089623
:100818000308A20408B20508BE0608CA0708D608D5
:1008280008E20908EE0A08FA0B09060C09120D0974
:100838001E0E092A0F093610094211094E12095ACB
:1008480013096614097115097C1609871709921886
:10085800099D1909A81A09B31B09C21C09D31D004F
:100868000009E77A0E794C120A96E4F0756401F5EE
:100878004E0209F07A0E7959120A96740180187A94
:100888000E7966120A9F7402F075640180167A0E5A
:100898007973120A9F7403F0800A7A0E797F120A1C
:1008A800A87404F0E4F54E0209F07A0E798C120A65
:1008B800A874080209BC7A0E799A120AB17409025E
:1008C80009D07A0E79A8120AB1740A0209BC7A0E04
:0C08D80079B6120ABA740B0209D07A0E2D
:1008E40079C3120ABA740C0209D07A0E79D1120AA9
:1008F400C374100209BC7A0E79DE120AC3741102A1
:1009040009D07A0E79EB120ACC74120209BC7A0E61
:1009140079F8120ACC74130209D07A0F7904120AF6
:10092400D574140209D07A0F7911120AD574100201
:1009340009BC7A0F791E120ADE74110209D07A0FEB
:10094400792B120ADE74120209BC7A0F7938120A62
:10095400E774130209D07A0F7944120AE774140277
:1009640009D07A0F7951120AF07410804B7A0F79FA
:100974005E120AF0741180547A0F796B120AF974BA
:100984001280357A0F7978120AF97413803E7A0F3F
:100994007984120B02741480337A0F7991120B024A
:1009A400741080147A0F799F120B0B7411801D7AC6
:1009B4000F79AD120B0B7412F075640180207BFF6C
:1009C4007A0F79BB12169F90401A7413F0800F7B34
:1009D400FF7A0F79C812169F90401A7414F0754E5E
:1009E4000180097BFF7A0F79D612169F1218AE4345
:1009F400AF0130031612152790E6C37480F090E619
:100A0400C214F090E6E27402F080061215E343B6D5
:100A14007FC208121A7443B202D204E4F54F904024
:100A240000F0F550A3F0F551A3F0F552A3F0F553FF
:100A3400A3F0F554A3F0F555A3F0F556A3F0F5573C
:100A4400A3F0F558A3F0F559A3F0F55AA3F0F55B1C
:100A5400A3F0F55CA3F0F55DA3F0F55EA3F0F55FFC
:100A6400A3F0756005A37405F07561F0A374F0F04C
:100A7400E4F562A3F0E54EB401072003047F02808D
:100A8400027F00904014EFF090401DE4F0F5630203
:100A94001EF67BFF12169F90401A227BFF12169FB0
:090AA40090401A227BFF12169FFC
:100AAD0090401A227BFF12169F90401A227BFF1254
:100ABD00169F90401A227BFF12169F90401A227BA0
:100ACD00FF12169F90401A227BFF12169F90401A1C
:100ADD00227BFF12169F90401A227BFF12169F90C9
:100AED00401A227BFF12169F90401A227BFF12168E
:100AFD009F90401A227BFF12169F90401A227BFF77
:070B0D0012169F90401A220E
:10143D00E5487003300035E5174516700675162F13
:10144D007517FFE517151770021516E51745167078
:10145D0004F548800FAE16AF177C0B7DFF12138C71
:10146D00EF20E005121EF68003121EF230035E908F
:10147D00401FE030E057E4F090E6F574FFF090E6A1
:10148D00047480F0E490E6CEF000000090E6CFF01A
:10149D0000000090E6D0F000000090E6D1F00000D2
:1014AD000000000090E6047482F00000007486F0E5
:1014BD00000000E4F000000090E6917480F0000060
:1014CD0000F0000000F0000000F0000000E5BB306F
:1014DD00E72D00000090E6AFE0FE90E6B0E07C0066
:1014ED002400F542EC3EF541D3E5429400E54194EC
:1014FD0000400CE5419402500690E6487406F0E574
:10150D008070047F0180027F00EF90E68030E0055F
:0A151D00E04408F022E054F7F02249
:021F0200D322E8
:021F0400D322E6
:021F0600D322E4
:101B990090E680E030E71800000090E6247402F037
:101BA900000000E490E625F0000000D20280160053
:101BB9000000E490E624F000000090E6257440F06F
:0D1BC900000000C20290E6BAE0F54CD32205
:091ED000E54C12127904F0D32252
:081EE20090E6BAE0F53FD322BF
:091ED900E53F12127904F0D32256
:021F0800D322E2
:021F0A00D322E0
:021F0C00D322DE
:10008000E4F53BF53C75480190E6B9E01213FE013A
:10009000AA1001B71101CE12011A200170210177B7
:1000A00022017D23020E3502083803F39105A3A235
:1000B00005A3A3059DA9057BAC03EDB60407BA040F
:1000C0001FBB0525BC0259BE039CBF0242D0024A99
:1000D000D10345D200DBD4000006C490E6B8E0208E
:1000E000E723121253F090E6A0E020E1F990E740F8
:1000F000E0FF90E6BAE0FEE42EF582E43440F583BA
:10010000EFF00206C690E6BAE0FFE42FF582E43491
:1001100040F583E090E7400201C690E6BEE0B402FD
:100120000F90E6BBE0C4333354C0121269F080284C
:1001300090E6BEE06403702090E6BBE0FF7401A887
:1001400007088002C333D8FC25E044C0121269F0CE
:10015000121236E090E742F0121236E090E740F0DB
:100160001212D3FFA3E0121243E090E74102040011
:10017000121260F00206C6E490E68B800312126051
:10018000F090E6BC12132C54037A001212D02BFF0D
:10019000EA121246EDF090E6BD12132C1212D02B8B
:1001A000FFEA121246EDF00206C6121253F090E674
:1001B000A0E020E1F9803E904015E090E740F0900B
:1001C0004016E090E741F0E490E68A020400121243
:1001D00053F090E6A0E020E1F9E54EB4010D2003D4
:1001E0000A90E742E054014402800690E742E0545E
:1001F00003904014F090E740E0904015F090E74104
:10020000E0904016F00206C690E6F574FFF0121377
:1002100036433280000000E532F00000007486F0C2
:100220000000007482F090E6997480F0000000F005
:10023000000000F0000000F000000012127D04F049
:100240008008121336433280800612133653327FF1
:10025000000000E532F00206C6121253F090E6A04C
:10026000E020E1F990E740E0F54F904000F090E7A2
:1002700041E0F550904001F090E742E0F5519040A8
:1002800002F090E743E0F552904003F090E744E03D
:10029000F553904004F090E745E0F554904005F0A8
:1002A00090E746E0F555904006F090E747E0F556B8
:0A02B000904007F090E748E0F55792
:1002BA00904008F090E749E0F558904009F090E73F
:1002CA004AE0F55990400AF090E74BE0F55A904021
:1002DA000BF090E74CE0F55B90400CF090E74DE0B6
:1002EA00F55C90400DF090E74EE0F55D90400EF021
:1002FA0090E74FE0F55E90400FF090E750E0F55F31
:10030A00904010F090E751E0F560904011F090E7CE
:10031A0052E0F561904012F090E753E0F5629040A8
:10032A0013F0E54B541FD3940450030206C690E71A
:10033A0054E0F56390401DF00206C690E740E54F91
:10034A00F0A3E550F0A3E551F0A3E552F0A3E5537D
:10035A00F0A3E554F0A3E555F0A3E556F0A3E5575D
:10036A00F0A3E558F0A3E559F0A3E55AF0A3E55B3D
:10037A00F0A3E55CF0A3E55DF0A3E55EF0A3E55F1D
:10038A00F0A3E560F0A3E561F0A3E562F0A3E563FD
:10039A00806490E6BEE064047035904019F0053E32
:1003AA00E53E7002053D121286904019E4F0053EC2
:1003BA00E53E7002053D904017E090E742F090401C
:1003CA0018E090E743F090E68B7404F00206C690BA
:1003DA004019E4F0121DD812128690E68B7402F0CE
:1003EA000206C61219590206C690E740E545F09082
:1003FA00E6BFE090E68A121257F00206C6E564905C
:10040A00E740B4010574BBF08003E54BF012127D9E
:10041A0004F00206C6E56464016003020519D20805
:10042A00121A7490E74074BBF090E6BBE0C313FF66
:10043A00E5B154802FF5B1E090E6C4F090E6BAE059
:10044A0090E6C5F090E6C4E0700990E6C5E0700356
:10045A00121EF690E6BDE0FE90E6BCE07C002400A9
:10046A00F54AEC3EF549E54A45497003020512E5AD
:10047A00BB30E7F2E5AB20E1ED300223D3E54A9445
:10048A0000E5499402403F90E6D07402F000000073
:10049A00E490E6D1F0000000753D02F53E803ED3BF
:1004AA00E54A9440E5499400E4401790E6D0F0000C
:1004BA00000090E6D17440F0000000753D00F53E62
:0B04CA00801B90E6CFF0E54990E6D0E3
:1004D500F0000000E54A90E6D1F000000085493DB6
:1004E500F53EE4F5BB000000E5BB30E7FB0000008E
:1004F500C3E54A953EF54AE549953DF549E5B154CB
:100505007F04FFE5B154802FF5B1020470C20812D3
:100515001A74800690E740E54BF012127D04804B7B
:10052500E5AC5401FFE5BB54804F90E740F0E03067
:10053500E736E020E03290E6BBE090E6CEF0000042
:100545000090E6BAE090E6CFF000000090E6BDE04E
:1005550090E6D0F000000090E6BCE090E6D1F00017
:10056500000075BB06000000121253F090E6A0E0F3
:100575004480F00206C690E6B5E054FEF090E6BF72
:10058500E0121254F090E6BBE090E6B3F090E6BAC4
:10059500E090E6B4F00206C6754D0143400190E6D1
:1005A500BAE0753300F534A3E0FEEE423390E6BEC3
:1005B500E0753500F536A3E0FEEE423590E6B8E08D
:1005C50064C0600302066BE536453570030206C656
:1005D50090E6A0E020E1F9C3E5369440E5359400C6
:1005E50050088535378536388006753700753840AB
:1005F50090E6B9E064A3703E90E6BCE0B40119A3AF
:10060500E0701590E6BBE030E70E90E7407402F02D
:10061500A203E433A3F08042E4F539F53A1212DC83
:1006250050381212F0E0FF1212A2EFF0053AE53A47
:1006350070EB053980E7E4F539F53A1212DC501014
:100645001212A274CDF0053AE53A70EF053980EB48
:10065500121297AF34AE331217B812127DE538F087
:100665001212AE0205CC90E6B8E064407053E53650
:100675004535604D12127DF090E6A0E020E1F9903D
:10068500E68BE0753700F53890E6B9E0B4A31EE4D3
:10069500F539F53A1212DC501E1212A2E0FF1212C1
:1006A500F0EFF0053AE53A70EB053980E71212975D
:0F06B500AF34AE33121C82E5381212AE02067358
:0406C400D322C32258
:101DFD00C0E0C083C082C085C084C086758600D215
:101E0D00051212C97401F0D086D084D085D082D04D
:041E1D0083D0E0325C
:101E4500C0E0C083C082C085C084C0861212C6743B
:0F1E550004F0D086D084D085D082D083D0E03204
:101E6400C0E0C083C082C085C084C0861212C6741C
:0F1E740002F0D086D084D085D082D083D0E032E7
:101CB700C0E0C083C082C085C084C08675860085A9
:101CC700100C85110D12130585080E85090F1213C7
:101CD700101212C97410F0D086D084D085D082D06B
:041CE70083D0E03294
:101E2100C0E0C083C082C085C084C086758600D2F0
:101E3100071212C97408F0D086D084D085D082D020
:041E410083D0E03238
:101BD600C0E0C083C082C085C084C0867586009080
:101BE600E680E030E71285080C85090D121305859D
:101BF600100E85110F1213101212C97420F0D08620
:0B1C0600D084D085D082D083D0E032A3
:011F0E0032A0
:011F0F00329F
:011F1000329E
:011F1100329D
:011F1200329C
:011F1300329B
:011F1400329A
:011F15003299
:011F16003298
:011F17003297
:011F18003296
:011F19003295
:011F1A003294
:011F1B003293
:011F1C003292
:011F1D003291
:011F1E003290
:011F1F00328F
:011F2000328E
:011F2100328D
:011F2200328C
:011F2300328B
:011F2400328A
:011F25003289
:011F26003288
:011F27003287
:011F28003286
:011F29003285
:011F2A003284
:011F2B003283
:011F2C003282
:011F2D003281
:011F2E003280
:011F2F00327F
:011F3000327E
:011F3100327D
:101C1100AB07AA06AC05E4FDE54D600B7E000DEEB9
:101C210024591212FDEAF0AE050D74592E1212FD5F
:101C3100EBF0AF050D74592F1212FDECF07A297BF0
:0B1C410059AF40121E9FAF40021C4C28
:101C82008E658F668D678A688B69E4F56AE56AC33B
:101C9200956750200566E566AE657002056514FF1E
:101CA200E569256AF582E43568F583E0FD121C11C9
:051CB200056A80D92243
:1017B8008E658F668D678A688B69E4FDF56AE54DED
:1017C8006012E565FF7E000DEE2459F582E43429A8
:1017D800F583EFF0AE050D74592EF582E43429F542
:1017E80083E566F07A297B59AF40121E9FAB69AA40
:0817F80068AD67AF40021E83DB
:03004300021700A1
:0300530002170091
:10170000021DFD00021E6400021E4500021E210093
:10171000021CB700021BD600021F0E00021F0F00A2
:10172000021F1000021F1100021F1200021F1300EF
:10173000021F1400021F1500021F1600021F1700CF
:10174000021F1800021F0F00021F1900021F1A00BB
:10175000021F1B00021F1C00021F1D00021F1E0093
:10176000021F1F00021F0F00021F0F00021F0F00A9
:10177000021F2000021F2100021F2200021F23005F
:10178000021F2400021F2500021F2600021F27003F
:10179000021F2800021F2900021F2A00021F2B001F
:1017A000021F2C00021F2D00021F2E00021F2F00FF
:0817B000021F3000021F31008E
:101DD8007400F58690FDA57C05A3E582458370F91E
:011DE80022D8
:081EEA00E4F570D2E9D2AF2249
:101C4C0090E678E020E6F9C2E990E678E04480F08E
:101C5C00EF25E090E679F090E678E030E0F990E658
:101C6C0078E04440F090E678E020E6F990E678E001
:061C7C0030E1D6D2E9229E
:101D1F00A90790E678E020E6F9E570702390E67861
:101D2F00E04480F0E925E090E679F08D6BAF03A9F0
:101D3F0007756C018A6D896EE4F56F757001D3229A
:021D4F00C322AD
:101CEB00A90790E678E020E6F9E570702590E67894
:101CFB00E04480F0E925E0440190E679F08D6BAF8C
:101D0B0003A907756C018A6D896EE4F56F75700315
:041D1B00D322C322EA
:03004B0002112E71
:10112E00C0E0C083C082C085C084C086758600C002
:10113E00D075D000C000C001C002C003C006C007F9
:10114E0090E678E030E20675700602121890E678A6
:10115E00E020E10CE570640260067570070212185B
:10116E00E57024FE605F14603624FE7003021209DF
:10117E0024FC700302121524086003021218AB6CD3
:10118E00AA6DA96EAF6F056F8F8275830012133D26
:10119E0090E679F0E56F656B7070757005806B90F9
:1011AE00E679E0AB6CAA6DA96EAE6F8E8275830088
:1011BE0012136A757002E56B6401704E90E678E06A
:1011CE004420F08045E56B24FEB56F0790E678E08D
:1011DE004420F0E56B14B56F0A90E678E04440F0D9
:1011EE0075700090E679E0AB6CAA6DA96EAE6F8E4D
:1011FE008275830012136A056F800F90E678E044C3
:10120E0040F075700080037570005391DFD007D0E9
:10121E0006D003D002D001D000D0D0D086D084D05A
:08122E0085D082D083D0E032AC
:101E8300121CEBE57024FA600E146006240770F34D
:0C1E9300D322E4F570D322E4F570D322D2
:101E9F00121D1FE57024FA600E146006240770F3FC
:0C1EAF00D322E4F570D322E4F570D322B6
:0A16F60000010202030304040505CD
:101AE700EC4EFEED4F24F6F58274163EF583E49333
:101AF700FF3395E0FEEF24A1FFEE34E68F82F583F6
:101B07002290E6BCE0547EFF7E00E0D394807C0008
:101B170022F0E5252401FFE43524FEE43523FDE426
:101B270035228F258E248D23F52222AF29AE28ADAD
:101B370027AC26AB25AA24A923A822C30213E1E5D3
:0C1B47002F2525F582E52E3524F583229C
:100FE300E4F52DF52CF52BF52AC207C204C206C27F
:100FF300051206C87E187F008E0A8F0B75121875AE
:10100300131275081875091C75101875114A751493
:1010130018751578EE54E070030210CF752E007525
:101023002F808E308F31C374AC9FFF74189ECF24F2
:1010330002CF3400FEE48F298E28F527F526F52507
:10104300F524F523F522121B32500A121B4674CDE8
:10105300121B1880F1E4F525F524F523F522121B64
:10106300325017E5312525F582E5303524F583E047
:10107300FF121B46EF121B1880E4852E0A852F0BE7
:1010830074002480FF741834FFFEC3E5139FF51327
:10109300E5129EF512C3E50D9FF50DE50C9EF50CCB
:1010A300C3E50F9FF50FE50E9EF50EC3E5099FF50A
:1010B30009E5089EF508C3E5119FF511E5109EF5B6
:1010C30010C3E5159FF515E5149EF514D2E843D832
:1010D3002090E668E04409F090E65CE0443DF0D2FD
:1010E300AFD208121D5190E680E054F7F0538EF80A
:1010F300C207300505120CB0C205300729121F02C2
:101103005024C207121DE920041690E682E030E75E
:1011130004E020E1EF90E682E030E604E020E0E442
:0B112300121D80121F0412143D80C733
:100CB00090E6B9E01213FE0D54000DA8010E0203D8
:100CC0000CD3060D4E080D48090D3C0A0D420B00D1
:100CD000000E38121F064003020E4490E6BBE024CB
:100CE000FE602214603324FD60111460222406701B
:100CF00048E50A90E6B3F0E50B8037E51290E6B3DD
:100D0000F0E513802DE50C90E6B3F0E50D8023E5CA
:100D10000E90E6B3F0E50F801990E6BAE0FF121DE1
:100D2000ACAA06A9077B01EA494B600DEE90E6B339
:100D3000F0EF90E6B4F0020E44020E3D121ED9020E
:100D40000E44121EE2020E44121B99020E44121EA1
:100D5000D0020E44121F084003020E4490E6B8E091
:100D6000247F60151460192402703AA204E433252C
:100D7000E0FFA206E4334F8018E490E740F08016CD
:100D8000121B0840047D0180027D00121AE7E05426
:100D90000190E740F0E4A3F090E68AF090E68B74CF
:100DA00002F0020E44020E3D121F0A4003020E44DE
:100DB00090E6B8E024FE601624026003020E449020
:100DC000E6BAE0B40105C204020E44020E3D90E60C
:100DD000BAE0702C121B0840047D0180027D0012D5
:100DE0001AE7E054FEF090E6BCE05480131313546D
:100DF0001FFFE0540F2F90E683F0E04420F0804482
:100E0000803B121F0C503D90E6B8E024FE60192490
:100E100002703190E6BAE0B40104D204802690E674
:100E2000BAE06402601E8015121B0840047D018038
:100E3000027D00121AE78008120080500790E6A099
:0C0E4000E04401F090E6A0E04480F022C5
:03003300021EFEAC
:041EFE0053D8EF3294
:100B430060802800013F0101010101070003020247
:100B530002020200F5F7F7F7F7F7F7F700000000D6
:100B63000000003F013F01010101010702050000F0
:100B730000000000F6F7F7F7F7F7F7F700000000BB
:100B83000000003F011301210139010700010001A9
:100B9300000B0200F7F7F3F7F5F7F7F7003600F06D
:100BA300002D003F010138010101010702020D0080
:100BB30000000000F2F7F7F7F7F7F7F700002D0052
:100BC3000000003F602428870000000000000000B0
:100BD3000000000000000000000000000000000012
:100BE300000000000000000000000000472880E033
:060BF3008000F7AA4E008D
:1015270090E60174AAF090E6F574FFF0902880E049
:1015370090E6F3F0902881E090E6C3F0902882E0EF
:1015470090E6C1F0902883E090E6C2F0902885E00D
:1015570090E6C0F0902886E090E6F4F075AF077447
:1015670028F59A7400F59B759DE4E4F59EFF90E6D7
:101577007BE090E67CF00FBF80F490E67174FFF09B
:10158700F5B490E672E04480F043B680000000E4D2
:1015970090E6C4F000000090E6C5F0902887E09040
:1015A700E6C6F0902888E090E6C7F0902889E0909A
:1015B700E6C8F090288AE090E6C9F090288BE09082
:1015C700E6CAF090288CE090E6CBF090288DE0906A
:0C15D700E6CCF090288EE090E6CDF022EB
:100BF900608028AB013F01010101010700030202E6
:100C090002020200F5F7F7F7F7F7F7F7000000001F
:100C19000000003F013F0101010101070205000039
:100C290000000000F6F7F7F7F7F7F7F70000000004
:100C39000000003F01100138010101070001000B0C
:100C490002020200F3F7F5F7F7F7F7F70000006E75
:100C59000000003F0138010101010107020D0000F8
:100C690000000000F6F7F7F7F7F7F7F7002D000097
:100C79000000003F6024293200000000000000004D
:100C8900000000000000000000000000000000005B
:100C990000000000000000000000000047292BE0D0
:060CA9008000F7EA4E0096
:1015E30090E60174EAF090E6F574FFF090292BE0A1
:1015F30090E6F3F090292CE090E6C3F090292DE0DB
:1016030090E6C1F090292EE090E6C2F0902930E0F8
:1016130090E6C0F0902931E090E6F4F075AF0774DE
:1016230028F59A74ABF59B759DE4E4F59EFF90E66F
:101633007BE090E67CF00FBF80F490E67174FFF0DE
:10164300F5B490E672E04480F043B680000000E415
:1016530090E6C4F000000090E6C5F0902932E090D7
:10166300E6C6F0902933E090E6C7F0902934E09085
:10167300E6C8F0902935E090E6C9F0902936E0906D
:10168300E6CAF0902937E090E6CBF0902938E09055
:0C169300E6CCF0902939E090E6CDF02282
:101D800090E682E030E004E020E60B90E682E0306E
:101D9000E119E030E71590E680E04401F07F147E21
:0C1DA00000121B5390E680E054FEF0227D
:101DE90090E682E044C0F090E681F043870100006C
:041DF90000000022C4
:101D510030080990E680E0440AF0800790E680E0D0
:101D61004408F07FDC7E05121B5390E65D74FFF0A2
:0F1D710090E65FF05391EF90E680E054F7F02298
:021DAC00A90785
:101DAE00AE14AF158F828E83A3E064037017AD015E
:101DBE0019ED7001228F828E83E07C002FFDEC3EA8
:091DCE00FEAF0580DF7E007F00FE
:011DD70022E9
:101B53008E328F3390E600E054187012E53324017F
:101B6300FFE43532C313F532EF13F533801590E6F6
:101B730000E05418FFBF100BE53325E0F533E532E1
:101B830033F532E5331533AE32700215324E60054C
:061B9300121DD880EE22B5
:030000000219E8FA
:0C19E800787FE4F6D8FD758170021A2F9C
:10133D00BB010CE58229F582E5833AF583E0225065
:10134D0006E92582F8E622BBFE06E92582F8E222AF
:0D135D00E58229F582E5833AF583E49322C9
:10136A00F8BB010DE58229F582E5833AF583E8F0B9
:10137A00225006E92582C8F622BBFE05E92582C865
:02138A00F2224D
:10138C00BC000BBE0029EF8DF084FFADF022E4CC45
:10139C00F875F008EF2FFFEE33FEEC33FCEE9DEC0E
:1013AC00984005FCEE9DFE0FD5F0E9E4CEFD22ED54
:1013BC00F8F5F0EE8420D21CFEADF075F008EF2F9E
:1013CC00FFED33FD4007985006D5F0F222C398FD8F
:0513DC000FD5F0EA222C
:1013E100EB9FF5F0EA9E42F0E99D42F0E89C45F062
:0113F10022D9
:0C13F200A42582F582E5F03583F5832206
:1013FE00D083D082F8E4937012740193700DA3A37E
:10140E0093F8740193F5828883E473740293686091
:06141E00EFA3A3A380DF91
:101EBB00E4FFFE121424600C0FEF70010E09E970A1
:051ECB00F20A80EF2285
:1019F400020FE3E493A3F8E493A34003F68001F217
:101A040008DFF48029E493A3F85407240CC8C333F3
:101A1400C4540F4420C8834004F456800146F6DFC2
:101A2400E4800B0102040810204080900B14E47E33
:101A3400019360BCA3FF543F30E509541FFEE493B7
:101A4400A360010ECF54C025E060A840B8E493A37E
:101A5400FAE493A3F8E493A3C8C582C8CAC583CAA9
:101A6400F0A3C8C582C8CAC583CADFE9DEE780BE61
:010CAF000044
:10142400BB010689828A83E0225002E722BBFE02C6
:09143400E32289828A83E49322F9
:00000001FF
