:1019000012010002000000400516408100000102A3
:1019100000010A06000200000040010009022E003A
:1019200001010080320904000004FF0000000705E7
:1019300002020002000705040200020007058602F9
:101940000002000705880200020009022E000101C2
:101950000080320904000004FF00000007050202B5
:101960004000000705040240000007058602400011
:101970000007058802400000040309040C0341002D
:101980004300430045005300260355005300420026
:101990002D00410049004F00310036002D0031007C
:1019A00036004100000000000000000000000000C0
:1010000060803100013F010101010107000302027C
:1010100002020200F5F7F7F7F7F7F7F70000000014
:101020000000003F013F010101010107020500002E
:1010300000000000F6F7F7F7F7F7F7F700000000F9
:101040000000003F011301210139010700010001E7
:10105000000B0200F7F7F3F7F5F7F7F7003600F0AB
:101060000012003F010138010101010702020D00D9
:1010700000000000F2F7F7F7F7F7F7F700002D0090
:101080000000003F602431870000000000000000E5
:101090000000000000000000000000000000000050
:1010A000000000000000000000000000473180E068
:1010B0008000F7AA4E00608031AB013F01010101C1
:1010C00001070003020202020200F5F7F7F7F7F743
:1010D000F7F7000000000000003F013F010101019F
:1010E00001070205000000000000F6F7F7F7F7F728
:1010F000F7F7000000000000003F01130121013953
:10110000010700010001000B0200F7F7F3F7F5F704
:10111000F7F7003600F0002D003F01013801010112
:10112000010702020D0000000000F2F7F7F7F7F7E1
:10113000F7F700002D000000003F6024323200006D
:10114000000000000000000000000000000000009F
:10115000000000000000000000000000000000008F
:0C116000000047322BE08000F7AA4E0090
:1021090090E67174FFF0F5B490E672E04480F04314
:10211900B6802290E60174AAF090E6F574FFF022E9
:10212900F59B759DE4E4F59EFF2290E67BE090E641
:042139007CF00F2205
:10171B0012211C90322BE090E6F3F090322CE090EB
:10172B00E6C3F090322DE090E6C1F090322EE090BF
:10173B00E6C2F0903230E090E6C0F0903231E090AB
:10174B00E6F4F075AF077431F59A74AB12212912D8
:10175B002133BF80FA122109000000E490E6C4F0A7
:10176B0000000090E6C5F0903232E090E6C6F090B3
:10177B003233E090E6C7F0903234E090E6C8F09058
:10178B003235E090E6C9F0903236E090E6CAF09040
:10179B003237E090E6CBF0903238E090E6CCF09028
:0717AB003239E090E6CDF0B9
:0117B2002214
:1019B00012211C903180E090E6F3F0903181E090AC
:1019C000E6C3F0903182E090E6C1F0903183E09080
:1019D000E6C2F0903185E090E6C0F0903186E0906C
:1019E000E6F4F075AF077431F59A740012212912EC
:1019F0002133BF80FA122109000000E490E6C4F010
:101A000000000090E6C5F0903187E090E6C6F090C7
:101A10003188E090E6C7F0903189E090E6C8F09018
:101A2000318AE090E6C9F090318BE090E6CAF09000
:101A3000318CE090E6CBF090318DE090E6CCF090E8
:071A4000318EE090E6CDF0CD
:011A4700227C
:0A2484000001020203030404050531
:101BE200EC4EFEED4F2484F58274243EF583E4939B
:101BF200FF3395E0FEEF24A1FFEE34E68F82F583FA
:101C02002290E6BCE0547EFF7E00E0D394807C000C
:101C120022F0E5252401F525E43524F524E43523D5
:101C2200F523E43522F52222AF29AE28AD27AC26D2
:101C3200AB25AA24A923A822C30215FCE52F25253A
:091C4200F582E52E3524F583221C
:1011A300E4F52DF52CF52BF52AC209C206C208C2B7
:1011B3000712092B7E197F008E0A8F0B7512197582
:1011C300131275081975091C75101975114A7514D0
:1011D30019751578EE54E0700302128F752E0075A1
:1011E3002F808E308F31C374AE9FFF74199ECF242E
:1011F30002CF3400FEE48F298E28F527F526F52546
:10120300F524F523F522121C2A500A121C3E74CD34
:10121300121C1380F1E4F525F524F523F522121CA5
:101223002A5017E5312525F582E5303524F583E08D
:10123300FF121C3EEF121C1380E4852E0A852F0B30
:1012430074002480FF741934FFFEC3E5139FF51364
:10125300E5129EF512C3E50D9FF50DE50C9EF50C09
:10126300C3E50F9FF50FE50E9EF50EC3E5099FF548
:1012730009E5089EF508C3E5119FF511E5109EF5F4
:1012830010C3E5159FF515E5149EF514D2E843D870
:101293002090E668E04409F090E65CE0443DF0D23B
:1012A300AFD20C1221D790E680E054F7F0538EF8BA
:1012B300C209300705120E56C2073009291217FE5C
:1012C3005024C2091222A920061690E682E030E7D4
:1012D30004E020E1EF90E682E030E604E020E0E481
:0B12E3001222061218FE12163380C7FC
:100E560090E6B9E07003020F07147003020F5B24DB
:100E6600FE7003020FB524FB7003020F011470031A
:100E7600020EFB14607314607624056003020FEC07
:100E86001224EA4003020FF890E6BBE024FE60223B
:100E960014603324FD601114602224067048E50AAC
:100EA60090E6B3F0E50B8037E51290E6B3F0E51374
:100EB600802DE50C90E6B3F0E50D8023E50E90E677
:100EC600B3F0E50F801990E6BAE0FF122232AA06C7
:100ED600A9077B01EA494B600DEE90E6B3F0EF906F
:100EE600E6B4F0020FF8020FF11224A2020FF81274
:100EF6002498020FF8121F7A020FF812248E020F9E
:100F0600F81224EC4003020FF890E6B8E0247F6064
:100F1600151460192402703AA206E43325E0FFA2F4
:100F260008E4334F8018E490E740F08016121C0363
:100F360040047D0180027D00121BE2E0540190E72F
:100F460040F0E4A3F090E68AF090E68B7402F0029B
:100F56000FF8020FF11224EE4003020FF890E6B8E4
:100F6600E024FE601624026003020FF890E6BAE061
:100F7600B40105C206020FF8020FF190E6BAE0705E
:100F86002C121C0340047D0180027D00121BE2E04E
:100F960054FEF090E6BCE05480131313541FFFE098
:100FA600540F2F90E683F0E04420F08045803C12F9
:100FB60024F0503E90E6B8E024FE601A2402703217
:100FC60090E6BAE0B40104D206802790E6BAE0B40F
:100FD6000202801E8015121C0340047D0180027DE2
:100FE60000121BE28008120056500790E6A0E0446B
:090FF60001F090E6A0E04480F057
:010FFF0022CF
:030033000217FAB7
:0417FA0053D8EF329F
:100C7E004442473A2000486561643A3078002C209F
:100C8E005461696C3A30780020576176657320455F
:100C9E004E41424C454420002057617665732044F6
:100CAE00495361626C6564002030780020696E20C3
:100CBE0052696E6700455030003A20307800205659
:100CCE003A3078002C20493A3078002C204C3A30BB
:100CDE00780044414357726974653A000D77726922
:100CEE00746531746F3120002D20656E64000D72B5
:100CFE006561646261636B31746F3120002D206514
:100D0E006E643A00504153530D004641494C0D005C
:100D1E000A0A0A0A0A0D5553422D41494F20262030
:100D2E0044504B2D41494F2046616D696C792046E8
:100D3E0069726D776172650D7573622D61696F31C0
:100D4E00362D3136412E63204665622032342032F4
:100D5E0030313520402031333A31303A32380D00BF
:100D6E00202D2054445F494E49542053544152542F
:100D7E002000362D31364100362D31364500322DCC
:100D8E0031364100322D313600322D3136450036A6
:100D9E002D36344D4100362D36344D4500322D362C
:100DAE00344D4100322D36344D00322D36344D4502
:100DBE0000362D33324100362D33324500322D337D
:100DCE00324100322D333200322D33324500362D72
:100DDE0036344100362D36344500322D363441003E
:100DEE00322D363400322D36344500362D3936410B
:100DFE0000362D39364500322D39364100322D3927
:100E0E003600322D39364500362D31323841003616
:100E1E002D3132384500322D3132384100322D31EC
:100E2E00323800322D31323845002D4F544845525C
:100E3E0000202D2054445F494E495420454E443ADB
:080E4E00202020006D730D004F
:10116C0041325800413259FF41325EFE413261003A
:10117C004132620002470000C101C102C105413287
:10118C0078FB4132795041327AFB41327B50024438
:04119C000000C1008E
:1012EE00E490E68AF090E6BEE090E68B227BFFE487
:1012FE00F539753A012290E6BAE075F008A4FFA31D
:10130E00E07C002FFFEC35F0FEE42FF58274503EAA
:10131E00F58322E490E68BF090E6BBE0FF90E6BA10
:10132E00E075F008A42403F582E5F03450227BFF2B
:10133E00753901753A0122E090E740F0E490E68AB3
:10134E00F090E68B22AD377AE779407F40AB0722EB
:10135E0074402539F582E434E7F583222533F533DD
:10136E00E5363532F532C3E5359537F535E5349545
:10137E0036F534227586005391EF90E65D225403C4
:10138E00FB90E6BAE075F008A422904017E090E7D3
:10139E0040F0904018E090E741F02290E6BCE0FF6C
:1013AE0090E6BBE022C3E5399537E53895362290B5
:1013BE00E6047480F0223EF583E0FBED25E0FFECC1
:1013CE0033FE22E5332539F582E5323538F58322B1
:1013DE007BFFE4F539F53A22F582E43432F58322C7
:1013EE0074412FF58274E73EF58322850D82850CBC
:1013FE0083A37402F022850F82850E83A37407F0F7
:10140E0022F07A327B7CAD3E7F0E22FEE07C002401
:10141E0000FFEC3E22E0FD90E6BBE0C4131322E495
:09142E0090E68AF090E6BEE0228F
:101DE3007BFF7A0C797E121FB97BFF7A0C79841200
:101DF3001FB97F051224467F2C1224467BFF7A0CE1
:101E0300798C121FB97F101224467FE11224467B7E
:101E1300FF7A0C7996121FB97BFF7A0C79B6121FE1
:101E2300B97F031224467FDB1224467BFF7A0C79A9
:091E3300BA121FB97F0D02240F41
:101B68007BFF7A0C79C3121FB990E6B8E030E7041E
:101B78007F3C80027F3E12240F7BFF7A0C79C712CC
:101B88001FB990E6B9121BDA7A0C79CC121FB990FA
:101B9800E6BBE0FF12244690E6BA121BDA7A0C790B
:101BA800D2121FB990E6BDE0FF12244690E6BCE0D1
:101BB800FF1224467BFF7A0C79D9121FB990E6BF31
:101BC800E0FF12244690E6BEE0FF1224467F0D0295
:0A1BD800240FE0FF1224467BFF22D9
:0424D8004380022219
:0424DC005380FD220A
:0424E00063800222F1
:102422001213BD0000007406F0000000E4F000008A
:02243200002286
:1017B300A20D9204904011E4F090401C04F0E4F078
:1017C300300D1C90E6017480F0E490E671F090E631
:1017D30072F075B4FF75B6FF75B3FF75B5FF229050
:1017E3003274E0904011F090E67174FFF090E6726D
:0717F300F0E4F5B4F5B622A5
:05002E00D20D0217B322
:05004600C20D0217B31A
:10225E00753E0390327C7430F0E4A3F0A374031245
:10226E00140F1223AF90327C7438F0E4A3F0A30461
:06227E0012140F0223AF51
:102033008D3E8B3F7D03EF5401441890327CF0A317
:10204300E53EF0A3E53FF07A327B7C7F0E1223AFAF
:102053007BFF7A0C79E0121FB9AF3E122446AF3FE3
:062063001224460224C70E
:10209F00E4FEFD7BFF7A0C79EA121FB97801AF05D8
:1020AF00EF08800103D8FDF5B18DB08EA08E909012
:1020BF00401BEEF00EEE70E40DED70E07BFF7A0C3E
:0520CF0079F6021FB9C3
:101C4B00E4FEFD7BFF7A0C79FC121FB9E4F5B3F5CA
:101C5B00B57801AF05EF08800103D8FDF5B18EA073
:101C6B0090401C7401F0AF90ACB0E4F0EFB50604FB
:101C7B00EC6D600690325E7401F00EEE70D30DEDDC
:101C8B0070CF90325EE0B4FE02E4F07BFF7A0D7908
:101C9B000B121FB990325EE07BFF70067A0D791242
:091CAB0080047A0D7918021FB9BA
:1023160012002E9040107401F012209F904010740D
:1023260005F012209F121C4B120046904010E4F05C
:012336002284
:101E3C008B3B8A3C893DE4F53E1223E68F3FE53F20
:101E4C0025E02410901988F0E4F53EAF3FEF339570
:101E5C00E0FEC3E53E9FEE6480F87480985027AB9B
:101E6C003BAA3CA93D853E82758300121558FDE5C1
:101E7C003E75F002A42498F9741935F08982F58323
:071E8C00EDF0053E80C522C8
:1000030090401374AAF0E064AA70197455F0E06488
:10001300557011744FF0E0B44F0A7449F0E0B449DD
:07002300037F00227F012290
:101CB400120003EF14601B0470591213557D017F49
:101CC400037E00121EE790E740E0541F903259F063
:101CD40080411213557D027FF67E1D121EE790E7A8
:101CE40040E0F535A3E0903259F0E5353392E03326
:101CF40092E0F5351213557D017F037E00121EE735
:101D040090E740E0653560037F042290E740E054AB
:091D14001FFF22903259E0FF226A
:1024340090401AEDF0903261E539F0A3E53AF002EC
:022444001E3C3C
:10092B00E4F5321224677BFF7A0D791E121FB97A18
:10093B000D796E120C6EEEF533EDF53490E6017415
:10094B0080F01224D090E678E04401F0E05410FFE0
:10095B00C4540F4450903260F0E013E43390325F94
:10096B00F090E6007410F090E61074A0F090E61191
:10097B00F000000090E612F0000000E490E613F0A7
:10098B0000000090E61474E0F0000000E490E6151F
:10099B00F01213BD0000007482F00000007486F0AA
:1009AB00000000E4F000000090E618F00000007476
:1009BB0011F000000090E61A7409F0000000121C00
:1009CB00B4903259EFF0E0FF444090190AF0EF5425
:1009DB001FB41E004003020BDE9009EBF8282873AE
:1009EB00020A45020A55020A61020A72020A7E02D3
:1009FB000A8E020A9A020AA6020AB2020ABE020A68
:100A0B00CC020ADA020AE8020AF6020B04020B1203
:100A1B00020B20020B2E020B3C020B4A020B58025C
:100A2B000B66020B73020B80020B8D020B9A020BEF
:040A3B00A7020BB44F
:100A3F00020BC1020BCE7BFF7A0D7980753901E471
:100A4F00F53AFD020BD97A0D79861213DE7D01027C
:100A5F000BD97BFF7A0D798C753901E4F53A7D025C
:100A6F00020BD97A0D79921213DE7D03020BD97B1B
:100A7F00FF7A0D7997E4F539F53A7D04020BD97AAF
:100A8F000D799D12133C7D08020BD97A0D79A412B2
:100A9F0012FB7D09020BD97A0D79AB12133C7D0A3B
:100AAF00020BD97A0D79B21212FB7D0B020BD97B97
:100ABF00FF7A0D79B81212FD7D0C020BD97BFF7AEC
:100ACF000D79BF12133E7D10020BD97BFF7A0D7982
:100ADF00C51212FD7D11020BD97BFF7A0D79CB1256
:100AEF00133E7D12020BD97BFF7A0D79D11212FDC5
:100AFF007D13020BD97BFF7A0D79D61212FD7D146F
:100B0F00020BD97BFF7A0D79DC12133E7D10020B9D
:100B1F00D97BFF7A0D79E21212FD7D11020BD97B81
:100B2F00FF7A0D79E812133E7D12020BD97BFF7A03
:100B3F000D79EE1212FD7D13020BD97BFF7A0D7921
:100B4F00F31212FD7D14020BD97BFF7A0D79F91286
:100B5F00133E7D10020BD97BFF7A0D79FF1212FD28
:100B6F007D1180667BFF7A0E790512133E7D128010
:100B7F00597BFF7A0E790B1212FD7D13804C7BFF90
:070B8F007A0E79101212FD2D
:100B96007D14803F7BFF7A0E791612133E7D1080FE
:100BA600327BFF7A0E791D1212FD7D1180257BFFA7
:100BB6007A0E792412133E7D1280187BFF7A0E7905
:100BC6002B1212FD7D13800B7BFF7A0E79311212E8
:100BD600FD7D1412243480097BFF7A0E7938121EAB
:100BE6003CE4FF74632FF582E43432F583E4F02F9E
:100BF600F582E43440F583E4F00FBF15E690401D1E
:100C0600E4F012002E122316C20C1223CB90E6C378
:100C16007480F090E6C214F000000090E6E27402E0
:100C2600F043B202D2067546017A0E793F120C6E77
:100C3600EDFFC39534FDEE9533FCC3E5349FEE64BA
:100C460080F8E53364809850067E007F0080047E3D
:100C5600087F00ED2FFFEC3EFE1224767BFF7A0E16
:100C66007952121FB90224C77BFF121FB990E6847E
:080C7600E0FE90E685E0FD229E
:10163300E58070047F0180027F00EF90E68030E058
:1016430006E04408F08004E054F7F0E54670033008
:101653000035E545454470067544087545FFE54585
:10166300154570021544E54545447004F546800F61
:10167300AE44AF457C027D3F1215A7EF20E0051273
:1016830024DC80031224D830050302171A90401F6C
:10169300E030E05C1224E0E4F090E6F574FFF0C281
:1016A300021213BDE490E6CEF000000090E6CFF006
:1016B30000000090E6D0F000000090E6D1F00000BA
:1016C3000000000090E6047482F00000007486F0CD
:1016D300000000E4F000000090E6917480F0000048
:1016E30000F0000000F0000000F00000001224E011
:1016F300E5BB30E72200000090E6AFE090E6B012D1
:101703001419FED3EF9400EE9400400BEE940250B4
:081713000690E6487406F0227E
:101A4800E4FF9040117404F0A374F0F0A37401F063
:101A5800E490E6CEF000000090E6CFF000000090A1
:101A6800E6D0F000000090E6D17420F00000007588
:101A7800BB06000000904019E4F01FEF600AE5BBC8
:101A880020E70500000080F2E4FDFCEDAE047802DA
:101A9800C333CE33CED8F92402F58274F81213C4B6
:101AA80074402FF58274E73EF583EBF0EDAE0478D1
:101AB80002C333CE33CED8F92403F58274F8121357
:101AC800C41213EEEBF00DBD00010CED64104C7068
:041AD800BA02242208
:101D1D00E4FF9040117404F0904013E4F090401EE5
:101D2D007481F0E490E6CEF000000090E6CFF00074
:101D3D00000090E6D0F000000090E6BEE0C31390E6
:101D4D00E6D1F075BB06000000904019E4F01FEFDE
:101D5D00600AE5BB20E70500000080F2E4FF90E695
:101D6D00BEE0FEEFC39E500B74402F121362E4F0E1
:061D7D000F80EB0224229E
:10005600E4F53AF53B754601121B6890E6B9E012E5
:10006600160D030A10031711032E12026E2002CA80
:100076002102D42202DA23035C3503563800DA392A
:10008600059391073CA2073CA30731A9070FAC08CB
:100096009EB30881B400C6B60860B705AABA05C9FA
:1000A600BB0138BC0376BE0538BF00C8C30362D0A7
:1000B600036BD1048ED200F9D40881FB0000092716
:1000C600800C1213A9FD90E6BAE0FB122033121A37
:1000D6004802059B90E6B8E020E74290E6BCE06067
:1000E6000A146003020929D20C8002C20C1223757D
:1000F60002092990E6B8E020E7231212EEF090E616
:10010600A0E020E1F990E6BCE090E740E0FF90E651
:10011600BCE0FEE42EF582E434400202CD90E6BC5B
:10012600E0FFE42FF582E43440F583E090E74002F7
:10013600032690E6B8E030E7030201FE90E6BEE053
:10014600D39400400B1212EEF090E6A0E020E1F905
:1001560090E6BEE0C39404402090E740E030E20A17
:1001660090E743E013920C12237590E740E030E1EC
:100176000890E742E090401FF090E6BEE0600A90EB
:10018600E740E020E003020929E5AC5401FFE5BBA6
:1001960054804F90E740F0E020E703020929E03061
:1001A600E0030209291213A94FFF90E6BDE04FFFB5
:1001B60090E6BAE04F7003D38001C3920290E6BB8B
:1001C600E090E6CEF000000090E6BAE090E6CFF0D0
:0301D60000000026
:1001D90090E6BDE090E6D0F0000000A202E433FF13
:1001E90090E6BCE04F90E6D1F000000075BB060038
:1001F900000002092990E6B0E090E740F090E6AFF0
:10020900E090E741F090E699E090E742F090E698B7
:10021900E090E743F090E614E090E744F090E61AA6
:10022900E090E745F090E635E090E746F090E63457
:10023900E090E747F0A3E5ACF090E6A9E090E74944
:10024900F090E654E090E74AF090E655E090E74BED
:10025900F03003047F0180027F0090E760EFF01225
:1002690012EE02070490E6BEE0B4021290E6BBE08B
:10027900C4333354C012132AF583EFF0802B90E670
:10028900BEE06403702390E6BBE0FF7401A8070891
:100299008002C333D8FC25E044C012132AF583EF4A
:1002A900F0121304E090E742F0121304E090E740E3
:1002B900F012138FFFA3E0121311E090E74102053A
:1002C900A2121321F583EFF0020929E490E68B804D
:1002D90006121321F583EFF090E6BC1214235403A0
:0802E9007A0012138C2BFFEACE
:1002F100121314EDF090E6BD12142312138C2BFF90
:10030100EA121314EDF00209291212EEF090E6A0A0
:10031100E020E1F9802C904015E090E740F090401A
:1003210016E090E741F0E490E68A0205A21212EE8F
:10033100F090E6A0E020E1F990E742E0540390401C
:1003410014F090E740E0904015F090E741E09040D4
:1003510016F002092990E6F574FFF0122422020931
:10036100290000001213BD020929000000E490E6F3
:1003710004F00209291212EEF090E6A0E020E1F962
:1003810090E740E0903263F0904000F090E741E068
:10039100903264F0904001F090E742E0903265F0D5
:1003A100904002F090E743E0903266F0904003F015
:1003B10090E744E0903267F0904004F090E745E028
:1003C100903268F0904005F090E746E0903269F095
:1003D100904006F090E747E090326AF0904007F0D5
:1003E10090E748E090326BF0904008F090E749E0E8
:1003F10090326CF0904009F090E74AE090326DF055
:1004010090400AF090E74BE090326EF090400BF094
:0F04110090E74CE090326FF090400CF090E74D88
:10042000E0903270F090400DF090E74EE090327125
:10043000F090400EF090E74FE0903272F090400F55
:10044000F090E750E0903273F0904010F090E75158
:10045000E0903274F0904011F090E752E0903275E5
:10046000F0904012F090E753E0903276F090401315
:10047000F0903259E0541FD394045003020929909C
:10048000E754E0903277F090401DF0020929903255
:1004900063E090E740F0903264E090E741F0903202
:1004A00065E090E742F0903266E090E743F09032EA
:1004B00067E090E744F0903268E090E745F09032D2
:1004C00069E090E746F090326AE090E747F09032BA
:1004D0006BE090E748F090326CE090E749F09032A2
:1004E0006DE090E74AF090326EE090E74BF090328A
:1004F0006FE090E74CF0903270E090E74DF0903272
:1005000071E090E74EF0903272E090E74FF0903259
:1005100073E090E750F0903274E090E751F0903241
:1005200075E090E752F0903276E090E753F0903229
:1005300077E090E7540205A290E6BEE07007904095
:1005400019F002092190E6BEE0640470359040196C
:10055000F0053DE53D7002053C121398904019E40A
:10056000F0053DE53D7002053C904017E090E74204
:10057000F0904018E090E743F090E68B7404F002AE
:10058000092912139890E68B7402F0904019E4F058
:1005900002092990325EE090E740F090E6BFE090DB
:1005A000E68AF090E6BEE0020921903261E0B401F3
:1005B0000890E74074BBF08008903259E090E74023
:1005C000F012134A04F0020929903261E0640160DC
:1005D000030206F812002E90E74074BBF090E6BBD1
:1005E000E0C313FFE5B154802FF5B1E090E6C4F00D
:1005F00090E6BAE090E6C5F090E6BDE090E6BC1269
:10060000141990325AF0A3EFF090325AE0FEA3E0B2
:10061000FF4E70030206F3E5BB30E7EDE5AB20E1EA
:10062000E830014CD3EF9400EE9402401C90E6D0E9
:100630007402F0000000E490E6D1F0000000903277
:100640005C7402F0A3E4F0807790325AE0FCA3E0FF
:10065000FDEC90E6D0F0000000ED90E6D1F0000057
:010660000099
:1006610090325AE0FFA3E0A3CFF0A3EFF0805090C7
:10067100325AE0FCA3E0FDD39440EC9400E4401B2B
:1006810090E6D0F000000090E6D17440F000000048
:1006910090325CE4F0A37440F0802490E6CFF090B7
:1006A100325AE0FAA3E0FBEA90E6D0F0000000EB5A
:1006B10090E6D1F000000090325CECF0A3EDF0E4A4
:1006C100F5BB000000E5BB30E7FB00000090325CA9
:1006D100E0FEA3E0FFC390325BE09FF090325AE06E
:1006E1009EF0E5B1547F04FFE5B154802FF5B102CE
:1006F10006091200468008903259E090E740F01256
:10070100134A04F090E6A0E04480F002092990E643
:10071100B5E054FEF090E6BFE01212EFF090E6BBB8
:10072100E090E6B3F090E6BAE090E6B4F002092971
:1007310090325F7401F0A3E04401F090E6BAE075F5
:0D0741003200F533A3E0FEEE423290E6BE3A
:10074E00E0753400F535A3E0FEEE423490E6B8E0F5
:10075E0064C06003020801E53545347003020929BF
:10076E0090E6A0E020E1F9C3E5359440E53494002D
:10077E005008853436853537800675360075374016
:10078E0090E6B9E064A3703B90E6BCE0B40116A31A
:10079E00E0701290E6BBE030E70B90E7407402F099
:1007AE00A314F08042E4F538F5391213B350381221
:1007BE0013D1E0FF12135EEFF00539E53970EB054A
:1007CE003880E7E4F538F5391213B3501012135E82
:1007DE0074CDF00539E53970EF053880EB121353FF
:1007EE00AF33AE32121EE712134AE537F012136A18
:1007FE0002076590E6B8E064406003020929E5351A
:10080E004534700302092912134AF090E6A0E02045
:10081E00E1F990E68BE0753600F53790E6B9E0B475
:10082E00A31EE4F538F5391213B3501E12135EE011
:10083E00FF1213D1EFF00539E53970EB053880E77B
:10084E00121353AF33AE321220D4E53712136A02AD
:10085E00080C90E6B8E030E70612142D02092112BA
:10086E0012F3F0903258E0448090401EF012225E57
:0A087E0002092990E6B8E020E71017
:100888001212EEF090E6A0E020E10302092980F4BC
:1008980012142D02092190E6BEE07014E090E68B58
:1008A800F01213A9FD90E6BAE0FB122033020929E1
:1008B80090E6BEE06411705D1212EFF090E6A0E0E1
:1008C80020E1F9E4F538F53990E740E0F53CE53CFE
:1008D800604FC3E5399402E53894005044E53C3054
:1008E800E023AF39C007E53925E0FFE53833FE746A
:1008F800422FF58274E73EF583E0FD1213EEE0FB2C
:10090800D0071220330539E53970020538E53CC3B4
:1009180013F53C80B990E6BEE090E68BF08002D3F8
:0309280022C322C5
:0217FE00D322F4
:0218FE00D322F3
:0224EA00D322FB
:101F7A0090E680E030E71800000090E6247402F052
:101F8A00000000E490E625F0000000D2018016006F
:101F9A000000E490E624F000000090E6257440F08A
:0F1FAA00000000C20190E6BAE0903256F0D32258
:0A248E0090325612134504F0D322D9
:0A24980090E6BAE0903257F0D3222C
:0A24A20090325712134504F0D322C4
:0224EC00D322F9
:0224EE00D322F7
:0224F000D322F5
:1022CE00C0E0C083C082C085C084C086758600D23F
:1022DE00071213857401F0D086D084D085D082D0B9
:0422EE0083D0E03287
:10233700C0E0C083C082C085C084C0861213827487
:0F23470004F0D086D084D085D082D083D0E0320D
:10235600C0E0C083C082C085C084C0861213827468
:0F23660002F0D086D084D085D082D083D0E032F0
:10213D00C0E0C083C082C085C084C086758600851E
:10214D00100C85110D1213F985080E85090F121447
:10215D00041213857410F0D086D084D085D082D02F
:04216D0083D0E03209
:1022F200C0E0C083C082C085C084C086758600D21B
:10230200091213857408F0D086D084D085D082D08B
:0423120083D0E03262
:101FF800C0E0C083C082C085C084C086758600905A
:10200800E680E030E71285080C85090D1213F98582
:10201800100E85110F1214041213857420F0D08647
:0B202800D084D085D082D083D0E0327D
:01002A0032A3
:0124F20032B7
:0124F30032B6
:0124F40032B5
:0124F50032B4
:0124F60032B3
:0124F70032B2
:0124F80032B1
:0124F90032B0
:0124FA0032AF
:0124FB0032AE
:0124FC0032AD
:0124FD0032AC
:0124FE0032AB
:0124FF0032AA
:0125000032A8
:0125010032A7
:0125020032A6
:0125030032A5
:0125040032A4
:0125050032A3
:0125060032A2
:0125070032A1
:0125080032A0
:01250900329F
:01250A00329E
:01250B00329D
:01250C00329C
:01250D00329B
:01250E00329A
:01250F003299
:012510003298
:012511003297
:012512003296
:012513003295
:012514003294
:101F3700AB07AA06AC05E4FD90325FE0600B7E00BC
:101F47000DEE247C1213E6EAF0AE050D747C2E121A
:101F570013E6EBF0AF050D747C2F1213E6ECF0904F
:101F67003260E0FF7A327B7C1223AF903260E0FF71
:031F7700022069DC
:1020D4008E3E8F3F8D408A418B42E4F543E543C3F6
:1020E40095405020053FE53FAE3E7002053E14FF8B
:1020F400E5422543F582E43541F583E0FD121F37BF
:05210400054380D92213
:101EE7008E3E8F3F8D408A418B42E4FDF543903211
:101EF7005FE06012E53EFF7E000DEE247CF582E494
:101F07003432F583EFF0AE050D747C2EF582E434A0
:101F170032F583E53FF0903260E0FF7A327B7C1246
:101F270023AF903260E0FFAB42AA41AD400223935A
:1023CB00A20C92033003051219B0800990401F74C0
:0B23DB0002F012171B12004602242221
:10237500A20C920330030890E45D7412F0800C9077
:0E238500401F7402F090E45D742DF0022422DB
:101E930090E67AE04401F0C2E990E678E04480F00D
:101EA30090E679741CF090E678E030E0F9EF44189E
:101EB30090E679F090E678E030E0F9EC90E679F09E
:101EC30090E678E030E0F9ED90E679F090E678E09E
:101ED3004440F090E678E030E0F990E678E020E6E0
:041EE300F9D2E92225
:0924AC000548E5487002054722CD
:0211A000C10A82
:1022840090327AEFF0F5CB8FCDAF0590327BEFF043
:10229400F5CA8FCCE4F5C8758E19D2BDD2AFD2ADD4
:0522A400D2CAF51C2266
:0D003600903278E0FF903279E0FD022284E4
:0824B500A20B920ED20BA20E45
:0124BD0022FC
:0824BE00A20B920FC20BA20F4A
:0124C60022F3
:0324E400AF1C2208
:0324E700A20B2223
:10245700AD07AC06C3E49DFBE49CFFEBFD022284C1
:05004E00C2CAC2AD2290
:03002B00021D8330
:101D8300C0E0C0F0C083C082C085C084C0867586B1
:101D930000C0D075D000C000C001C002C003C004A1
:061DA300C005C006C007E8
:101DA900300B0E300A04051C8007D20A1224ACC27B
:091DB9000A3005031224ACC2CF6C
:101DC200D007D006D005D004D003D002D001D00075
:101DD200D0D0D086D084D085D082D083D0F0D0E04D
:011DE20032CE
:03004300021800A0
:0300530002180090
:101800000222CE0002235600022337000222F200F9
:1018100002213D00021FF80002002A000224F2000B
:101820000224F3000224F4000224F5000224F6004E
:101830000224F7000224F8000224F9000224FA002E
:101840000224FB000224F2000224FC000224FD001A
:101850000224FE000224FF000225000002250100F0
:10186000022502000224F2000224F2000224F20007
:1018700002250300022504000225050002250600BA
:1018800002250700022508000225090002250A009A
:1018900002250B0002250C0002250D0002250E007A
:1018A00002250F000225100002251100022512005A
:0818B0000225130002251400BB
:1022060090E682E030E004E020E60B90E682E030E3
:10221600E119E030E71590E680E04401F07F147E96
:0C222600001218B890E680E054FEF02290
:1022A90090E682E044C0F090E681F04387010000A7
:0422B90000000022FF
:1021D700300C0990E680E0440AF0800790E680E042
:1021E7004408F07FDC7E051218B890E65D74FFF0B6
:0F21F70090E65FF05391EF90E680E054F7F0220E
:0824D000E4F51BD2E9D2AF22B2
:1020690090E678E020E6F9C2E990E678E04480F06D
:10207900EF25E090E679F090E678E030E0F990E637
:1020890078E04440F090E678E020E6F990E678E0E0
:0620990030E1D6D2E9227D
:1021A500A90790E678E020E6F9E51B702390E6782C
:1021B500E04480F0E925E090E679F08D16AF03A9BB
:1021C500077517018A188919E4F51A751B01D322B9
:0221D500C32223
:10217100A90790E678E020E6F9E51B702590E6785E
:10218100E04480F0E925E0440190E679F08D16AF56
:1021910003A9077517018A188919E4F51A751B0334
:0421A100D322C32260
:03004B0002143765
:10143700C0E0C083C082C085C084C086758600C0F6
:10144700D075D000C000C001C002C003C006C007ED
:1014570090E678E030E206751B0602152190E678E3
:10146700E020E10CE51B64026006751B07021521ED
:10147700E51B24FE605F14603624FE70030215121C
:1014870024FC700302151E24086003021521AB1704
:10149700AA18A919AF1A051A8F8275830012155851
:1014A70090E679F0E51A65167070751B05806B90EC
:1014B700E679E0AB17AA18A919AE1A8E82758300D0
:1014C700121585751B02E5166401704E90E678E0EB
:1014D7004420F08045E51624FEB51A0790E678E02B
:1014E7004420F0E51614B51A0A90E678E04440F077
:1014F700751B0090E679E0AB17AA18A919AE1A8EEA
:1015070082758300121585051A800F90E678E044EE
:1015170040F0751B008003751B005391DFD007D087
:1015270006D003D002D001D000D0D0D086D084D04E
:0815370085D082D083D0E032A0
:02223200A907FA
:10223400AE14AF158F828E83A3E064037017AD01D3
:1022440019ED7001228F828E83E07C002FFDEC3E1D
:09225400FEAF0580DF7E007F0073
:01225D00225E
:10239300122171E51B24FA600E146006240770F302
:0C23A300D322E4F51BD322E4F51BD32267
:1023AF001221A5E51B24FA600E146006240770F3B2
:0C23BF00D322E4F51BD322E4F51BD3224B
:1018B8008E328F3390E600E054187012E53324011D
:1018C800FFE43532C313F532EF13F533801590E694
:1018D80000E05418FFBF100BE53325E0F533E5327F
:1018E80033F532E5331533AE32700215324E6005EA
:0618F8001222BD80EE2269
:1022BD007400F58690FDA57C05A3E582458370F934
:0122CD0022EE
:0F24670090E608E04402F0D2DF75C05AD2C122DD
:10240F00151DA81DA60730C1FDC2C1A81DE6F5C147
:03241F00051D2276
:0924C70030C1FDC2C175C10D2236
:1023FB00AE07EEC3940AEE5004243080022437FF5C
:04240B0012240F2266
:10244600AD07EDC4540FFF1223FBED540FFF02231B
:01245600FB8A
:0E247600AB07AA06AF02122446AF03022446AB
:101FB900151D151D151DA81DA60308A60208A601B5
:101FC900A81D860308E6FA08E6F912153F6019A864
:101FD9001D8603080806E618860270010614F91220
:0F1FE900153FFF12240F80D8051D051D051D2271
:03000000021ADC05
:0C1ADC00787FE4F6D8FD758150021B23D2
:10153F00BB010689828A83E0225002E722BBFE02AA
:09154F00E32289828A83E49322DD
:10155800BB010CE58229F582E5833AF583E0225048
:1015680006E92582F8E622BBFE06E92582F8E22292
:0D157800E58229F582E5833AF583E49322AC
:10158500F8BB010DE58229F582E5833AF583E8F09C
:10159500225006E92582C8F622BBFE05E92582C848
:0215A500F22230
:1015A700BC000BBE0029EF8DF084FFADF022E4CC28
:1015B700F875F008EF2FFFEE33FEEC33FCEE9DECF1
:1015C700984005FCEE9DFE0FD5F0E9E4CEFD22ED37
:1015D700F8F5F0EE8420D21CFEADF075F008EF2F81
:1015E700FFED33FD4007985006D5F0F222C398FD72
:0515F7000FD5F0EA220F
:1015FC00EB9FF5F0EA9E42F0E99D42F0E89C45F045
:01160C0022BB
:10160D00D083D082F8E4937012740193700DA3A36C
:10161D0093F8740193F5828883E473740293686080
:06162D00EFA3A3A380DF80
:1023E600E4FFFE12153F600C0FEF70010E09E97055
:0523F600F20A80EF2255
:101AE8000211A3E493A3F8E493A34003F68001F260
:101AF80008DFF48029E493A3F85407240CC8C333FF
:101B0800C4540F4420C8834004F456800146F6DFCD
:101B1800E4800B0102040810204080901000E47E4D
:101B2800019360BCA3FF543F30E509541FFEE493C2
:101B3800A360010ECF54C025E060A840B8E493A389
:101B4800FAE493A3F8E493A3C8C582C8CAC583CAB4
:101B5800F0A3C8C582C8CAC583CADFE9DEE780BE6C
:0111A200004C
:00000001FF
