:1008B8001201000200000040051603800100010239
:1008C80000010A06000200000040010009022000A1
:1008D800010100A0320904000002FF000000070522
:1008E8000202000200070586020002000902200039
:1008F800010100A0320904000002FF000000070502
:1009080001024000000705810240000004030904B9
:1009180026034100430043004500530020004900DE
:100928002F004F002000500072006F006400750017
:1009380063007400730016035500530042002D0035
:0E094800440049004F002D0039003600000029
:03004300020800B0
:03005300020800A0
:10080000020D0800020DA400020D8E00020D5F0013
:10081000020B4C00020B8300020032000200420077
:1008200002005200020E0200020E0300020E04003B
:10083000020E0500020E0600020E0700020E08005E
:10084000020E090002004200020E0A00020E0B0016
:10085000020E0C00020E0D00020E0E00020E0F0022
:10086000020E10000200420002004200020042009C
:10087000020E1100020E1200020E1300020E1400EE
:10088000020E1500020E1600020E1700020E1800CE
:10089000020E1900020E1A00020E1B00020E1C00AE
:1008A000020E1D00020E1E00020E1F00020E20008E
:0808B000020E2100020E2200DD
:0A00360000010202030304040505A3
:10095600E4F50BF50AF509F508C203C200C202C2A6
:1009660001120D777523087524B8752B08752CCAE6
:100976007521087522D4752908752AF4752D09750F
:100986002E14D2E843D82090E668E04409F090E6B9
:100996005CE0443DF0D2AFD20412000390E680E062
:1009A60054F7F0538EF8C2033001051203C5C20195
:1009B6003003291200405024C203120CE320001613
:1009C60090E682E030E704E020E1EF90E682E03056
:1009D600E604E020E0E4120C8B1207FE120A738094
:0109E600C749
:1003C50090E6B9E070030204761470030204F32486
:1003D500FE700302057624FB70030204701470039B
:1003E50002046A146073146076240560030205D55F
:1003F500120DFA40030205E190E6BBE024FE6022FF
:1004050014603324FD601114602224067048E5232E
:1004150090E6B3F0E5248037E52B90E6B3F0E52CC4
:10042500802DE52590E6B3F0E5268023E52790E6C7
:10043500B3F0E528801990E6BAE0FF120CB7AA06DA
:10044500A9077B01EA494B600DEE90E6B3F0EF900A
:10045500E6B4F00205E10205DA120DCC0205E1125F
:100465000DE60205E1120DDE0205E1120DBA0205E7
:10047500E1120DFC40030205E190E6B8E0247F603F
:100485001514601924027063A200E43325E0FFA26D
:1004950002E4334F8041E490E740F0803F90E6BCB2
:1004A500E0547EFF7E00E0D394807C0040047D0113
:1004B50080027D00EC4EFEED4F2436F58274003E41
:1004C500F583E493FF3395E0FEEF24A1FFEE34E6D8
:1004D5008F82F583E0540190E740F0E4A3F090E6C5
:1004E5008AF090E68B7402F00205E10205DA120D3E
:1004F500FE40030205E190E6B8E024FE6016240202
:1005050060030205E190E6BAE0B40105C200020508
:10051500E10205DA90E6BAE0705590E6BCE0547E5B
:10052500FF7E00E0D394807C0040047D0180027D45
:1005350000EC4EFEED4F2436F58274003EF583E463
:1005450093FF3395E0FEEF24A1FFEE34E68F82F5AD
:1005550083E054FEF090E6BCE05480131313541F5F
:10056500FFE0540F2F90E683F0E04420F0806D808B
:1005750064120E00506690E6B8E024FE601924026D
:10058500705A90E6BAE0B40104D200804F90E6BA02
:10059500E064026047803E90E6BCE0547EFF7E004A
:1005A500E0D394807C0040047D0180027D00EC4E08
:1005B500FEED4F2436F58274003EF583E493FF3358
:1005C50095E0FEEF24A1FFEE34E68F82F5838008E7
:1005D500120056500790E6A0E04401F090E6A0E036
:0305E5004480F05F
:0105E80022F0
:0300330002004E7A
:04004E0053D8EF3262
:04004600022F000085
:0407FA0043B12022C5
:040DF60053B1DF22F4
:100D7700D200120DEE7580FF7590FF75B2FF75B347
:070D87001F75B620020DF6F6
:100A7300E5336035E530452F7006752F2F7530FF50
:100A8300E53015307002152FE530452F7004F5332E
:100A9300800FAE2FAF307C0B7DFF120740EF20E0BD
:100AA30005120DF680031207FAE5B190E68020E700
:0A0AB30005E04408F022E054F7F0DB
:010ABD002216
:02004000D322C9
:0207FE00D32204
:020DFA00D32202
:080DDE0090E6BAE0F534D322DF
:100DBA0090E740E534F0E490E68AF090E68B04F0A0
:020DCA00D32232
:080DE60090E6BAE0F531D322DA
:100DCC0090E740E531F0E490E68AF090E68B04F091
:020DDC00D32220
:020DFC00D32200
:020DFE00D322FE
:020E0000D322FB
:1000560075330190E678E05410C4540F4450F532DD
:1000660013E433F53590E6B9E012079500911000D8
:10007600EB1101361201D53001D531023FA2023F04
:10008600A30239A9020FAC000003C190E6BEE090BE
:10009600E68BF090E6A0E020E1F9E4F512F513AF67
:1000A6001374402FF582E434E7F583E0FEE425136C
:1000B600F58274803512F583EEF074462FF582E4EE
:1000C60034E7F583E0FF74082513F5827480351252
:1000D600F583EFF00513E513700205126406451269
:1000E60070BD0203C3E4F512F513E42513F582741B
:1000F600803512F583E0FFAE1374402EF582E434AA
:10010600E7F583EFF074082513F58274803512F550
:1001160083E0FF74462EF582E434E7F583EFF005BD
:1001260013E513700205126406451270BD0201FF45
:1001360090E6BEE090E68BF090E6A0E020E1F99034
:10014600E6BDE0FF90E6BCE04F701D90E6BAE054D5
:1001560001C454F0FF90E74DE0F4540F4FF5909032
:10016600E74CE0F4F580801C90E74CE0F4FF90E764
:100176004EE04FF58090E74DE0F4FF90E74FE04FFB
:10018600540FF590E4F512F513AF1374402FF58272
:10019600E434E7F583E0FEE42513F5827480351236
:1001A600F583EEF074462FF582E434E7F583E0FF3D
:1001B60074082513F58274803512F583EFF0051364
:1001C600E513700205126406451270BD0203C39062
:1001D600E740E580F0A3E590F0A3E5A0F0A3E5B045
:1001E600F0E5B130E4047F0180027F0090E6BAEFCB
:1001F600F0E5B1540F90E744F0E490E68AF090E61B
:10020600BEE090E68BF00203C390E6B5E054FEF044
:1002160090E6BFE090E68AF090E6BEE090E68BF0CE
:1002260090E6BBE090E6B3F090E6BAE090E6B4F074
:100236000203C375350143320190E6BAE0750C003E
:10024600F50DA3E0FEEE420C90E6BEE0750E00F55D
:100256000FA3E0FEEE420E90E6B8E064C060030233
:10026600032BE50F450E70030203C390E6A0E020C2
:10027600E1F9C3E50F9440E50E94005008850E1091
:10028600850F11800675100075114090E6B9E0B42F
:10029600A335E4F512F513C3E5139511E512951090
:1002A600505EE50D2513F582E50C3512F583E0FF6A
:1002B60074402513F582E434E7F583EFF00513E582
:1002C6001370D4051280D0E4F512F513C3E5139527
:1002D60011E5129510501874402513F582E434E7A1
:1002E600F58374CDF00513E51370E1051280DDADDD
:1002F600117AE779407F40AB07AF0DAE0C120ABE0C
:10030600E490E68AF090E68BE511F0250DF50DE513
:1003160010350CF50CC3E50F9511F50FE50E95108C
:10032600F50E02026890E6B8E0644060030203C37B
:10033600E50F450E70030203C3E490E68AF090E6EB
:100346008BF090E6A0E020E1F990E68BE0751000D6
:10035600F51190E6B9E0B4A335E4F512F513C3E55B
:10036600139511E5129510503674402513F582E465
:1003760034E7F583E0FFE50D2513F582E50C35122C
:10038600F583EFF00513E51370D4051280D0AD1197
:100396007AE779407F40AB07AF0DAE0C120BF0E564
:1003A60011250DF50DE510350CF50CC3E50F95116E
:0E03B600F50FE50E9510F50E020336D322C3A7
:0103C4002216
:100D0800C0E0C083C08290E6B5E04401F0D2015350
:0F0D180091EF90E65D7401F0D082D083D0E0328D
:100D8E00C0E0C083C0825391EF90E65D7404F0D052
:060D9E0082D083D0E03298
:100DA400C0E0C083C0825391EF90E65D7402F0D03E
:060DB40082D083D0E03282
:100B4C00C0E0C083C08290E680E030E70E852125AE
:100B5C00852226852927852A28800C852925852A02
:100B6C00268521278522285391EF90E65D7410F09D
:070B7C00D082D083D0E032EB
:100D5F00C0E0C083C082D2035391EF90E65D740868
:080D6F00F0D082D083D0E03205
:100B8300C0E0C083C08290E680E030E70E85212577
:100B9300852226852927852A28800C852925852ACB
:100BA300268521278522285391EF90E65D7420F056
:070BB300D082D083D0E032B4
:01003200329B
:01004200328B
:01005200327B
:010E020032BD
:010E030032BC
:010E040032BB
:010E050032BA
:010E060032B9
:010E070032B8
:010E080032B7
:010E090032B6
:010E0A0032B5
:010E0B0032B4
:010E0C0032B3
:010E0D0032B2
:010E0E0032B1
:010E0F0032B0
:010E100032AF
:010E110032AE
:010E120032AD
:010E130032AC
:010E140032AB
:010E150032AA
:010E160032A9
:010E170032A8
:010E180032A7
:010E190032A6
:010E1A0032A5
:010E1B0032A4
:010E1C0032A3
:010E1D0032A2
:010E1E0032A1
:010E1F0032A0
:010E2000329F
:010E2100329E
:010E2200329D
:0407BB00AA06AC05D9
:1007BF00E4FD7E000DEE2400F582E43400F583EABB
:1007CF00F00E0D74002EF582E43400F583EFF00D7A
:1007DF0074002402F582E43400F583ECF07A007B98
:0B07EF0000AF32120D43AF32020BBA14
:0A0BF0008E148F158D168A178B18CE
:100BFA00E4F519E519C3951650200515E515AE1447
:100C0A007002051414FFE5182519F582E43517F565
:0A0C1A0083E0FD1207BB051980D925
:010C240022AD
:0A0ABE008E148F158D168A178B1801
:100AC800E4FDF519E5356012E514FF7E000DEE240E
:100AD80000F582E43400F583EFF0AE050D74002EC6
:100AE800F582E43400F583E515F07A007B00AF3237
:0E0AF800120D43AB18AA17AD16AF32020D2730
:100C8B0090E682E030E004E020E60B90E682E03074
:100C9B00E119E030E71590E680E04401F07F147E27
:0C0CAB0000120B0690E680E054FEF022E0
:100CE30090E682E044C0F090E681F0438701000083
:040CF30000000022DB
:1000030030040990E680E0440AF0800790E680E03F
:100013004408F07FDC7E05120B0690E65D74FFF06A
:0F00230090E65FF05391EF90E680E054F7F02203
:080DEE00E4F51FD2E9D2AF22A7
:100BBA0090E678E020E6F9C2E990E678E04480F031
:100BCA00EF25E090E679F090E678E030E0F990E6FB
:100BDA0078E04440F090E678E020E6F990E678E0A4
:060BEA0030E1D6D2E92241
:100C5900A90790E678E020E6F9E51F702390E67889
:100C6900E04480F0E925E090E679F08D1AAF03A918
:100C790007751B018A1C891DE4F51E751F01D32206
:020C8900C32284
:100C2500A90790E678E020E6F9E51F702590E678BB
:100C3500E04480F0E925E0440190E679F08D1AAFB3
:100C450003A907751B018A1C891DE4F51E751F0381
:040C5500D322C322C1
:03004B000205E9C2
:1005E900C0E0C083C082C085C084C086758600C053
:1005F900D075D000C000C001C002C003C006C0074A
:1006090090E678E030E206751F060206D390E67898
:10061900E020E10CE51F64026006751F070206D39E
:10062900E51F24FE605F14603624FE70030206C4D1
:1006390024FC70030206D0240860030206D3AB1B16
:10064900AA1CA91DAF1E051E8F827583001206F113
:1006590090E679F0E51E651A7070751F05806B903C
:10066900E679E0AB1BAA1CA91DAE1E8E827583001C
:1006790012071E751F02E51A6401704E90E678E0B4
:100689004420F08045E51A24FEB51E0790E678E07F
:100699004420F0E51A14B51E0A90E678E04440F0CB
:1006A900751F0090E679E0AB1BAA1CA91DAE1E8E32
:1006B9008275830012071E051E800F90E678E044BC
:1006C90040F0751F008003751F005391DFD007D0DC
:1006D90006D003D002D001D000D0D0D086D084D0AB
:0806E90085D082D083D0E032FD
:020CB700A9078B
:100CB900AE2DAF2E8F828E83A3E064037017AD0132
:100CC90019ED7001228F828E83E07C002FFDEC3EAE
:090CD900FEAF0580DF7E007F0004
:010CE20022EF
:100D2700120C25E51F24FA600E146006240770F3E1
:0C0D3700D322E4F51FD322E4F51FD322E1
:100D4300120C59E51F24FA600E146006240770F391
:0C0D5300D322E4F51FD322E4F51FD322C5
:100B06008E0C8F0D90E600E054187012E50D24014E
:100B1600FFE4350CC313F50CEF13F50D801590E6C5
:100B260000E05418FFBF100BE50D25E0F50DE50CB0
:100B360033F50CE50D150DAE0C7002150C4E600567
:060B4600120CF780EE2204
:100CF7007400F58690FDA57C05A3E582458370F910
:010D070022C9
:030000000209E70B
:0C09E700787FE4F6D8FD758135020A2EF9
:1006F100BB010CE58229F582E5833AF583E02250BE
:1007010006E92582F8E622BBFE06E92582F8E22207
:0D071100E58229F582E5833AF583E4932221
:10071E00F8BB010DE58229F582E5833AF583E8F011
:10072E00225006E92582C8F622BBFE05E92582C8BD
:02073E00F222A5
:10074000BC000BBE0029EF8DF084FFADF022E4CC9D
:10075000F875F008EF2FFFEE33FEEC33FCEE9DEC66
:10076000984005FCEE9DFE0FD5F0E9E4CEFD22EDAC
:10077000F8F5F0EE8420D21CFEADF075F008EF2FF6
:10078000FFED33FD4007985006D5F0F222C398FDE7
:050790000FD5F0EA2284
:10079500D083D082F8E4937012740193700DA3A3F3
:1007A50093F8740193F5828883E473740293686007
:0607B500EFA3A3A380DF07
:1009F300020956E493A3F8E493A34003F68001F2BB
:100A030008DFF48029E493A3F85407240CC8C33304
:100A1300C4540F4420C8834004F456800146F6DFD3
:100A2300E4800B0102040810204080900046E47E1D
:100A3300019360BCA3FF543F30E509541FFEE493C8
:100A4300A360010ECF54C025E060A840B8E493A38F
:100A5300FAE493A3F8E493A3C8C582C8CAC583CABA
:100A6300F0A3C8C582C8CAC583CADFE9DEE780BE72
:01004A0000B5
:00000001FF
