:041DF60043B1402293
:041DFA0053B1BF2200
:041DFE0063B140226B
:011E190022A6
:011E1A0022A5
:011E1B0022A4
:011E1C0022A3
:011E1D0022A2
:1015DC00EF5407FE7401A806088002C333D8FCFE42
:1015EC00EF131313541FFFED601EEF14600E146005
:1015FC000F14601024037031EE428022EE429022D0
:10160C00EE42A022EE42B022EF14600F14601114CF
:10161C00601324037013EEF4528022EEF4529022E5
:09162C00EEF452A022EEF452B0DB
:011635002292
:10188C00EF54F824F8601024F8601024F860102449
:10189C0018700EAE80800AAE908006AEA08002AEAC
:1018AC00B0EF5407FF7401A807088002C333D8FCBB
:0B18BC005206EE60047F0180027F00F6
:0118C70022FE
:10000E00E580120EE9900001E590120EFB900002C1
:0D001E00E5A0120EFB900003E5B0020EFB02
:101A6200120EA3902861F0F580900001120EBC9036
:101A72002862F0F590900002120EBC902863F0F5F7
:0E1A8200A0900003120EBC902864F0F5B02274
:101B390090286074FFF090285FF090285EF090285C
:101B49005DF0902864F0902863F0902862F0902866
:031B590061F02216
:10136000E4F5B2F5B3F5B4F5B590285DE0FF9080F3
:1013700000F090285EE0FE908001F090285FE0FD94
:10138000908002F0902860E0FC908003F08FB28E95
:10139000B38DB48CB5902861E0F580A3E0F590A3FF
:1013A000E0F5A0A3E0F5B090285DE0F4908004F0B3
:1013B00090285EE0F4908005F090285FE0F4908043
:1013C00006F0902860E0F4908007F075B1BF75B624
:0213D0004422B5
:101D52008F248D25300603020B93AD25AF24120B81
:021D6200B222AB
:011E1E0022A1
:011E1F0022A0
:0D00360090286574FFF0A3F0A3F0A3F02262
:1013D200E4F5B2F5B3F5B4F5B5902865E0FF908079
:1013E20000F0902866E0FE908001F0902867E0FD12
:1013F200908002F0902868E0FC908003F08FB28E1B
:10140200B38DB48CB5902869E0F580A3E0F590A384
:10141200E0F5A0A3E0F5B0902865E0F4908004F038
:10142200902866E0F4908005F0902867E0F49080C0
:0C14320006F0902868E0F4908007F0229B
:100CDA00D2041203795003020DC290E6B9E0245EF1
:100CEA007003020DBB147003020DBB249160030252
:100CFA000DC0E490E68AF090E6BEE090E68BF090B4
:100D0A00E6A0E020E1F9E4F5B2F5B3F5B4F5B59063
:100D1A00E744E090285DF0908000F090E745E0908D
:100D2A00285EF0908001F090E746E090285FF0900E
:100D3A008002F090E747E0902860F0908003F090FE
:100D4A00E744E0F5B2A3E0F5B3A3E0F5B4A3E0F518
:100D5A00B590E740E0902861F0F58090E741E09097
:100D6A002862F0F59090E742E0902863F0F5A090B1
:100D7A00E743E0902864F0F5B090E744E0F490800F
:100D8A0004F090E745E0F4908005F090E746E0F43F
:100D9A00908006F090E747E0F4908007F090E6BA7A
:100DAA00E025E025E05404FFE5B154FB4FF5B1809E
:0A0DBA00071207FD8002D322C322B6
:100AC200001201000200000040051604800100012E
:100AD2000200010A06000200000040010009022093
:100AE20000010100A0FA0904000002FF0000000753
:100AF2000502020002000705860200020009022028
:100B020000010100A0FA0904000002FF0000000732
:100B120005010240000007058102400000140300A5
:100B220000000000000000000000000000000000C3
:100B320000260341004300430045005300200049C2
:100B4200002F004F002000500072006F00640075FB
:100B52000063007400730018035500530042002D17
:100B620000440049004F002D0033003200490000CC
:100B72000080818283848586879091929394959652
:100B820097A0A1A2A3A4A5A6A7B0B1B2B3B4B5B6CB
:100B9200B7C0D0C0E0EF900B7393900BAAF0ED902A
:100BA2000B7393900BACF0A2009200D0E0D0D02255
:100BB200C0D0C0E0EF900B7393900BC9F0ED900B97
:100BC2007393900BCCF0A200B39200D0E0D0D0226D
:050046000000000000B5
:101D14000252004702450046023B00000143010114
:051D24003E01013D013C
:071DE1008F2B8D2C8B2D22AE
:05002E008F2B8D2C2238
:071DE8008F2B8D2C8B2D22A7
:071DEF008F2B8D2C8B2D22A0
:060F7B008B648A658966A3
:100F8100E4F568E568C394004003021035E4F567B1
:100F9100E56875F00CA4AB642566F9E56535F0FAF2
:100FA100E56775F004A429F9EA35F0FA9000011219
:100FB1000EBC604DAA65A96675F00CE568A4F582C2
:100FC10085F08375F004E567120F1D120EBCFCE578
:100FD1006875F00CA429F9EA35F0FAE56775F004B3
:100FE100A429F9EA35F0FA900002120EBCFD900036
:100FF10003120EBCF52EAB05AD04AF68121DE180E6
:1010010022AB64AA65A96675F00CE568A4F5828532
:10101100F08375F004E567120F1D120EBCFDAF6879
:1010210012002E0567E567C394025003020F910574
:0410310068020F84BE
:011035002298
:101D3F00902803E07006902802E06003021BFD125A
:031D4F00004E2221
:101B7F007E007F6D7D007B017A287900120F4F90D8
:101B8F0028007409F0E4A3F0121B39121360021C31
:011B9F00D273
:101C1B007D021216DF902800E0B40904A3E06003F4
:0C1C2B00021B7F7D6D1216DF1213602279
:101CD2007A287B007D6D7F017E1F1219357D6D7F15
:061CE200007E1F021E0E31
:10143E00121D3F90E6BEE0F52E753002E52E605788
:10144E00C394405005852E2F8003752F40E490E6FF
:10145E008AF090E68BE52FF090E6A0E020E1F9E42B
:10146E00F52DE52DC3952F50257440252DF582E4DD
:10147E0034E7F583E0FFAE300530EE7C007B0124CF
:10148E0000F9EC3428FAEF120EE9052D80D4C3E5ED
:0A149E002E952FF52E80A5021D3FAC
:011E2000229F
:0D1D97008E548F558C568D578A588B5922CB
:0D1DA4008E198F1A8C1B8D1C8A1D8B1E2220
:0F1D8800D3E50C9541E50B95404003121DB122A8
:011E2100229E
:101B5C00902805E0FE902804E07C002400F541EC80
:101B6C003EF54045417007C28CC2A9C20522D28CF9
:031B7C00D2A922C9
:011E2200229D
:1018090090E6BEE090E68BF090E6A0E020E1F9E4F6
:10181900FF74422FF582E434E7F583E0FEEF7C00A4
:101829007B012465F9EC3428FAEE120EE90FBF08A2
:10183900E090E740E0902804F090E741E090280527
:04184900F0021B5C32
:0B1DB1001213D2E4F50BF50CD2052252
:101C8A00E4F50BF50CC28CC2A9538EF75389F143C4
:081C9A008901121E22021B5CED
:101A0200E53C453B6017E53C153C7002153B14C3B1
:101A120094FFE53B648094805016021DFA30041056
:101A2200753B02753CFF121DF6C204E4F50BF50C82
:011A32002291
:10099B0090E6B8E020E703020A50E4F52C90280417
:1009AB00E0FFAE2C052C74402EF582E434E7F58382
:1009BB00EFF0902805E0FFAE2C052C74402EF5824D
:1009CB00E434E7F583EFF0E4F52BE52BC394085003
:1009DB00247E007B017465252BF9EE3428FA120E68
:1009EB00A3FF7440252CF582E434E7F583EFF00583
:1009FB002B052C80D5AE2C052C74402EF582E434BF
:100A0B00E7F583E50CF0E50BFFAE2C052C74402EBF
:100A1B00F582E434E7F583EFF0A205E433FFAE2C67
:100A2B00052C74402EF582E434E7F583EFF0C20514
:100A3B00E490E68AF090E6BEE090E68BF090E6A0BC
:100A4B00E04480F02290E6BEE090E68BF090E6A0CA
:100A5B00E020E1F990E6BEE06408705AE4F52CAFB3
:100A6B002C052C74402FF582E434E7F583E09028B5
:100A7B0004F0AF2C052C74402FF582E434E7F5839A
:100A8B00E0902805F0E4F52BE52BC3940850247473
:100A9B0040252CF582E434E7F583E0FFE52B7C0061
:100AAB007B012465F9EC3428FAEF120EE9052B05CE
:060ABB002C80D5121B5C2B
:010AC1002212
:041E02007543012201
:10151200121D3F90E6BEE0F52EE4F530E52E605751
:10152200C394405005852E2F8003752F40E490E62A
:101532008AF090E68BE52FF090E6A0E020E1F9E456
:10154200F52DE52DC3952F50257440252DF582E408
:1015520034E7F583E0FFAE300530EE7C007B0124FA
:101562001BF9EC3428FAEF120EE9052D80D4C3E5FD
:071572002E952FF52E80A538
:01157900224F
:10168D001543E543704B90281BE0F543121E1EE4F5
:10169D00F52190285CE0FFE521C39F5031E5212520
:1016AD00E0241CF582E43428F583E0F522E52125BC
:1016BD00E0241DF582E43428F583E0F523547FFD05
:1016CD00E523339206AF22121D52052180C4121E4E
:0116DD001FED
:0116DE0022E9
:101BA00090E6BEE090E68BF090E6A0E020E1F990B0
:101BB000E740E0902806F090E741E0902807F02207
:1012D500153EE53E600302135F902806E0F53E7B70
:1012E500017A28799D12000EE4FFFE749D2EF58289
:1012F500E43428F583E0FD746D2EF582E43428F599
:1013050083E06DF97D01E4FCECC394085046E95D8A
:10131500602974712FF582E43428F583E014F074A4
:10132500712FF582E43428F583E07020746D2EF575
:1013350082E43428F583E06DF08000902807E0FB17
:1013450074712FF582E43428F583EBF00CED25E07C
:0A135500FD0F80B40EEE64047091E9
:01135F00226B
:101CA20090E6BEE090E68BF090E6A0E020E1F990AD
:081CB200E740E0902808F02251
:101A9000E4FF74912FF582E43428F583E4F074991F
:101AA0002FF582E43428F58374FFF074952FF582C6
:0B1AB000E43428F583E4F00FBF04D7F6
:011ABB002208
:10157A00153DE53D705B902808E0F53D7B017A2832
:10158A00799112000EE4FF74992FF582E43428F55C
:10159A0083C083C082E0FE74912FF582E43428F57B
:1015AA0083E0FDEE5DD082D083F074952FF582E45E
:1015BA003428F583C083C082E0FE74912FF582E45B
:1015CA003428F583E0FDEE4DD082D083F00FBF04BE
:0115DA00B65A
:0115DB0022ED
:041E060075420122FE
:101036001542E542603DE4F52190281AE0FFE521DE
:10104600C39F507C744A2521F8E6602316E6701F7C
:10105600E52125E0240AF582E43428F583E0FE54F0
:101066007FFFEE30E7047D0080027D011215DC056E
:101076002180C6902809E0F542E4F52190281AE07F
:10108600FFE521C39F5039E52125E0240BF582E4D5
:101096003428F583E0FF744A2521F8A607E52125C3
:1010A600E0240AF582E43428F583E0FE547FFFEE5F
:1010B60030E7047D0180027D001215DC052180BC2D
:0110C6002207
:10199E0090E6BEE090E68BF090E6A0E020E1F9E460
:1019AE00FF74402FF582E434E7F583E0FEEF7C0010
:1019BE007B012409F9EC3428FAEE120EE90FBF125E
:0119CE00E038
:0119CF0022F5
:10005600E4F52C90E6B8E030E77790E6BEE0FF7076
:100066000490E68BF0BF010D90E740746DF090E6CA
:100076008B7401F01FEF605190E6A0E020E1F9EFEC
:10008600C3944050048F2B8003752B40E4FEEEC3CF
:10009600952B5023AD2C052C7C007B0174002DF98B
:1000A600EC3428FA120EA3FD74402EF582E434E7F0
:1000B600F583EDF00E80D7E490E68AF090E68BE5C6
:1000C6002BF0C3EF952BFF80AC90E6A0E04480F0C8
:1000D6002290E6BFE0FF90E6BEE04F707790E6BD67
:1000E600E0704D90E6BCE024EF6023249F6030244E
:1000F600FD603324F360342472703590E6BAE06410
:10010600CE702DA3E064AC7027121CD2802290E63C
:10011600BAE0B4CE1BA3E0B4AC16121B7F8011E488
:1001260090281AF0800A7542018005E490285CF058
:1001360090E6BDE06480600302037890E6BCE0646C
:1001460001600302037890E6BAE0902802F090E698
:10015600BB02020B90E6BFE0600302037890E6BDA7
:10016600E0FE90E6BCE07C002400FFEC3EFE60036F
:10017600020378EF120F2901B12001B12101B1224A
:1001860001B12301E62F021341022151022F53022E
:100196004F61025D63027D71028B7302AB740300D3
:1001A60081030B830328840000037890E6BEE0B445
:1001B6006B0312143E90E6BCE030E003121360902D
:1001C600E6BCE020E10302037890E6BAE064CE6084
:1001D60003020378A3E064AC6003020378021CD236
:1001E60090E6BEE064026003020378E090E68BF0DE
:1001F60090E6A0E020E1F9121D3F90E740E090284C
:1002060002F090E741E0902803F0021D3F90E6BE21
:10021600E0640A600302037802180990E6BEE0640F
:10022600026003020378021BA090E6BEE064016050
:1002360003020378E090E68BF090E6A0E020E1F977
:1002460090E740E0902806F02290E6BEE064016068
:1002560003020378021CA290E6BEE064016003027A
:100266000378E090E68BF090E6A0E020E1F990E7D5
:1002760040E0902808F02290E6BEE0641260030297
:10028600037802199E90E6BEE064016003020378DB
:10029600E090E68BF090E6A0E020E1F990E740E000
:1002A600902809F02290E6BEE0640260030203781B
:1002B60090281AE0C39408400302037890E6BEE053
:1002C60090E68BF090E6A0E020E1F990E740E0FFB1
:1002D60090281AE0FE25E02408F582E43428F58308
:1002E600EFF090E741E0FFEE25E02409F582E434E3
:1002F60028F583EFF090281A807590E6BEE06442F8
:10030600707002151290E6BEE064017065E090E63A
:100316008BF090E6A0E020E1F990E740E090281B02
:10032600F02290E6BEE06402704890285CE0C39438
:1003360020503F90E6BEE090E68BF090E6A0E020ED
:10034600E1F990E740E0FF90285CE0FE25E0241A02
:10035600F582E43428F583EFF090E741E0FFEE25DF
:10036600E0241BF582E43428F583EFF090285CE066
:0203760004F091
:010378002262
:10184D00E4F52A7AE779407F40AB077D087FF87E83
:10185D001D1216E7E4F52A7440252AF582E434E7D3
:10186D00F583E0FDE52A75F002A42421F9740B350A
:0E187D00F08982F583EDF0052AE52AB408D93A
:01188B00223A
:10177A0090E600E054E7F0438E2012004E121E1944
:10178A00121DD990E678E05410FFC4540F4450F566
:10179A004413E433F54812184D121E1AD200121CD3
:1017AA001B121E1F121E02121C8A121A90121E06E9
:0917BA00121D3F121DFA021E1B54
:101BDF00121E1C121A02121D88E5B190E68020E732
:0E1BEF0006E04408F08004E054F7F0021E1DEA
:061636008B698A6A896BD2
:10163C00E4F56C121D2A8F6DE56D25E02402900BEC
:10164C0059F0E4F56CAF6DEF3395E0FEC3E56C9F9C
:10165C00EE6480F87480985027AB69AA6AA96B85F0
:10166C006C82758300120EBCFDE56C75F002A4242F
:10167C005BF9740B35F08982F583EDF0056C80C550
:01168C00223B
:06172F008E398F3AAC0573
:10173500E4FDE5486012E539FF7E000DEE2553F521
:1017450082E43552F583EFF0AE050DE5532EF582B3
:10175500E43552F583E53AF0AF050DE5532FF582F3
:10176500E43552F583ECF0AB53AA52AF44121C5347
:05177500AF440218FF63
:031E0E0002172F89
:0A1935008E338F348D358A368B37E0
:10193F00E4F538E538C3953550200534E534AE333A
:10194F007002053314FFE5372538F582E43536F597
:0A195F0083E0FD121E0E053880D94A
:01196900225B
:0816DF007A287B007F017E1FC9
:0A16E7008E338F348D358A368B3731
:1016F100E4FDF538E5486012E533FF7E000DEE2587
:1017010053F582E43552F583EFF0AE050DE5532E26
:10171100F582E43552F583E534F0AB53AA52AF4478
:0E172100121C53AB37AA36AD35AF44021C374D
:1007FD0090E6BAE0752B00F52CA3E0FEEE422B90AF
:10080D00E6BEE0752D00F52EA3E0FEEE422D90E63E
:10081D00B8E064C06003020908E52E452D7003029F
:10082D00099A90E6A0E020E1F9C3E52E9440E52D6C
:10083D0094005008852D2F852E308006752F00755C
:10084D00304090E6B9E064A3705790E6BCE0B40187
:10085D001BA3E0701790E6BBE030E71090E7407403
:10086D0003F0A37401F0A37403F0806AE4F531F58D
:10087D0032C3E5329530E531952F505AE52C2532AE
:10088D00F582E52B3531F583E0FF74402532F58295
:10089D00E434E7F583EFF00532E53270D4053180AD
:1008AD00D0E4F531F532C3E5329530E531952F5071
:1008BD001874402532F582E434E7F58374CDF005E4
:1008CD0032E53270E1053180DDAD307AE77B40AF46
:1008DD002CAE2B1216E7E490E68AF090E68BE5300D
:1008ED00F0252CF52CE52F352BF52BC3E52E95306A
:1008FD00F52EE52D952FF52D02082690E6B8E0642E
:10090D0040600302099AE52E452D700302099AE411
:10091D0090E68AF090E68BF090E6A0E020E1F99069
:10092D00E68BE0752F00F53090E6B9E0B4A335E421
:10093D00F531F532C3E5329530E531952F503274EE
:10094D00402532F582E434E7F583E0FFE52C2532CE
:10095D00F582E52B3531F583EFF00532E53270D4B4
:10096D00053180D0AD307AE77B40AF2CAE2B12191C
:10097D0035E530252CF52CE52F352BF52BC3E52E44
:0D098D009530F52EE52D952FF52D0209135F
:01099A00223A
:100DC400E4FF90E6B8E020E703020EA20F0F7440A0
:100DD4002401F582E434E7F5837409F00F744024A8
:100DE40002F582E434E7F583E4F00F74402403F55C
:100DF40082E434E7F583E4F00F74402404F582E4DC
:100E040034E7F5837404F00F74402405F582E43468
:100E1400E7F5837404F00F74402406F582E434E7A4
:100E2400F583E4F00F74402407F582E434E7F58396
:100E3400E4F00F74402408F582E434E7F58374FF8A
:100E4400F00F74402409F582E434E7F58374FFF06D
:100E54000F7440240AF582E434E7F5837408F00F34
:100E64007440240BF582E434E7F5837420F00F74A6
:100E740040240CF582E434E7F583741FF00F7440CA
:100E8400240DF582E434E7F583741FF090E740EF16
:0E0E9400F0E490E68AF090E6BEE090E68BF087
:010EA200222D
:0B1DBC00E54145407003D38001C322C5
:0210FE00D322FB
:021E1100D322DA
:0800030090E6BAE0F547D322B4
:101D640090E740E547F0E490E68AF090E68B04F0D3
:021D7400D32278
:081DD10090E6BAE0F53FD322D1
:101D760090E740E53FF0E490E68AF090E68B04F0C9
:021D8600D32266
:021E1300D322D8
:021E1500D322D6
:021E1700D322D4
:1003790090E6B9E0120F2903C91003C91103F71454
:1003890004681504D22004F721050A22052A23044A
:100399009325052A2703B72E03B13C03C33F03BDA9
:1003A900A203BDA3000005D41200560205D6120906
:1003B9009B0205D61207FD0205D6120DC40205D609
:1003C90090E6B8E030E70C7B017AE7794012000E3D
:1003D90002048C90E6BEE090E68BF090E6A0E02067
:1003E900E1F97B017AE77940121A620205D6E4F550
:1003F9002A7491252AF582E43428F583E0FF7440B4
:10040900252AF582E434E7F583EFF0052AE52AB4D5
:1004190004DFE4F52A7499252AF582E43428F58362
:10042900E0FF7444252AF582E434E7F583EFF0050B
:100439002AE52AB404DFE4F52A7495252AF582E42D
:100449003428F583E0FF7448252AF582E434E7F57A
:1004590083EFF0052AE52AB404DF121A908024E418
:10046900F52A746D252AF582E43428F583E0FF74B2
:1004790040252AF582E434E7F583EFF0052AE52AD9
:10048900B404DFE490E68AF0805290E6BEE070049E
:100499007F0180027F00AE07E4FCFAECC3940050B0
:1004A90026E4F52AE52AC394035019AF04AB02AD3B
:1004B9002A121DEF052AEE60047F0380027F02EFF6
:1004C9002AFA80E00C80D4801390E6BAE0FFA3E01A
:1004D900FEC413135403FDE4FB121DEF90E6BEE0C6
:1004E90090E68BF090E6A0E04480F00205D6E49017
:1004F900E68BF090E6BAE0FFA3E0FD12002E0205BC
:10050900D6E490E68BF090E6BAE0FFA3E0FEC413D0
:10051900135403FDA3E0FBA3E0F52E121DE8020529
:10052900D690E6BEE0701590E6BAE0FFA3E0FDA321
:10053900E0FBA3E0F52E121DE10205D690E6BEE030
:1005490060030205D6E090E68BF090E6A0E020E19A
:10055900F9E4F52AE52AC394005072E4FE75F0091E
:10056900E52AA4F58285F08375F003EE120F1DE5E7
:10057900822440F582E58334E7F583E0FD75F009CF
:10058900E52AA4F58285F08375F003EE120F1DE5C7
:10059900822441F582E58334E7F583E0FB75F009B0
:1005A900E52AA4F58285F08375F003EE120F1DE5A7
:1005B900822442F582E58334E7F583E0F52EAF2AFC
:0E05C900121DE10EBE0396052A8089C322D3BF
:0105D7002201
:101BC000C0E0C083C08290E6B5E04401F0D201538A
:0F1BD00091EF90E65D7401F0D082D083D0E032C7
:101CE800C0E0C083C0825391EF90E65D7404F0D0E9
:061CF80082D083D0E0322F
:101CFE00C0E0C083C0825391EF90E65D7402F0D0D5
:061D0E0082D083D0E03218
:1010C700C0E0C083C08290E680E030E70E85090F5C
:1010D700850A10851311851412800C85130F85144A
:1010E70010850911850A125391EF90E65D7410F08F
:0710F700D082D083D0E0326B
:101CBA00C0E0C083C082D2035391EF90E65D7408FE
:081CCA00F0D082D083D0E0329B
:1018C800C0E0C083C08290E680E030E70E85090F53
:1018D800850A10851311851412800C85130F851441
:1018E80010850911850A125391EF90E65D7420F076
:0718F800D082D083D0E03262
:011E2300328C
:011E2400328B
:011E2500328A
:011E26003289
:011E27003288
:011E28003287
:011E29003286
:011E2A003285
:011E2B003284
:011E2C003283
:011E2D003282
:011E2E003281
:011E2F003280
:011E3000327F
:011E3100327E
:011E3200327D
:011E3300327C
:011E3400327B
:011E3500327A
:011E36003279
:011E37003278
:011E38003277
:011E39003276
:011E3A003275
:011E3B003274
:011E3C003273
:011E3D003272
:011E3E003271
:011E3F003270
:011E4000326F
:011E4100326E
:011E4200326D
:011E4300326C
:011E4400326B
:011E4500326A
:011E46003269
:101BFD00902803E0FFF5CB8FCD902802E0FFF5CACA
:0E1C0D008FCCE4F5C8D2BDD2AFD2ADD2CA2280
:05004E00C2CAC2AD2290
:03002B000214A814
:1014A800C0E0C0F0C083C082C0D075D000C000C00A
:1014B80001C002C003C004C005C006C007121DFE5B
:1014C800902806E060031212D5902808E060031205
:1014D800157A90281AE0600312103690285CE060B4
:1014E8000990281BE0600312168D121DFEC2CFD092
:1014F80007D006D005D004D003D002D001D000D048
:0A150800D0D082D083D0F0D0E032C2
:0A1DC70000010202030304040505F5
:03000B00021C6F65
:101C6F00C0E0C0D00508E508B43C0B050CE50C70CE
:0B1C7F0002050B750800D0D0D0E03249
:1011B800E4F529F528F527F526C203C200C202C2C4
:1011C8000112177A750D0A750EC375150A7516D5AD
:1011D80075090A750ADF75130A7514FF75170B75FB
:1011E800181FD2E843D82090E668E04409F090E65A
:1011F8005CE0443DF0D2AFD207121A3390E680E0AB
:1012080054F7F0538EF8C2033001051205D8C20115
:10121800300329121DBC5024C203121B14200016CF
:1012280090E682E030E704E020E1EF90E682E030EB
:10123800E604E020E0E4121ABC1210FE121BDF8064
:01124800C7DE
:1005D80090E6B9E070030206891470030207062446
:1005E800FE700302078924FB70030206831470035C
:1005F80002067D146073146076240560030207E91F
:10060800121E1140030207F590E6BBE024FE6022AB
:1006180014603324FD601114602224067048E50D2F
:1006280090E6B3F0E50E8037E51590E6B3F0E516F1
:10063800802DE50F90E6B3F0E5108023E51190E6F4
:10064800B3F0E512801990E6BAE0FF121AE8AA069C
:10065800A9077B01EA494B600DEE90E6B3F0EF90F5
:10066800E6B4F00207F50207EE121D760207F5124E
:100678001DD10207F51200030207F5121D640207D7
:10068800F5121E1340030207F590E6B8E0247F60D8
:100698001514601924027063A200E43325E0FFA258
:1006A80002E4334F8041E490E740F0803F90E6BC9D
:1006B800E0547EFF7E00E0D394807C0040047D01FE
:1006C80080027D00EC4EFEED4F24C7F582741D3E7E
:1006D800F583E493FF3395E0FEEF24A1FFEE34E6C3
:1006E8008F82F583E0540190E740F0E4A3F090E6B0
:1006F8008AF090E68B7402F00207F50207EE121EEC
:100708001540030207F590E6B8E024FE60162402BF
:1007180060030207F590E6BAE0B40105C2000207DB
:10072800F50207EE90E6BAE0705590E6BCE0547E1C
:10073800FF7E00E0D394807C0040047D0180027D30
:1007480000EC4EFEED4F24C7F582741D3EF583E4A0
:1007580093FF3395E0FEEF24A1FFEE34E68F82F598
:1007680083E054FEF090E6BCE05480131313541F4A
:10077800FFE0540F2F90E683F0E04420F0806E8075
:1007880065121E17506790E6B8E024FE601A24022E
:10079800705B90E6BAE0B40104D200805090E6BAEB
:1007A800E0B402028047803E90E6BCE0547EFF7EC3
:1007B80000E0D394807C0040047D0180027D00EC41
:1007C8004EFEED4F24C7F582741D3EF583E493FF7A
:1007D8003395E0FEEF24A1FFEE34E68F82F58380A7
:1007E80008120CDA500790E6A0E04401F090E6A069
:0407F800E04480F069
:0107FC0022DA
:03003300021E0AA0
:041E0A0053D8EF3288
:101ABC0090E682E030E004E020E60B90E682E03035
:101ACC00E119E030E71590E680E04401F07F147EE8
:0C1ADC00001217C390E680E054FEF022D8
:101B140090E682E044C0F090E681F0438701000043
:041B2400000000229B
:101A330030070990E680E0440AF0800790E680E0F2
:101A43004408F07FDC7E051217C390E65D74FFF057
:0F1A530090E65FF05391EF90E680E054F7F022B9
:081DD900E4F563D2E9D2AF2268
:1018FF0090E678E020E6F9C2E990E678E04480F0DF
:10190F00EF25E090E679F090E678E030E0F990E6A8
:10191F0078E04440F090E678E020E6F990E678E051
:06192F0030E1D6D2E922EE
:1019D000A90790E678E020E6F9E563702390E678C1
:1019E000E04480F0E925E090E679F08D5EAF03A950
:1019F00007755F018A608961E4F562756301D3222E
:021A0000C322FF
:10196A00A90790E678E020E6F9E563702590E67825
:10197A00E04480F0E925E0440190E679F08D5EAF1D
:10198A0003A907755F018A608961E4F562756303DB
:04199A00D322C3226F
:03004B00020BD2D3
:100BD200C0E0C083C082C085C084C086758600C064
:100BE200D075D000C000C001C002C003C006C0075B
:100BF20090E678E030E206756306020CBC90E67877
:100C0200E020E10CE56364026006756307020CBC38
:100C1200E56324FE605F14603624FE7003020CADAF
:100C220024FC7003020CB924086003020CBCAB5F05
:100C3200AA60A961AF6205628F82758300120EBC41
:100C420090E679F0E562655E7070756305806B9081
:100C5200E679E0AB5FAA60A961AE628E827583001D
:100C6200120EFB756302E55E6401704E90E678E059
:100C72004420F08045E55E24FEB5620790E678E008
:100C82004420F0E55E14B5620A90E678E04440F054
:100C920075630090E679E0AB5FAA60A961AE628EEF
:100CA20082758300120EFB0562800F90E678E044A5
:100CB20040F075630080037563005391DFD007D065
:100CC20006D003D002D001D000D0D0D086D084D0BC
:080CD20085D082D083D0E0320E
:021AE800A9074C
:101AEA00AE17AF188F828E83A3E064037017AD011F
:101AFA0019ED7001228F828E83E07C002FFDEC3E6F
:091B0A00FEAF0580DF7E007F00C4
:011B130022AF
:101C370012196AE56324FA600E146006240770F32C
:0C1C4700D322E4F563D322E4F563D3223A
:101C53001219D0E56324FA600E146006240770F3AA
:0C1C6300D322E4F563D322E4F563D3221E
:1017C3008E2A8F2B90E600E054187012E52B24012B
:1017D300FFE4352AC313F52AEF13F52B801590E6A2
:1017E30000E05418FFBF100BE52B25E0F52BE52A8D
:1017F30033F52AE52B152BAE2A7002152A4E600508
:06180300121B2880EE22FA
:101B28007400F58690FDA57C05A3E582458370F9D0
:011B3800228A
:03004300021100A7
:0300530002110097
:10110000021BC000021CFE00021CE800021CBA0008
:101110000210C7000218C800021E2300021E24008D
:10112000021E2500021E2600021E2700021E2800A5
:10113000021E2900021E2A00021E2B00021E2C0085
:10114000021E2D00021E2400021E2E00021E2F0071
:10115000021E3000021E3100021E3200021E330049
:10116000021E3400021E2400021E2400021E24005F
:10117000021E3500021E3600021E3700021E380015
:10118000021E3900021E3A00021E3B00021E3C00F5
:10119000021E3D00021E3E00021E3F00021E4000D5
:1011A000021E4100021E4200021E4300021E4400B5
:0811B000021E4500021E46006C
:03000000021249A0
:0C124900787FE4F6D8FD75816E021290EB
:100EA300BB010689828A83E0225002E722BBFE024D
:090EB300E32289828A83E4932280
:100EBC00BB010CE58229F582E5833AF583E02250EB
:100ECC0006E92582F8E622BBFE06E92582F8E22235
:0D0EDC00E58229F582E5833AF583E493224F
:100EE900BB010689828A83F0225002F722BBFE01E8
:020EF900F322E2
:100EFB00F8BB010DE58229F582E5833AF583E8F02D
:100F0B00225006E92582C8F622BBFE05E92582C8D8
:020F1B00F222C0
:0C0F1D00A42582F582E5F03583F58322DF
:100F2900D083D082F8E4937012740193700DA3A357
:100F390093F8740193F5828883E47374029368606B
:060F4900EFA3A3A380DF6B
:101D2A00E4FFFE120EA3600C0FEF70010E09E970BA
:051D3A00F20A80EF2217
:100F4F00EF4E6012EF60010EEDBB010B89828A83B9
:100F5F00F0A3DFFCDEFA2289F05007F709DFFCA9C6
:0C0F6F00F022BBFEFCF309DFFCA9F0221D
:101255000211B8E493A3F8E493A34003F68001F2E6
:1012650008DFF48029E493A3F85407240CC8C3339A
:10127500C4540F4420C8834004F456800146F6DF69
:10128500E4800B0102040810204080901D14E47EC8
:10129500019360BCA3FF543F30E509541FFEE4935E
:1012A500A360010ECF54C025E060A840B8E493A325
:1012B500FAE493A3F8E493A3C8C582C8CAC583CA50
:1012C500F0A3C8C582C8CAC583CADFE9DEE780BE08
:011D290000B9
:00000001FF
