:0A116900000102020303040405055F
:1005E200E4F52DF52CF52BF52AC20AC207C209C281
:1005F20008120A387E0C7F008E448F45754C0C75AC
:100602004D1275420C75431C754A0C754B3C754E68
:100612000C754F6AEE54E07003020728752E0075C0
:100622002F808E308F31C374AE9FFF740C9ECF2407
:1006320002CF3400FEE48F298E28F527F526F52512
:10064200F524F523F522AF29AE28AD27AC26AB253C
:10065200AA24A923A822C3120D8B5026E52F2525F3
:10066200F582E52E3524F58374CDF0E5252401F5D8
:1006720025E43524F524E43523F523E43522F52257
:1006820080C4E4F525F524F523F522AF29AE28AD83
:1006920027AC26AB25AA24A923A822C3120D8B506E
:1006A20033E5312525F582E5303524F583E0FFE594
:1006B2002F2525F582E52E3524F583EFF0E5252457
:1006C20001F525E43524F524E43523F523E4352228
:1006D200F52280B7852E44852F4574002480FF744F
:1006E2000C34FFFEC3E54D9FF54DE54C9EF54CC322
:1006F200E5479FF547E5469EF546C3E5499FF5491F
:10070200E5489EF548C3E5439FF543E5429EF54221
:10071200C3E54B9FF54BE54A9EF54AC3E54F9FF56E
:100722004FE54E9EF54ED2E843D82090E668E0446D
:1007320009F090E65CE0443DF0D2AF90E680E02024
:10074200E105D20B120FF790E680E054F7F0538EDA
:10075200F8C20A3008051203BDC208300A29121174
:100762008D5024C20A12107E20071690E682E030D5
:10077200E704E020E1EF90E682E030E604E020E0EA
:0C078200E412102612118F120DC280C765
:1003BD0090E6B9E0700302046E1470030204EB249E
:1003CD00FE700302056E24FB7003020468147003B3
:1003DD00020462146073146076240560030205CE76
:1003ED0012119140030205DA90E6BBE024FE602273
:1003FD0014603324FD601114602224067048E54416
:10040D0090E6B3F0E5458037E54C90E6B3F0E54D69
:10041D00802DE54690E6B3F0E5478023E54890E66C
:10042D00B3F0E549801990E6BAE0FF121052AA0622
:10043D00A9077B01EA494B600DEE90E6B3F0EF9012
:10044D00E6B4F00205DA0205D31211490205DA12FB
:10045D0011730205DA120ADC0205DA1211370205F0
:10046D00DA12119340030205DA90E6B8E0247F60BA
:10047D001514601924027063A207E43325E0FFA26E
:10048D0009E4334F8041E490E740F0803F90E6BCB3
:10049D00E0547EFF7E00E0D394807C0040047D011B
:1004AD0080027D00EC4EFEED4F2469F58274113E05
:1004BD00F583E493FF3395E0FEEF24A1FFEE34E6E0
:1004CD008F82F583E0540190E740F0E4A3F090E6CD
:1004DD008AF090E68B7402F00205DA0205D3121150
:1004ED009540030205DA90E6B8E024FE601624027A
:1004FD0060030205DA90E6BAE0B40105C207020511
:10050D00DA0205D390E6BAE0705590E6BCE0547E71
:10051D00FF7E00E0D394807C0040047D0180027D4D
:10052D0000EC4EFEED4F2469F58274113EF583E427
:10053D0093FF3395E0FEEF24A1FFEE34E68F82F5B5
:10054D0083E054FEF090E6BCE05480131313541F67
:10055D00FFE0540F2F90E683F0E04420F0806E8092
:10056D0065121197506790E6B8E024FE601A2402D8
:10057D00705B90E6BAE0B40104D207805090E6BA01
:10058D00E0B402028047803E90E6BCE0547EFF7EE0
:10059D0000E0D394807C0040047D0180027D00EC5E
:1005AD004EFEED4F2469F58274113EF583E493FF01
:1005BD003395E0FEEF24A1FFEE34E68F82F58380C4
:1005CD0008120080500790E6A0E04401F090E6A0EC
:0405DD00E04480F086
:0105E10022F7
:0300330002118334
:0411830053D8EF321C
:10089600608028000101010101010107000000003C
:1008A600000000000707070707070707000000000A
:1008B6000000003F010101010101010700000000E5
:1008C60000000000070707070707070700000000EA
:1008D6000000003F8F01070101010107010003022B
:1008E600020202000701070707070707F200F200E6
:1008F6000000003F0F010F01010101070102050081
:10090600000000000706070707070707F000F000CA
:100916000000003F6024288700000000000000005F
:1009260000000000000000000000000000000000C1
:10093600000000000000000000000000472880E0E2
:06094600000007BA4E009C
:10097D0090E60174BAF090E6F574FFF0902880E0EF
:10098D0090E6F3F0902881E090E6C3F0902882E0A5
:10099D0090E6C1F0902883E090E6C2F0902885E0C3
:1009AD0090E6C0F0902886E090E6F4F075AF0774FD
:1009BD0028F59A7400F59B759DE4E4F59EFF90E68D
:1009CD007BE090E67CF00FBF80F4E490E671F0F5EB
:1009DD00B490E672E0547FF053B67F000000E490CF
:1009ED00E6C4F000000090E6C5F0902887E090E6A0
:1009FD00C6F0902888E090E6C7F0902889E090E650
:100A0D00C8F090288AE090E6C9F090288BE090E637
:100A1D00CAF090288CE090E6CBF090288DE090E61F
:0A0A2D00CCF090288EE090E6CDF0AA
:010A3700229C
:100C00001201000200000040051668800000010289
:100C100000010A0600020000004001000902200055
:100C200001010080320904000002FF0000000705F6
:100C300002020002000705860200020009022E00DF
:100C400001010080320904000004FF0000000705D4
:100C5000020240000007050402400000070586026A
:100C60004000000705880240000014030000000057
:100C700000000000000000000000000000000C0365
:100C80004100430043004500530024035500530036
:100C900042002D0041004F002D0041005200420053
:100CA0003100000000000000000000000000000013
:10094C00C100C103C101C105C184C182020D0000F7
:10095C004228AE00004128AD000214000001110035
:10096C00010B570116080118034228AB0000C10601
:02118D00D3226B
:02118F00D32269
:02119100D32267
:100ADC0000000090E6247402F0000000E490E6258B
:0E0AEC00F0000000D20390E6BAE0F51AD32223
:1011370090E740E51AF0E490E68AF090E68B04F039
:02114700D322B1
:0811730090E6BAE0F50AD32270
:1011490090E740E50AF0E490E68AF090E68B04F037
:02115900D3229F
:02119300D32265
:02119500D32263
:02119700D32261
:050AFA00C284D2842239
:03118700AFB122E3
:03118A008FB12200
:100A380012117B90E678E05410FFC4540F4450F52F
:100A48000C13E433F51B90E600E054E74410F00083
:100A5800000090E61274A0F0000000E490E613F0A5
:100A680000000090E61474E0F0000000E490E61541
:100A7800F090E6047480F00000007402F0000000BA
:100A88007406F0000000E4F000000090E618F000A2
:100A980000007411F000000090E61A7409F00000DC
:100AA8000012097DE490E672F090E671F000000013
:100AB80090E6D204F000000090E6E204F0D20712BB
:100AC8000AFA75B2FA75B403C2865380FD90E6F54A
:040AD80074FFF02295
:100DC200200146E5BB30E741E5AB20E13C000000F5
:100DD20090E690E0FC00000090E691E0FD0000004B
:100DE200ECC313FCED13FDEC90E6D0F0000000AF75
:100DF20005EF90E6D1F0000000E4F5BB000000E54D
:100E0200BB30E7030080F80000E58070047F0180BA
:100E1200027F00EF90E68030E005E04408F022E037
:030E220054F7F092
:010E250022AA
:0D115B0090E6F4E030E303D38001C3920B73
:011168002264
:10008000E4F532F53390E6B9E0120D9C01691001F8
:100090008311011E12010F13019B3401AC3501AC19
:1000A0003601A6380237A20237A300CEB701EDBD54
:1000B00000B7D4000003B990E740E5AAF090E6A3AA
:1000C000E090E741F090E6A5E090E742804D90E6B1
:1000D000B8E030E71E90E7407402F090E6F4E030BC
:1000E000E3047F0180027F0090E741EFF0E490E6B7
:1000F0008A802890E6A0E020E1F990E6BCE0146058
:1001000008047018C28502019012115B020190E58B
:10011000A0540390E740F0E490E68AF08072E49007
:10012000E68AF090E6BEE090E68BF090E6A0E02054
:10013000E1F990E741E01392A030A00543B60F80AB
:100140000353B6F090E741E030E103D38001C3925E
:10015000A130A10543B6F0800353B60F90E740E00D
:10016000FF12118AC2870203BB90E6BEE090E68BC5
:10017000F090E6A0E020E1F990E740E0FF12118A5C
:100180000203BB12118790E740EFF0E490E68AF09B
:1001900090E6BEE090E68BF00203BBD20690E68BC1
:1001A0007401F00203BB90E6F574FFF0C206120A78
:1001B000FA90E6047480F00000007402F000000081
:1001C0007406F0000000E4F000000090E6917480F6
:1001D000F0000000F0000000F0000000F00000005F
:1001E000E490E68AF090E68B04F00203BBE490E62C
:1001F0008AF090E6BEE090E68BF090E6A0E020E189
:10020000F990E740E030E004C283802190E741E0CC
:100210009028ABF090E742E09028ACF0E04402F088
:100220007A287BAB7D027F171210BFD28390E6A0A5
:10023000E04480F00203BB90E6BAE0753400F53587
:10024000A3E0FEEE423490E6BEE0753600F537A33B
:10025000E0FEEE423690E6B8E064C060030203239D
:10026000E537453670030203BB90E6A0E020E1F9D4
:10027000C3E5379440E53694005008853638853715
:1002800039800675380075394090E6B9E0B4A33579
:10029000E4F53AF53BC3E53B9539E53A9538505ED0
:1002A000E535253BF582E534353AF583E0FF7440CA
:1002B000253BF582E434E7F583EFF0053BE53B7041
:1002C000D4053A80D0E4F53AF53BC3E53B9539E5F2
:1002D0003A953850187440253BF582E434E7F583AD
:1002E00074CDF0053BE53B70E1053A80DDAD397A30
:1002F000E779407F40AB07AF35AE34120BB8E490DE
:10030000E68AF090E68BE539F02535F535E53835A8
:1003100034F534C3E5379539F537E5369538F53694
:1003200002026090E6B8E0644060030203BBE53778
:10033000453670030203BBE490E68AF090E68BF04A
:1003400090E6A0E020E1F990E68BE0753800F53901
:1003500090E6B9E0B4A335E4F53AF53BC3E53B9547
:1003600039E53A953850367440253BF582E434E758
:10037000F583E0FFE535253BF582E534353AF58335
:10038000EFF0053BE53B70D4053A80D0AD397AE714
:1003900079407F40AB07AF35AE34120F5CE53925AD
:1003A00035F535E5383534F534C3E5379539F53766
:0C03B000E5369538F53602032ED322C343
:0103BC00221E
:1010DB00C0E0C083C082D2085391EF90E65D7401EB
:0810EB00F0D082D083D0E03286
:10110B00C0E0C083C0825391EF90E65D7404F0D0D1
:06111B0082D083D0E03217
:10112100C0E0C083C0825391EF90E65D7402F0D0BD
:0611310082D083D0E03201
:100EF000C0E0C083C082854A46854B4785478285CE
:100F00004683A37402F0854248854349854982851A
:100F10004883A37407F05391EF90E65D7410F0D00E
:060F200082D083D0E03214
:1010F300C0E0C083C082D20A5391EF90E65D7408CA
:08110300F0D082D083D0E0326D
:100EB300C0E0C083C08290E680E030E720854246F0
:100EC300854347854782854683A37402F0854A4854
:100ED300854B49854982854883A37407F05391EF75
:0D0EE30090E65D7420F0D082D083D0E03224
:010AFF0032C4
:011199003223
:01119A003222
:01119B003221
:01119C003220
:01119D00321F
:01119E00321E
:01119F00321D
:0111A000321C
:0111A100321B
:0111A200321A
:0111A3003219
:0111A4003218
:0111A5003217
:0111A6003216
:0111A7003215
:0111A8003214
:0111A9003213
:0111AA003212
:0111AB003211
:0111AC003210
:0111AD00320F
:0111AE00320E
:0111AF00320D
:0111B000320C
:0111B100320B
:0111B200320A
:0111B3003209
:0111B4003208
:0111B5003207
:0111B6003206
:0111B7003205
:0111B8003204
:0111B9003203
:0111BA003202
:0111BB003201
:060E2600AB07AA06AC05B3
:100E2C00E4FDE51B600F7E000DEE24B0F582E4348A
:100E3C0028F583EAF0AE050D74B02EF582E4342863
:100E4C00F583EBF0AF050D74B02FF582E43428F583
:100E5C0083ECF07A287BB0AF0C1210BFAF0C020FF2
:010E6C00265F
:0A0F5C008E3C8F3D8D3E8A3F8B4096
:100F6600E4F541E541C3953E5020053DE53DAE3CE7
:100F76007002053C14FFE5402541F582E4353FF556
:0A0F860083E0FD120E26054180D91C
:010F9000223E
:0A0BB8008E3C8F3D8D3E8A3F8B403E
:100BC200E4FDF541E51B6012E53CFF7E000DEE24DD
:100BD200B0F582E43428F583EFF0AE050D74B02E43
:100BE200F582E43428F583E53DF07A287BB0AF0C3A
:0E0BF2001210BFAB40AA3FAD3EAF0C0210A3E5
:03004300020B00AD
:03005300020B009D
:100B00000210DB000211210002110B000210F300A1
:100B1000020EF000020EB300020AFF00021199005B
:100B200002119A0002119B0002119C0002119D000B
:100B300002119E0002119F000211A0000211A100EB
:100B40000211A200021199000211A3000211A400D7
:100B50000211A5000211A6000211A7000211A800AF
:100B60000211A900021199000211990002119900C5
:100B70000211AA000211AB000211AC000211AD007B
:100B80000211AE000211AF000211B0000211B1005B
:100B90000211B2000211B3000211B4000211B5003B
:100BA0000211B6000211B7000211B8000211B9001B
:080BB0000211BA000211BB00A2
:1010260090E682E030E004E020E60B90E682E030D5
:10103600E119E030E71590E680E04401F07F147E88
:0C10460000120E6D90E680E054FEF022D7
:10107E0090E682E044C0F090E681F04387010000E4
:04108E00000000223C
:100FF700300B0990E680E0440AF0800790E680E035
:101007004408F07FDC7E05120E6D90E65D74FFF0FC
:0F10170090E65FF05391EF90E680E054F7F022FF
:08117B00E4F555D2E9D2AF22E0
:100F260090E678E020E6F9C2E990E678E04480F0C1
:100F3600EF25E090E679F090E678E030E0F990E68B
:100F460078E04440F090E678E020E6F990E678E034
:060F560030E1D6D2E922D1
:100FC500A90790E678E020E6F9E555702390E678E4
:100FD500E04480F0E925E090E679F08D50AF03A973
:100FE500077551018A528953E4F554755501D32289
:020FF500C32215
:100F9100A90790E678E020E6F9E555702590E67816
:100FA100E04480F0E925E0440190E679F08D50AF0E
:100FB10003A9077551018A528953E4F55475550304
:040FC100D322C32252
:03004B0002078E1B
:10078E00C0E0C083C082C085C084C086758600C0AC
:10079E00D075D000C000C001C002C003C006C007A3
:1007AE0090E678E030E20675550602087890E67815
:1007BE00E020E10CE55564026006755507020878E5
:1007CE00E55524FE605F14603624FE70030208694E
:1007DE0024FC700302087524086003020878AB51EC
:1007EE00AA52A953AF5405548F82758300120D3C43
:1007FE0090E679F0E55465507070755505806B90F4
:10080E00E679E0AB51AA52A953AE548E827583009D
:10081E00120D69755502E5506401704E90E678E050
:10082E004420F08045E55024FEB5540790E678E06C
:10083E004420F0E55014B5540A90E678E04440F0B8
:10084E0075550090E679E0AB51AA52A953AE548E7D
:10085E0082758300120D690554800F90E678E0448E
:10086E0040F075550080037555005391DFD007D0C9
:10087E0006D003D002D001D000D0D0D086D084D004
:08088E0085D082D083D0E03256
:02105200A907EC
:10105400AE4EAF4F8F828E83A3E064037017AD0151
:1010640019ED7001228F828E83E07C002FFDEC3E0F
:09107400FEAF0580DF7E007F0065
:01107D002250
:1010A300120F91E55524FA600E146006240770F3BD
:0C10B300D322E4F555D322E4F555D322F6
:1010BF00120FC5E55524FA600E146006240770F36D
:0C10CF00D322E4F555D322E4F555D322DA
:100E6D008E328F3390E600E054187012E533240172
:100E7D00FFE43532C313F532EF13F533801590E6E9
:100E8D0000E05418FFBF100BE53325E0F533E532D4
:100E9D0033F532E5331533AE32700215324E60053F
:060EAD0012109280EE22FB
:101092007400F58690FDA57C05A3E582458370F971
:0110A200222B
:03000000020CB03F
:0C0CB000787FE4F6D8FD758155020CF742
:100D3C00BB010CE58229F582E5833AF583E022506C
:100D4C0006E92582F8E622BBFE06E92582F8E222B6
:0D0D5C00E58229F582E5833AF583E49322D0
:100D6900F8BB010DE58229F582E5833AF583E8F0C0
:100D7900225006E92582C8F622BBFE05E92582C86C
:020D8900F22254
:100D8B00EB9FF5F0EA9E42F0E99D42F0E89C45F0BE
:010D9B002235
:100D9C00D083D082F8E4937012740193700DA3A3E6
:100DAC0093F8740193F5828883E4737402936860FA
:060DBC00EFA3A3A380DFFA
:100CBC000205E2E493A3F8E493A34003F68001F267
:100CCC0008DFF48029E493A3F85407240CC8C33339
:100CDC00C4540F4420C8834004F456800146F6DF08
:100CEC00E4800B0102040810204080900896E47EFA
:100CFC00019360BCA3FF543F30E509541FFEE493FD
:100D0C00A360010ECF54C025E060A840B8E493A3C3
:100D1C00FAE493A3F8E493A3C8C582C8CAC583CAEE
:100D2C00F0A3C8C582C8CAC583CADFE9DEE780BEA6
:01097C00007A
:00000001FF
